Component: ARM Compiler 5.06 update 7 (build 960) Tool: armlink [4d3601]

==============================================================================

Section Cross References

    main.o(i.AutoReloadCallback) refers to oled_config.o(i.OledTimeMsFunc) for OledTimeMsFunc
    main.o(i.AutoReloadCallback) refers to main.o(.data) for .data
    main.o(i.OLED_Polygon_task) refers to test.o(i.ShowPolygon) for ShowPolygon
    main.o(i.OLED_Polygon_task) refers to oled_basic.o(i.ClearScreen) for ClearScreen
    main.o(i.OLED_Polygon_task) refers to oled_debug.o(i.OledPrintf) for OledPrintf
    main.o(i.OLED_Polygon_task) refers to tasks.o(i.vTaskDelete) for vTaskDelete
    main.o(i.OLED_Polygon_task) refers to main.o(.data) for .data
    main.o(i.OLED_TEST_task) refers to test.o(i.demo) for demo
    main.o(i.OLED_TEST_task) refers to port.o(i.vPortEnterCritical) for vPortEnterCritical
    main.o(i.OLED_TEST_task) refers to tasks.o(i.xTaskCreate) for xTaskCreate
    main.o(i.OLED_TEST_task) refers to tasks.o(i.vTaskDelete) for vTaskDelete
    main.o(i.OLED_TEST_task) refers to port.o(i.vPortExitCritical) for vPortExitCritical
    main.o(i.OLED_TEST_task) refers to main.o(.data) for .data
    main.o(i.OLED_TEST_task) refers to main.o(i.OLED_WATCH_task) for OLED_WATCH_task
    main.o(i.OLED_WATCH_task) refers to test.o(i.ShowWatch) for ShowWatch
    main.o(i.OLED_WATCH_task) refers to tasks.o(i.xTaskCreate) for xTaskCreate
    main.o(i.OLED_WATCH_task) refers to tasks.o(i.vTaskDelete) for vTaskDelete
    main.o(i.OLED_WATCH_task) refers to main.o(.data) for .data
==============================================================================

Removing Unused input sections from the image.

    Removing main.o(i.AutoReloadCallback), (36 bytes).
    Removing main.o(i.task1_task), (36 bytes).
    Removing main.o(.data), (4 bytes).
    Removing main.o(.data), (4 bytes).
    Removing system_stm32f10x.o(i.SystemCoreClockUpdate), (104 bytes).
    Removing timer.o(i.TIM3_Int_Init), (96 bytes).
    Removing timer.o(i.TIM5_Int_Init), (96 bytes).
    Removing delay.o(i.delay_xms), (26 bytes).
    Removing sys.o(.emb_text), (6 bytes).
    Removing sys.o(i.INTX_DISABLE), (4 bytes).
    Removing sys.o(i.INTX_ENABLE), (4 bytes).
    Removing sys.o(i.WFI_SET), (4 bytes).
    Removing core_cm3.o(.emb_text), (32 bytes).
    Removing misc.o(i.NVIC_SetVectorTable), (20 bytes).
    Removing misc.o(i.NVIC_SystemLPConfig), (24 bytes).
    Removing stm32f10x_gpio.o(i.GPIO_AFIODeInit), (22 bytes).
    Removing stm32f10x_gpio.o(i.GPIO_DeInit), (180 bytes).
    Removing stm32f10x_gpio.o(i.GPIO_ETH_MediaInterfaceConfig), (12 bytes).
==============================================================================

Image Symbol Table

    Local Symbols

    Symbol Name                              Value     Ov Type        Size  Object(Section)

    ../clib/angel/boardlib.s                 0x00000000   Number         0  boardinit1.o ABSOLUTE
    ../clib/angel/boardlib.s                 0x00000000   Number         0  boardshut.o ABSOLUTE
    ../clib/angel/boardlib.s                 0x00000000   Number         0  boardinit3.o ABSOLUTE
    ../clib/angel/boardlib.s                 0x00000000   Number         0  boardinit2.o ABSOLUTE
    ../clib/angel/handlers.s                 0x00000000   Number         0  __scatter_zi.o ABSOLUTE
    ../clib/angel/handlers.s                 0x00000000   Number         0  __scatter_copy.o ABSOLUTE
    ../clib/angel/kernel.s                   0x00000000   Number         0  __rtentry2.o ABSOLUTE
    ../clib/angel/kernel.s                   0x00000000   Number         0  rtexit.o ABSOLUTE
    ../clib/angel/kernel.s                   0x00000000   Number         0  __rtentry.o ABSOLUTE
    ../clib/angel/kernel.s                   0x00000000   Number         0  __rtentry4.o ABSOLUTE
    ../clib/angel/kernel.s                   0x00000000   Number         0  rtexit2.o ABSOLUTE
    ../clib/angel/rt.s                       0x00000000   Number         0  rt_errno_addr.o ABSOLUTE
    ../clib/angel/rt.s                       0x00000000   Number         0  rt_errno_addr_intlibspace.o ABSOLUTE
    ../clib/angel/rt.s                       0x00000000   Number         0  rt_raise.o ABSOLUTE
    ../clib/angel/scatter.s                  0x00000000   Number         0  __scatter.o ABSOLUTE
    ../clib/angel/startup.s                  0x00000000   Number         0  __main.o ABSOLUTE
    ../clib/angel/sys.s                      0x00000000   Number         0  use_no_semi_2.o ABSOLUTE
    ../clib/angel/sys.s                      0x00000000   Number         0  libspace.o ABSOLUTE
    ../clib/angel/sys.s                      0x00000000   Number         0  sys_stackheap_outer.o ABSOLUTE
    ../clib/angel/sys.s                      0x00000000   Number         0  use_no_semi.o ABSOLUTE
    ../clib/angel/sys.s                      0x00000000   Number         0  indicate_semi.o ABSOLUTE
    ../clib/angel/sysapp.c                   0x00000000   Number         0  sys_command.o ABSOLUTE
    ../clib/angel/sysapp.c                   0x00000000   Number         0  sys_wrch.o ABSOLUTE
    ../clib/armsys.c                         0x00000000   Number         0  argv_veneer.o ABSOLUTE
    ../clib/armsys.c                         0x00000000   Number         0  argv_veneer.o ABSOLUTE
    ../clib/armsys.c                         0x00000000   Number         0  no_argv.o ABSOLUTE
    ../clib/armsys.c                         0x00000000   Number         0  _get_argv_nomalloc.o ABSOLUTE
    ../clib/fenv.c                           0x00000000   Number         0  _rserrno.o ABSOLUTE
    ../clib/heapalloc.c                      0x00000000   Number         0  hrguard.o ABSOLUTE
    ../clib/heapaux.c                        0x00000000   Number         0  heapauxi.o ABSOLUTE
    ../clib/libinit.s                        0x00000000   Number         0  libinit.o ABSOLUTE
    ../clib/libinit.s                        0x00000000   Number         0  libinit2.o ABSOLUTE
    ../clib/libinit.s                        0x00000000   Number         0  libshutdown2.o ABSOLUTE
    ../clib/libinit.s                        0x00000000   Number         0  libshutdown.o ABSOLUTE
    ../clib/memcpset.s                       0x00000000   Number         0  rt_memcpy_w.o ABSOLUTE
    ../clib/memcpset.s                       0x00000000   Number         0  rt_memcpy_v6.o ABSOLUTE
    ../clib/memcpset.s                       0x00000000   Number         0  rt_memclr.o ABSOLUTE
    ../clib/memcpset.s                       0x00000000   Number         0  rt_memclr_w.o ABSOLUTE
    ../clib/memcpset.s                       0x00000000   Number         0  aeabi_memset.o ABSOLUTE
    ../clib/printf.c                         0x00000000   Number         0  _printf_char_file.o ABSOLUTE
    ../clib/printf.c                         0x00000000   Number         0  __printf_ss.o ABSOLUTE
    ../clib/printf.c                         0x00000000   Number         0  _printf_dec.o ABSOLUTE
    ../clib/printf.c                         0x00000000   Number         0  __printf_nopercent.o ABSOLUTE
    ../clib/printf.c                         0x00000000   Number         0  _printf_str.o ABSOLUTE
    ../clib/printf.c                         0x00000000   Number         0  __printf_flags_ss_wp.o ABSOLUTE
    ../clib/printf.c                         0x00000000   Number         0  __printf.o ABSOLUTE
    ../clib/printf.c                         0x00000000   Number         0  __printf_ss_wp.o ABSOLUTE
    ../clib/printf.c                         0x00000000   Number         0  noretval__2sprintf.o ABSOLUTE
    ../clib/printf.c                         0x00000000   Number         0  __printf_flags_wp.o ABSOLUTE
    ../clib/printf.c                         0x00000000   Number         0  __printf_wp.o ABSOLUTE
    ../clib/printf.c                         0x00000000   Number         0  __printf_flags_ss.o ABSOLUTE
    ../clib/printf.c                         0x00000000   Number         0  __printf_flags.o ABSOLUTE
    ../clib/printf.c                         0x00000000   Number         0  _printf_intcommon.o ABSOLUTE
    ../clib/printf.c                         0x00000000   Number         0  noretval__2printf.o ABSOLUTE
    ../clib/printf.c                         0x00000000   Number         0  __2sprintf.o ABSOLUTE
    ../clib/printf.c                         0x00000000   Number         0  __2printf.o ABSOLUTE
    ../clib/printf.c                         0x00000000   Number         0  _printf_char_common.o ABSOLUTE
    ../clib/printf.c                         0x00000000   Number         0  _sputc.o ABSOLUTE
    ../clib/printf.c                         0x00000000   Number         0  _printf_char.o ABSOLUTE
    ../clib/printf_percent.s                 0x00000000   Number         0  _printf_c.o ABSOLUTE
    ../clib/printf_percent.s                 0x00000000   Number         0  _printf_s.o ABSOLUTE
    ../clib/printf_percent.s                 0x00000000   Number         0  _printf_d.o ABSOLUTE
    ../clib/printf_percent.s                 0x00000000   Number         0  _printf_percent.o ABSOLUTE
    ../clib/printf_percent.s                 0x00000000   Number         0  _printf_u.o ABSOLUTE
    ../clib/printf_percent.s                 0x00000000   Number         0  _printf_percent_end.o ABSOLUTE
    ../clib/signal.c                         0x00000000   Number         0  defsig_fpe_inner.o ABSOLUTE
    ../clib/signal.c                         0x00000000   Number         0  defsig_rtmem_outer.o ABSOLUTE
    ../clib/signal.c                         0x00000000   Number         0  defsig_rtred_inner.o ABSOLUTE
    ../clib/signal.c                         0x00000000   Number         0  defsig_rtmem_inner.o ABSOLUTE
    ../clib/signal.c                         0x00000000   Number         0  defsig_segv_inner.o ABSOLUTE
    ../clib/signal.c                         0x00000000   Number         0  defsig_rtmem_formal.o ABSOLUTE
    ../clib/signal.c                         0x00000000   Number         0  defsig_cppl_inner.o ABSOLUTE
    ../clib/signal.c                         0x00000000   Number         0  __raise.o ABSOLUTE
    ../clib/signal.c                         0x00000000   Number         0  defsig_exit.o ABSOLUTE
    ../clib/signal.c                         0x00000000   Number         0  defsig_abrt_inner.o ABSOLUTE
    ../clib/signal.c                         0x00000000   Number         0  defsig_general.o ABSOLUTE
    ../clib/signal.c                         0x00000000   Number         0  defsig_pvfn_inner.o ABSOLUTE
    ../clib/signal.c                         0x00000000   Number         0  defsig_stak_inner.o ABSOLUTE
    ../clib/signal.c                         0x00000000   Number         0  defsig_other.o ABSOLUTE
    ../clib/signal.s                         0x00000000   Number         0  defsig.o ABSOLUTE
    ../clib/stdio.c                          0x00000000   Number         0  ferror.o ABSOLUTE
    ../clib/stdio.c                          0x00000000   Number         0  ferror_locked.o ABSOLUTE
    ../clib/stdlib.c                         0x00000000   Number         0  rand.o ABSOLUTE
    ../clib/stdlib.c                         0x00000000   Number         0  rand.o ABSOLUTE
    ../clib/stdlib.c                         0x00000000   Number         0  exit.o ABSOLUTE
    ../clib/string.c                         0x00000000   Number         0  strlen.o ABSOLUTE
    ../clib/string.c                         0x00000000   Number         0  strcpy.o ABSOLUTE
    ../fplib/d2f.s                           0x00000000   Number         0  d2f.o ABSOLUTE
    ../fplib/daddsub.s                       0x00000000   Number         0  daddsub_clz.o ABSOLUTE
    ../fplib/dcheck1.s                       0x00000000   Number         0  dcheck1.o ABSOLUTE
    ../fplib/dcmpi.s                         0x00000000   Number         0  dcmpi.o ABSOLUTE
    ../fplib/ddiv.s                          0x00000000   Number         0  ddiv.o ABSOLUTE
    ../fplib/deqf.s                          0x00000000   Number         0  deqf.o ABSOLUTE
    ../fplib/dfix.s                          0x00000000   Number         0  dfix.o ABSOLUTE
    ../fplib/dflt.s                          0x00000000   Number         0  dflt_clz.o ABSOLUTE
    ../fplib/dmul.s                          0x00000000   Number         0  dmul.o ABSOLUTE
    ../fplib/dnaninf.s                       0x00000000   Number         0  dnaninf.o ABSOLUTE
    ../fplib/dretinf.s                       0x00000000   Number         0  dretinf.o ABSOLUTE
    ../fplib/f2d.s                           0x00000000   Number         0  f2d.o ABSOLUTE
    ../fplib/faddsub.s                       0x00000000   Number         0  faddsub_clz.o ABSOLUTE
    ../fplib/fcheck1.s                       0x00000000   Number         0  fcheck1.o ABSOLUTE
    ../fplib/fcmpi.s                         0x00000000   Number         0  fcmpi.o ABSOLUTE
    ../fplib/fdiv.s                          0x00000000   Number         0  fdiv.o ABSOLUTE
    ../fplib/fflt.s                          0x00000000   Number         0  fflt_clz.o ABSOLUTE
    ../fplib/fleqf.s                         0x00000000   Number         0  fleqf.o ABSOLUTE
    ../fplib/fnaninf.s                       0x00000000   Number         0  fnaninf.o ABSOLUTE
    ../fplib/fpinit.s                        0x00000000   Number         0  fpinit.o ABSOLUTE
    ../fplib/fretinf.s                       0x00000000   Number         0  fretinf.o ABSOLUTE
    ../fplib/frleqf.s                        0x00000000   Number         0  frleqf.o ABSOLUTE
    ../fplib/retnan.s                        0x00000000   Number         0  retnan.o ABSOLUTE
    ../fplib/scalbn.s                        0x00000000   Number         0  scalbn.o ABSOLUTE
    ../fplib/scalbnf.s                       0x00000000   Number         0  scalbnf.o ABSOLUTE
    ../fplib/trapv.s                         0x00000000   Number         0  trapv.o ABSOLUTE
    ../fplib/usenofp.s                       0x00000000   Number         0  usenofp.o ABSOLUTE
    ../mathlib/atan.c                        0x00000000   Number         0  atan_x.o ABSOLUTE
    ../mathlib/atan.c                        0x00000000   Number         0  atan.o ABSOLUTE
    ../mathlib/atan2.c                       0x00000000   Number         0  atan2_x.o ABSOLUTE
    ../mathlib/atan2.c                       0x00000000   Number         0  atan2.o ABSOLUTE
    ../mathlib/cos.c                         0x00000000   Number         0  cos_x.o ABSOLUTE
    ../mathlib/cos.c                         0x00000000   Number         0  cos.o ABSOLUTE
    ../mathlib/cos_i.c                       0x00000000   Number         0  cos_i.o ABSOLUTE
    ../mathlib/dunder.c                      0x00000000   Number         0  dunder.o ABSOLUTE
    ../mathlib/fpclassify.c                  0x00000000   Number         0  fpclassify.o ABSOLUTE
    ../mathlib/poly.c                        0x00000000   Number         0  poly.o ABSOLUTE
    ../mathlib/qnan.c                        0x00000000   Number         0  qnan.o ABSOLUTE
    ../mathlib/rred.c                        0x00000000   Number         0  rred.o ABSOLUTE
    ../mathlib/sin.c                         0x00000000   Number         0  sin_x.o ABSOLUTE
    ../mathlib/sin.c                         0x00000000   Number         0  sin.o ABSOLUTE
    ../mathlib/sin_i.c                       0x00000000   Number         0  sin_i_x.o ABSOLUTE
    ../mathlib/sin_i.c                       0x00000000   Number         0  sin_i.o ABSOLUTE
    ..\CORE\core_cm3.c                       0x00000000   Number         0  core_cm3.o ABSOLUTE
    ..\CORE\startup_stm32f10x_hd.s           0x00000000   Number         0  startup_stm32f10x_hd.o ABSOLUTE
    ..\FreeRTOS\croutine.c                   0x00000000   Number         0  croutine.o ABSOLUTE
    ..\FreeRTOS\event_groups.c               0x00000000   Number         0  event_groups.o ABSOLUTE
    ..\FreeRTOS\list.c                       0x00000000   Number         0  list.o ABSOLUTE
    ..\FreeRTOS\portable\MemMang\heap_4.c    0x00000000   Number         0  heap_4.o ABSOLUTE
    ..\FreeRTOS\portable\RVDS\ARM_CM3\port.c 0x00000000   Number         0  port.o ABSOLUTE
    ..\FreeRTOS\queue.c                      0x00000000   Number         0  queue.o ABSOLUTE
    ..\FreeRTOS\tasks.c                      0x00000000   Number         0  tasks.o ABSOLUTE
    ..\FreeRTOS\timers.c                     0x00000000   Number         0  timers.o ABSOLUTE
    ..\HARDWARE\Demo\test.c                  0x00000000   Number         0  test.o ABSOLUTE
    ..\HARDWARE\KEY\key.c                    0x00000000   Number         0  key.o ABSOLUTE
    ..\HARDWARE\LED\led.c                    0x00000000   Number         0  led.o ABSOLUTE
    ..\HARDWARE\OLEDLib\oled_basic.c         0x00000000   Number         0  oled_basic.o ABSOLUTE
    ..\HARDWARE\OLEDLib\oled_bmp.c           0x00000000   Number         0  oled_bmp.o ABSOLUTE
    ..\HARDWARE\OLEDLib\oled_buffer.c        0x00000000   Number         0  oled_buffer.o ABSOLUTE
    ..\HARDWARE\OLEDLib\oled_color.c         0x00000000   Number         0  oled_color.o ABSOLUTE
    ..\HARDWARE\OLEDLib\oled_config.c        0x00000000   Number         0  oled_config.o ABSOLUTE
    ..\HARDWARE\OLEDLib\oled_debug.c         0x00000000   Number         0  oled_debug.o ABSOLUTE
    ..\HARDWARE\OLEDLib\oled_draw.c          0x00000000   Number         0  oled_draw.o ABSOLUTE
    ..\HARDWARE\OLEDLib\oled_driver.c        0x00000000   Number         0  oled_driver.o ABSOLUTE
    ..\HARDWARE\OLEDLib\oled_font.c          0x00000000   Number         0  oled_font.o ABSOLUTE
    ..\HARDWARE\TIMER\timer.c                0x00000000   Number         0  timer.o ABSOLUTE
    ..\STM32F10x_FWLib\src\misc.c            0x00000000   Number         0  misc.o ABSOLUTE
    ..\STM32F10x_FWLib\src\stm32f10x_dbgmcu.c 0x00000000   Number         0  stm32f10x_dbgmcu.o ABSOLUTE
    ..\STM32F10x_FWLib\src\stm32f10x_exti.c  0x00000000   Number         0  stm32f10x_exti.o ABSOLUTE
    ..\STM32F10x_FWLib\src\stm32f10x_fsmc.c  0x00000000   Number         0  stm32f10x_fsmc.o ABSOLUTE
    ..\STM32F10x_FWLib\src\stm32f10x_gpio.c  0x00000000   Number         0  stm32f10x_gpio.o ABSOLUTE
    ..\STM32F10x_FWLib\src\stm32f10x_rcc.c   0x00000000   Number         0  stm32f10x_rcc.o ABSOLUTE
    ..\STM32F10x_FWLib\src\stm32f10x_tim.c   0x00000000   Number         0  stm32f10x_tim.o ABSOLUTE
    ..\STM32F10x_FWLib\src\stm32f10x_usart.c 0x00000000   Number         0  stm32f10x_usart.o ABSOLUTE
    ..\SYSTEM\delay\delay.c                  0x00000000   Number         0  delay.o ABSOLUTE
    ..\SYSTEM\sys\sys.c                      0x00000000   Number         0  sys.o ABSOLUTE
    ..\SYSTEM\usart\usart.c                  0x00000000   Number         0  usart.o ABSOLUTE
    ..\\CORE\\core_cm3.c                     0x00000000   Number         0  core_cm3.o ABSOLUTE
    ..\\FreeRTOS\\portable\\RVDS\\ARM_CM3\\port.c 0x00000000   Number         0  port.o ABSOLUTE
    ..\\SYSTEM\\sys\\sys.c                   0x00000000   Number         0  sys.o ABSOLUTE
    dc.s                                     0x00000000   Number         0  dc.o ABSOLUTE
    main.c                                   0x00000000   Number         0  main.o ABSOLUTE
    stm32f10x_it.c                           0x00000000   Number         0  stm32f10x_it.o ABSOLUTE
    system_stm32f10x.c                       0x00000000   Number         0  system_stm32f10x.o ABSOLUTE
    RESET                                    0x08000000   Section      304  startup_stm32f10x_hd.o(RESET)
    !!!main                                  0x08000130   Section        8  __main.o(!!!main)
    !!!scatter                               0x08000138   Section       52  __scatter.o(!!!scatter)
    !!handler_copy                           0x0800016c   Section       26  __scatter_copy.o(!!handler_copy)
    !!handler_zi                             0x08000188   Section       28  __scatter_zi.o(!!handler_zi)
    .ARM.Collect$$_printf_percent$$00000000  0x080001a4   Section        0  _printf_percent.o(.ARM.Collect$$_printf_percent$$00000000)
    .ARM.Collect$$_printf_percent$$00000009  0x080001a4   Section        6  _printf_d.o(.ARM.Collect$$_printf_percent$$00000009)
    .ARM.Collect$$_printf_percent$$00000014  0x080001aa   Section        6  _printf_s.o(.ARM.Collect$$_printf_percent$$00000014)
    .ARM.Collect$$_printf_percent$$00000017  0x080001b0   Section        4  _printf_percent_end.o(.ARM.Collect$$_printf_percent$$00000017)
    .ARM.Collect$$libinit$$00000000          0x080001b4   Section        2  libinit.o(.ARM.Collect$$libinit$$00000000)
    .ARM.Collect$$libinit$$00000002          0x080001b6   Section        0  libinit2.o(.ARM.Collect$$libinit$$00000002)
    .ARM.Collect$$libinit$$00000004          0x080001b6   Section        0  libinit2.o(.ARM.Collect$$libinit$$00000004)
    .ARM.Collect$$libinit$$0000000A          0x080001b6   Section        0  libinit2.o(.ARM.Collect$$libinit$$0000000A)
    .ARM.Collect$$libinit$$0000000C          0x080001b6   Section        0  libinit2.o(.ARM.Collect$$libinit$$0000000C)
    .ARM.Collect$$libinit$$0000000E          0x080001b6   Section        0  libinit2.o(.ARM.Collect$$libinit$$0000000E)
    .ARM.Collect$$libinit$$00000011          0x080001b6   Section        0  libinit2.o(.ARM.Collect$$libinit$$00000011)
    .ARM.Collect$$libinit$$00000013          0x080001b6   Section        0  libinit2.o(.ARM.Collect$$libinit$$00000013)
    .ARM.Collect$$libinit$$00000015          0x080001b6   Section        0  libinit2.o(.ARM.Collect$$libinit$$00000015)
    .ARM.Collect$$libinit$$00000017          0x080001b6   Section        0  libinit2.o(.ARM.Collect$$libinit$$00000017)
    .ARM.Collect$$libinit$$00000019          0x080001b6   Section        0  libinit2.o(.ARM.Collect$$libinit$$00000019)
    .ARM.Collect$$libinit$$0000001B          0x080001b6   Section        0  libinit2.o(.ARM.Collect$$libinit$$0000001B)
    .ARM.Collect$$libinit$$0000001D          0x080001b6   Section        0  libinit2.o(.ARM.Collect$$libinit$$0000001D)
    .ARM.Collect$$libinit$$0000001F          0x080001b6   Section        0  libinit2.o(.ARM.Collect$$libinit$$0000001F)
    .ARM.Collect$$libinit$$00000021          0x080001b6   Section        0  libinit2.o(.ARM.Collect$$libinit$$00000021)
    .ARM.Collect$$libinit$$00000023          0x080001b6   Section        0  libinit2.o(.ARM.Collect$$libinit$$00000023)
    .ARM.Collect$$libinit$$00000025          0x080001b6   Section        0  libinit2.o(.ARM.Collect$$libinit$$00000025)
    .ARM.Collect$$libinit$$0000002C          0x080001b6   Section        0  libinit2.o(.ARM.Collect$$libinit$$0000002C)
    .ARM.Collect$$libinit$$0000002E          0x080001b6   Section        0  libinit2.o(.ARM.Collect$$libinit$$0000002E)
    .ARM.Collect$$libinit$$00000030          0x080001b6   Section        0  libinit2.o(.ARM.Collect$$libinit$$00000030)
    .ARM.Collect$$libinit$$00000032          0x080001b6   Section        0  libinit2.o(.ARM.Collect$$libinit$$00000032)
    .ARM.Collect$$libinit$$00000033          0x080001b6   Section        2  libinit2.o(.ARM.Collect$$libinit$$00000033)
    .ARM.Collect$$libshutdown$$00000000      0x080001b8   Section        2  libshutdown.o(.ARM.Collect$$libshutdown$$00000000)
    .ARM.Collect$$libshutdown$$00000002      0x080001ba   Section        0  libshutdown2.o(.ARM.Collect$$libshutdown$$00000002)
    .ARM.Collect$$libshutdown$$00000004      0x080001ba   Section        0  libshutdown2.o(.ARM.Collect$$libshutdown$$00000004)
    .ARM.Collect$$libshutdown$$00000006      0x080001ba   Section        0  libshutdown2.o(.ARM.Collect$$libshutdown$$00000006)
    .ARM.Collect$$libshutdown$$00000009      0x080001ba   Section        0  libshutdown2.o(.ARM.Collect$$libshutdown$$00000009)
    .ARM.Collect$$libshutdown$$0000000C      0x080001ba   Section        0  libshutdown2.o(.ARM.Collect$$libshutdown$$0000000C)
    .ARM.Collect$$libshutdown$$0000000E      0x080001ba   Section        0  libshutdown2.o(.ARM.Collect$$libshutdown$$0000000E)
    .ARM.Collect$$libshutdown$$00000011      0x080001ba   Section        0  libshutdown2.o(.ARM.Collect$$libshutdown$$00000011)
    .ARM.Collect$$libshutdown$$00000012      0x080001ba   Section        2  libshutdown2.o(.ARM.Collect$$libshutdown$$00000012)
    .ARM.Collect$$rtentry$$00000000          0x080001bc   Section        0  __rtentry.o(.ARM.Collect$$rtentry$$00000000)
    .ARM.Collect$$rtentry$$00000002          0x080001bc   Section        0  __rtentry2.o(.ARM.Collect$$rtentry$$00000002)
    .ARM.Collect$$rtentry$$00000004          0x080001bc   Section        6  __rtentry4.o(.ARM.Collect$$rtentry$$00000004)
    .ARM.Collect$$rtentry$$00000009          0x080001c2   Section        0  __rtentry2.o(.ARM.Collect$$rtentry$$00000009)
    .ARM.Collect$$rtentry$$0000000A          0x080001c2   Section        4  __rtentry2.o(.ARM.Collect$$rtentry$$0000000A)
    .ARM.Collect$$rtentry$$0000000C          0x080001c6   Section        0  __rtentry2.o(.ARM.Collect$$rtentry$$0000000C)
    .ARM.Collect$$rtentry$$0000000D          0x080001c6   Section        8  __rtentry2.o(.ARM.Collect$$rtentry$$0000000D)
    .ARM.Collect$$rtexit$$00000000           0x080001ce   Section        2  rtexit.o(.ARM.Collect$$rtexit$$00000000)
    .ARM.Collect$$rtexit$$00000002           0x080001d0   Section        0  rtexit2.o(.ARM.Collect$$rtexit$$00000002)
    .ARM.Collect$$rtexit$$00000003           0x080001d0   Section        4  rtexit2.o(.ARM.Collect$$rtexit$$00000003)
    .ARM.Collect$$rtexit$$00000004           0x080001d4   Section        6  rtexit2.o(.ARM.Collect$$rtexit$$00000004)
    .emb_text                                0x080001dc   Section      150  port.o(.emb_text)
    .text                                    0x08000274   Section       64  startup_stm32f10x_hd.o(.text)
    .text                                    0x080002b4   Section        2  use_no_semi_2.o(.text)
    .text                                    0x080002b8   Section        0  noretval__2printf.o(.text)
    .text                                    0x080002d0   Section        0  __printf.o(.text)
    .text                                    0x08000338   Section        0  _printf_str.o(.text)
    .text                                    0x0800038c   Section        0  _printf_dec.o(.text)
    .text                                    0x08000404   Section        0  strlen.o(.text)
    .text                                    0x08000442   Section      138  rt_memcpy_v6.o(.text)
    .text                                    0x080004cc   Section       16  aeabi_memset.o(.text)
    .text                                    0x080004dc   Section       68  rt_memclr.o(.text)
    .text                                    0x08000520   Section       78  rt_memclr_w.o(.text)
    .text                                    0x0800056e   Section        0  heapauxi.o(.text)
    .text                                    0x08000574   Section        2  use_no_semi.o(.text)
    .text                                    0x08000576   Section        0  _rserrno.o(.text)
    .text                                    0x0800058c   Section        0  _printf_intcommon.o(.text)
    .text                                    0x08000640   Section        0  _printf_char_common.o(.text)
    _printf_input_char                       0x08000641   Thumb Code    10  _printf_char_common.o(.text)
    .text                                    0x08000670   Section        0  _printf_char.o(.text)
    .text                                    0x0800069c   Section        0  _printf_char_file.o(.text)
    .text                                    0x080006c0   Section      100  rt_memcpy_w.o(.text)
    .text                                    0x08000724   Section        8  rt_errno_addr_intlibspace.o(.text)
    .text                                    0x0800072c   Section        0  ferror.o(.text)
    .text                                    0x08000734   Section        8  libspace.o(.text)
    .text                                    0x0800073c   Section       74  sys_stackheap_outer.o(.text)
    .text                                    0x08000786   Section        0  exit.o(.text)
    i.BusFault_Handler                       0x08000798   Section        0  stm32f10x_it.o(i.BusFault_Handler)
    i.ClearScreen                            0x0800079a   Section        0  oled_basic.o(i.ClearScreen)
    i.ClearScreenBuffer                      0x080007a0   Section        0  oled_buffer.o(i.ClearScreenBuffer)
    i.DebugMon_Handler                       0x080007b0   Section        0  stm32f10x_it.o(i.DebugMon_Handler)
    i.DrawArc                                0x080007b4   Section        0  oled_draw.o(i.DrawArc)
    i.DrawBitmap                             0x08000860   Section        0  oled_draw.o(i.DrawBitmap)
    i.DrawChar                               0x08000a04   Section        0  oled_draw.o(i.DrawChar)
    i.DrawCircle                             0x08000b28   Section        0  oled_draw.o(i.DrawCircle)
    i.DrawCircleHelper                       0x08000bec   Section        0  oled_draw.o(i.DrawCircleHelper)
    i.DrawEllipse                            0x08000c98   Section        0  oled_draw.o(i.DrawEllipse)
    i.DrawFastHLine                          0x08000e70   Section        0  oled_draw.o(i.DrawFastHLine)
    i.DrawFastVLine                          0x08000ea6   Section        0  oled_draw.o(i.DrawFastVLine)
    i.DrawFillCircle                         0x08000edc   Section        0  oled_draw.o(i.DrawFillCircle)
    i.DrawFillCircleHelper                   0x08000f06   Section        0  oled_draw.o(i.DrawFillCircleHelper)
    i.DrawFillEllipse                        0x08000f9a   Section        0  oled_draw.o(i.DrawFillEllipse)
    i.DrawFillRect2                          0x080010de   Section        0  oled_draw.o(i.DrawFillRect2)
    i.DrawFillTriangle                       0x080010fe   Section        0  oled_draw.o(i.DrawFillTriangle)
    i.DrawLine                               0x08001252   Section        0  oled_draw.o(i.DrawLine)
    i.DrawNum                                0x080012f6   Section        0  oled_draw.o(i.DrawNum)
    i.DrawRect2                              0x080013ae   Section        0  oled_draw.o(i.DrawRect2)
    i.DrawRoundRect                          0x080013ec   Section        0  oled_draw.o(i.DrawRoundRect)
    i.DrawString                             0x0800147c   Section        0  oled_draw.o(i.DrawString)
    i.DrawTriangle                           0x080014ea   Section        0  oled_draw.o(i.DrawTriangle)
    i.DrawfillRoundRect                      0x0800151a   Section        0  oled_draw.o(i.DrawfillRoundRect)
    i.DriverInit                             0x08001566   Section        0  oled_config.o(i.DriverInit)
    i.FillByte                               0x08001574   Section        0  oled_basic.o(i.FillByte)
    i.FillRect                               0x080015a4   Section        0  oled_basic.o(i.FillRect)
    i.GPIO_Init                              0x08001660   Section        0  stm32f10x_gpio.o(i.GPIO_Init)
    i.GPIO_ReadInputDataBit                  0x080016fc   Section        0  stm32f10x_gpio.o(i.GPIO_ReadInputDataBit)
    i.GPIO_ResetBits                         0x0800170a   Section        0  stm32f10x_gpio.o(i.GPIO_ResetBits)
    i.GPIO_SetBits                           0x0800170e   Section        0  stm32f10x_gpio.o(i.GPIO_SetBits)
    i.GetDrawColor                           0x08001714   Section        0  oled_color.o(i.GetDrawColor)
    i.GetFillColor                           0x08001720   Section        0  oled_color.o(i.GetFillColor)
    i.GetFontSize                            0x0800172c   Section        0  oled_font.o(i.GetFontSize)
    i.GetRotateXY                            0x08001738   Section        0  oled_basic.o(i.GetRotateXY)
    i.GetTextBkMode                          0x0800176c   Section        0  oled_font.o(i.GetTextBkMode)
    i.GetXY                                  0x08001778   Section        0  oled_draw.o(i.GetXY)
    i.HardFault_Handler                      0x08001788   Section        0  stm32f10x_it.o(i.HardFault_Handler)
    i.InitGraph                              0x0800178a   Section        0  oled_basic.o(i.InitGraph)
    i.KEY_Init                               0x08001790   Section        0  key.o(i.KEY_Init)
    i.KEY_Scan                               0x080017cc   Section        0  key.o(i.KEY_Scan)
    i.LED_Init                               0x08001874   Section        0  led.o(i.LED_Init)
    i.LineTo                                 0x080018c4   Section        0  oled_draw.o(i.LineTo)
    i.MemManage_Handler                      0x080018e4   Section        0  stm32f10x_it.o(i.MemManage_Handler)
    i.MoveTo                                 0x080018e8   Section        0  oled_draw.o(i.MoveTo)
    i.NMI_Handler                            0x080018f4   Section        0  stm32f10x_it.o(i.NMI_Handler)
    i.NVIC_Init                              0x080018f8   Section        0  misc.o(i.NVIC_Init)
    i.NVIC_PriorityGroupConfig               0x0800195c   Section        0  misc.o(i.NVIC_PriorityGroupConfig)
    i.OLED_CLS                               0x08001970   Section        0  oled_driver.o(i.OLED_CLS)
    i.OLED_FILL                              0x080019a4   Section        0  oled_driver.o(i.OLED_FILL)
    i.OLED_Init                              0x080019dc   Section        0  oled_driver.o(i.OLED_Init)
    i.OLED_Polygon_task                      0x08001a90   Section        0  main.o(i.OLED_Polygon_task)
    i.OLED_TEST_task                         0x08001b24   Section        0  main.o(i.OLED_TEST_task)
    i.OLED_WATCH_task                        0x08001b6c   Section        0  main.o(i.OLED_WATCH_task)
    i.OLED_WR_Byte                           0x08001bb0   Section        0  oled_driver.o(i.OLED_WR_Byte)
    i.OledPrintf                             0x08001c24   Section        0  oled_debug.o(i.OledPrintf)
    i.OneShotCallback                        0x08001d40   Section        0  main.o(i.OneShotCallback)
    i.RCC_APB2PeriphClockCmd                 0x08001d58   Section        0  stm32f10x_rcc.o(i.RCC_APB2PeriphClockCmd)
    i.RCC_GetClocksFreq                      0x08001d70   Section        0  stm32f10x_rcc.o(i.RCC_GetClocksFreq)
    i.ReadByteBuffer                         0x08001e04   Section        0  oled_buffer.o(i.ReadByteBuffer)
    i.Rotate                                 0x08001e24   Section        0  oled_basic.o(i.Rotate)
    Rotate                                   0x08001e25   Thumb Code   202  oled_basic.o(i.Rotate)
    i.RoundClock                             0x08001eee   Section        0  test.o(i.RoundClock)
    i.SPI_Configuration                      0x08001ff8   Section        0  oled_driver.o(i.SPI_Configuration)
    i.SetAnggleDir                           0x08002054   Section        0  oled_basic.o(i.SetAnggleDir)
    i.SetAngle                               0x08002060   Section        0  oled_basic.o(i.SetAngle)
    i.SetDrawColor                           0x0800209c   Section        0  oled_color.o(i.SetDrawColor)
    i.SetFillcolor                           0x080020a8   Section        0  oled_color.o(i.SetFillcolor)
    i.SetFontSize                            0x080020b4   Section        0  oled_font.o(i.SetFontSize)
    i.SetPointBuffer                         0x080020c0   Section        0  oled_buffer.o(i.SetPointBuffer)
    i.SetRotateCenter                        0x08002110   Section        0  oled_basic.o(i.SetRotateCenter)
    i.SetRotateValue                         0x0800211c   Section        0  oled_basic.o(i.SetRotateValue)
    i.SetSysClockTo72                        0x08002138   Section        0  system_stm32f10x.o(i.SetSysClockTo72)
    SetSysClockTo72                          0x08002139   Thumb Code   160  system_stm32f10x.o(i.SetSysClockTo72)
    i.ShowPolygon                            0x080021e0   Section        0  test.o(i.ShowPolygon)
    i.ShowWatch                              0x080022fc   Section        0  test.o(i.ShowWatch)
    i.SysTick_CLKSourceConfig                0x08002332   Section        0  misc.o(i.SysTick_CLKSourceConfig)
    i.SysTick_Handler                        0x0800234a   Section        0  delay.o(i.SysTick_Handler)
    i.SystemInit                             0x08002360   Section        0  system_stm32f10x.o(i.SystemInit)
    i.TIM3_IRQHandler                        0x080023b0   Section        0  timer.o(i.TIM3_IRQHandler)
    i.TIM5_IRQHandler                        0x080023ec   Section        0  timer.o(i.TIM5_IRQHandler)
    i.TIM_ClearITPendingBit                  0x08002428   Section        0  stm32f10x_tim.o(i.TIM_ClearITPendingBit)
    i.TIM_GetITStatus                        0x0800242e   Section        0  stm32f10x_tim.o(i.TIM_GetITStatus)
    i.USART1_IRQHandler                      0x08002448   Section        0  usart.o(i.USART1_IRQHandler)
    i.USART_Cmd                              0x080024ac   Section        0  stm32f10x_usart.o(i.USART_Cmd)
    i.USART_GetITStatus                      0x080024c0   Section        0  stm32f10x_usart.o(i.USART_GetITStatus)
    i.USART_ITConfig                         0x080024fe   Section        0  stm32f10x_usart.o(i.USART_ITConfig)
    i.USART_Init                             0x08002530   Section        0  stm32f10x_usart.o(i.USART_Init)
    i.USART_ReceiveData                      0x080025dc   Section        0  stm32f10x_usart.o(i.USART_ReceiveData)
    i.UpdateScreen                           0x080025e4   Section        0  oled_basic.o(i.UpdateScreen)
    i.UpdateScreenBuffer                     0x080025e8   Section        0  oled_config.o(i.UpdateScreenBuffer)
    i.UpdateScreenDisplay                    0x080025f4   Section        0  oled_buffer.o(i.UpdateScreenDisplay)
    i.UsageFault_Handler                     0x080025f8   Section        0  stm32f10x_it.o(i.UsageFault_Handler)
    i.WriteByteBuffer                        0x080025fc   Section        0  oled_buffer.o(i.WriteByteBuffer)
    i.WriteCmd                               0x0800261c   Section        0  oled_driver.o(i.WriteCmd)
    i.WriteDat                               0x08002622   Section        0  oled_driver.o(i.WriteDat)
    i.__ARM_fpclassify                       0x08002628   Section        0  fpclassify.o(i.__ARM_fpclassify)
    i.__ieee754_rem_pio2                     0x08002650   Section        0  rred.o(i.__ieee754_rem_pio2)
    i.__kernel_cos                           0x080029d8   Section        0  cos_i.o(i.__kernel_cos)
    i.__kernel_poly                          0x08002ad4   Section        0  poly.o(i.__kernel_poly)
    i.__kernel_sin                           0x08002b80   Section        0  sin_i.o(i.__kernel_sin)
    i.__mathlib_dbl_infnan                   0x08002c6c   Section        0  dunder.o(i.__mathlib_dbl_infnan)
    i.__mathlib_dbl_infnan2                  0x08002c72   Section        0  dunder.o(i.__mathlib_dbl_infnan2)
    i.__mathlib_dbl_invalid                  0x08002c76   Section        0  dunder.o(i.__mathlib_dbl_invalid)
    i.__mathlib_dbl_underflow                0x08002c84   Section        0  dunder.o(i.__mathlib_dbl_underflow)
    i._sys_exit                              0x08002c94   Section        0  usart.o(i._sys_exit)
    i.atan                                   0x08002c98   Section        0  atan.o(i.atan)
    i.atan2                                  0x08002eb8   Section        0  atan2.o(i.atan2)
    i.cos                                    0x08003054   Section        0  cos.o(i.cos)
    i.delay_init                             0x080030f0   Section        0  delay.o(i.delay_init)
    i.delay_ms                               0x08003138   Section        0  delay.o(i.delay_ms)
    i.delay_us                               0x08003170   Section        0  delay.o(i.delay_us)
    i.demo                                   0x080031a4   Section        0  test.o(i.demo)
    i.fputc                                  0x0800365c   Section        0  usart.o(i.fputc)
    i.key_task                               0x08003674   Section        0  main.o(i.key_task)
    i.m_pow                                  0x080036a8   Section        0  oled_debug.o(i.m_pow)
    m_pow                                    0x080036a9   Thumb Code    14  oled_debug.o(i.m_pow)
    i.m_putchar                              0x080036b8   Section        0  oled_debug.o(i.m_putchar)
    i.m_putstr                               0x08003708   Section        0  oled_debug.o(i.m_putstr)
    i.main                                   0x0800371c   Section        0  main.o(i.main)
    i.mySqrt                                 0x08003770   Section        0  oled_basic.o(i.mySqrt)
    i.oled_pow                               0x08003794   Section        0  oled_basic.o(i.oled_pow)
    i.pgm_read_byte                          0x080037a4   Section        0  oled_basic.o(i.pgm_read_byte)
    i.prvAddCurrentTaskToDelayedList         0x080037a8   Section        0  tasks.o(i.prvAddCurrentTaskToDelayedList)
    prvAddCurrentTaskToDelayedList           0x080037a9   Thumb Code   102  tasks.o(i.prvAddCurrentTaskToDelayedList)
    i.prvAddNewTaskToReadyList               0x08003818   Section        0  tasks.o(i.prvAddNewTaskToReadyList)
    prvAddNewTaskToReadyList                 0x08003819   Thumb Code   192  tasks.o(i.prvAddNewTaskToReadyList)
    i.prvCheckForValidListAndQueue           0x080038e8   Section        0  timers.o(i.prvCheckForValidListAndQueue)
    prvCheckForValidListAndQueue             0x080038e9   Thumb Code    62  timers.o(i.prvCheckForValidListAndQueue)
    i.prvCheckTasksWaitingTermination        0x08003938   Section        0  tasks.o(i.prvCheckTasksWaitingTermination)
    prvCheckTasksWaitingTermination          0x08003939   Thumb Code    74  tasks.o(i.prvCheckTasksWaitingTermination)
    i.prvCopyDataFromQueue                   0x0800398c   Section        0  queue.o(i.prvCopyDataFromQueue)
    prvCopyDataFromQueue                     0x0800398d   Thumb Code    38  queue.o(i.prvCopyDataFromQueue)
    i.prvCopyDataToQueue                     0x080039b2   Section        0  queue.o(i.prvCopyDataToQueue)
    prvCopyDataToQueue                       0x080039b3   Thumb Code   108  queue.o(i.prvCopyDataToQueue)
    i.prvDeleteTCB                           0x08003a1e   Section        0  tasks.o(i.prvDeleteTCB)
    prvDeleteTCB                             0x08003a1f   Thumb Code    20  tasks.o(i.prvDeleteTCB)
    i.prvHeapInit                            0x08003a34   Section        0  heap_4.o(i.prvHeapInit)
    prvHeapInit                              0x08003a35   Thumb Code    66  heap_4.o(i.prvHeapInit)
    i.prvIdleTask                            0x08003a80   Section        0  tasks.o(i.prvIdleTask)
    prvIdleTask                              0x08003a81   Thumb Code    30  tasks.o(i.prvIdleTask)
    i.prvInitialiseNewTask                   0x08003aa8   Section        0  tasks.o(i.prvInitialiseNewTask)
    prvInitialiseNewTask                     0x08003aa9   Thumb Code   154  tasks.o(i.prvInitialiseNewTask)
    i.prvInsertBlockIntoFreeList             0x08003b68   Section        0  heap_4.o(i.prvInsertBlockIntoFreeList)
    prvInsertBlockIntoFreeList               0x08003b69   Thumb Code    72  heap_4.o(i.prvInsertBlockIntoFreeList)
    i.prvInsertTimerInActiveList             0x08003bb4   Section        0  timers.o(i.prvInsertTimerInActiveList)
    prvInsertTimerInActiveList               0x08003bb5   Thumb Code    52  timers.o(i.prvInsertTimerInActiveList)
    i.prvIsQueueEmpty                        0x08003bec   Section        0  queue.o(i.prvIsQueueEmpty)
    prvIsQueueEmpty                          0x08003bed   Thumb Code    26  queue.o(i.prvIsQueueEmpty)
    i.prvNotifyQueueSetContainer             0x08003c08   Section        0  queue.o(i.prvNotifyQueueSetContainer)
    prvNotifyQueueSetContainer               0x08003c09   Thumb Code   108  queue.o(i.prvNotifyQueueSetContainer)
    i.prvProcessExpiredTimer                 0x08003c98   Section        0  timers.o(i.prvProcessExpiredTimer)
    prvProcessExpiredTimer                   0x08003c99   Thumb Code    86  timers.o(i.prvProcessExpiredTimer)
    i.prvProcessReceivedCommands             0x08003cf8   Section        0  timers.o(i.prvProcessReceivedCommands)
    prvProcessReceivedCommands               0x08003cf9   Thumb Code   196  timers.o(i.prvProcessReceivedCommands)
    i.prvProcessTimerOrBlockTask             0x08003de8   Section        0  timers.o(i.prvProcessTimerOrBlockTask)
    prvProcessTimerOrBlockTask               0x08003de9   Thumb Code    98  timers.o(i.prvProcessTimerOrBlockTask)
    i.prvResetNextTaskUnblockTime            0x08003e54   Section        0  tasks.o(i.prvResetNextTaskUnblockTime)
    prvResetNextTaskUnblockTime              0x08003e55   Thumb Code    26  tasks.o(i.prvResetNextTaskUnblockTime)
    i.prvSampleTimeNow                       0x08003e74   Section        0  timers.o(i.prvSampleTimeNow)
    prvSampleTimeNow                         0x08003e75   Thumb Code    36  timers.o(i.prvSampleTimeNow)
    i.prvSwitchTimerLists                    0x08003e9c   Section        0  timers.o(i.prvSwitchTimerLists)
    prvSwitchTimerLists                      0x08003e9d   Thumb Code   100  timers.o(i.prvSwitchTimerLists)
    i.prvTaskExitError                       0x08003f08   Section        0  port.o(i.prvTaskExitError)
    prvTaskExitError                         0x08003f09   Thumb Code    34  port.o(i.prvTaskExitError)
    i.prvTaskIsTaskSuspended                 0x08003f6c   Section        0  tasks.o(i.prvTaskIsTaskSuspended)
    prvTaskIsTaskSuspended                   0x08003f6d   Thumb Code    44  tasks.o(i.prvTaskIsTaskSuspended)
    i.prvTimerTask                           0x08003fc0   Section        0  timers.o(i.prvTimerTask)
    prvTimerTask                             0x08003fc1   Thumb Code    34  timers.o(i.prvTimerTask)
    i.prvUnlockQueue                         0x08003fe8   Section        0  queue.o(i.prvUnlockQueue)
    prvUnlockQueue                           0x08003fe9   Thumb Code   120  queue.o(i.prvUnlockQueue)
    i.pvPortMalloc                           0x08004060   Section        0  heap_4.o(i.pvPortMalloc)
    i.pvTaskIncrementMutexHeldCount          0x08004174   Section        0  tasks.o(i.pvTaskIncrementMutexHeldCount)
    i.pxPortInitialiseStack                  0x0800418c   Section        0  port.o(i.pxPortInitialiseStack)
    i.sin                                    0x080041b0   Section        0  sin.o(i.sin)
    i.start_task                             0x08004250   Section        0  main.o(i.start_task)
    i.uart_init                              0x080042f4   Section        0  usart.o(i.uart_init)
    i.uxListRemove                           0x08004394   Section        0  list.o(i.uxListRemove)
    i.vListInitialise                        0x080043b8   Section        0  list.o(i.vListInitialise)
    i.vListInitialiseItem                    0x080043ce   Section        0  list.o(i.vListInitialiseItem)
    i.vListInsert                            0x080043d4   Section        0  list.o(i.vListInsert)
    i.vListInsertEnd                         0x08004404   Section        0  list.o(i.vListInsertEnd)
    i.vPortEnterCritical                     0x0800441c   Section        0  port.o(i.vPortEnterCritical)
    i.vPortExitCritical                      0x08004494   Section        0  port.o(i.vPortExitCritical)
    i.vPortFree                              0x080044f8   Section        0  heap_4.o(i.vPortFree)
    i.vPortSetupTimerInterrupt               0x08004594   Section        0  port.o(i.vPortSetupTimerInterrupt)
    i.vPortValidateInterruptPriority         0x080045b4   Section        0  port.o(i.vPortValidateInterruptPriority)
    i.vQueueAddToRegistry                    0x08004640   Section        0  queue.o(i.vQueueAddToRegistry)
    i.vQueueWaitForMessageRestricted         0x08004664   Section        0  queue.o(i.vQueueWaitForMessageRestricted)
    i.vTaskDelay                             0x080046a8   Section        0  tasks.o(i.vTaskDelay)
    i.vTaskDelete                            0x08004714   Section        0  tasks.o(i.vTaskDelete)
    i.vTaskMissedYield                       0x080047e0   Section        0  tasks.o(i.vTaskMissedYield)
    i.vTaskPlaceOnEventList                  0x080047ec   Section        0  tasks.o(i.vTaskPlaceOnEventList)
    i.vTaskPlaceOnEventListRestricted        0x08004840   Section        0  tasks.o(i.vTaskPlaceOnEventListRestricted)
    i.vTaskPriorityInherit                   0x0800489c   Section        0  tasks.o(i.vTaskPriorityInherit)
    i.vTaskResume                            0x08004920   Section        0  tasks.o(i.vTaskResume)
    i.vTaskSetTimeOutState                   0x080049c0   Section        0  tasks.o(i.vTaskSetTimeOutState)
    i.vTaskStartScheduler                    0x08004a08   Section        0  tasks.o(i.vTaskStartScheduler)
    i.vTaskSuspend                           0x08004a9c   Section        0  tasks.o(i.vTaskSuspend)
    i.vTaskSuspendAll                        0x08004b6c   Section        0  tasks.o(i.vTaskSuspendAll)
    i.vTaskSwitchContext                     0x08004b7c   Section        0  tasks.o(i.vTaskSwitchContext)
    i.xPortStartScheduler                    0x08004bf8   Section        0  port.o(i.xPortStartScheduler)
    i.xPortSysTickHandler                    0x08004c70   Section        0  port.o(i.xPortSysTickHandler)
    i.xQueueGenericCreate                    0x08004c9c   Section        0  queue.o(i.xQueueGenericCreate)
    i.xQueueGenericReceive                   0x08004d14   Section        0  queue.o(i.xQueueGenericReceive)
    i.xQueueGenericReset                     0x08004e98   Section        0  queue.o(i.xQueueGenericReset)
    i.xQueueGenericSend                      0x08004f40   Section        0  queue.o(i.xQueueGenericSend)
    i.xQueueGenericSendFromISR               0x080050c8   Section        0  queue.o(i.xQueueGenericSendFromISR)
    i.xTaskCheckForTimeOut                   0x080051a8   Section        0  tasks.o(i.xTaskCheckForTimeOut)
    i.xTaskCreate                            0x08005230   Section        0  tasks.o(i.xTaskCreate)
    i.xTaskGetSchedulerState                 0x08005288   Section        0  tasks.o(i.xTaskGetSchedulerState)
    i.xTaskGetTickCount                      0x080052a4   Section        0  tasks.o(i.xTaskGetTickCount)
    i.xTaskIncrementTick                     0x080052b0   Section        0  tasks.o(i.xTaskIncrementTick)
    i.xTaskPriorityDisinherit                0x08005398   Section        0  tasks.o(i.xTaskPriorityDisinherit)
    i.xTaskRemoveFromEventList               0x0800544c   Section        0  tasks.o(i.xTaskRemoveFromEventList)
    i.xTaskResumeAll                         0x080054e4   Section        0  tasks.o(i.xTaskResumeAll)
    i.xTimerCreate                           0x080055c8   Section        0  timers.o(i.xTimerCreate)
    i.xTimerCreateTimerTask                  0x0800563c   Section        0  timers.o(i.xTimerCreateTimerTask)
    i.xTimerGenericCommand                   0x080056b0   Section        0  timers.o(i.xTimerGenericCommand)
    x$fpl$d2f                                0x08005740   Section       98  d2f.o(x$fpl$d2f)
    x$fpl$dadd                               0x080057a4   Section      336  daddsub_clz.o(x$fpl$dadd)
    _dadd1                                   0x080057b5   Thumb Code     0  daddsub_clz.o(x$fpl$dadd)
    x$fpl$dcheck1                            0x080058f4   Section       16  dcheck1.o(x$fpl$dcheck1)
    x$fpl$dcmpinf                            0x08005904   Section       24  dcmpi.o(x$fpl$dcmpinf)
    x$fpl$ddiv                               0x0800591c   Section      688  ddiv.o(x$fpl$ddiv)
    ddiv_entry                               0x08005923   Thumb Code     0  ddiv.o(x$fpl$ddiv)
    x$fpl$deqf                               0x08005bcc   Section      120  deqf.o(x$fpl$deqf)
    x$fpl$dfix                               0x08005c44   Section       94  dfix.o(x$fpl$dfix)
    x$fpl$dflt                               0x08005ca2   Section       46  dflt_clz.o(x$fpl$dflt)
    x$fpl$dfltu                              0x08005cd0   Section       38  dflt_clz.o(x$fpl$dfltu)
    x$fpl$dmul                               0x08005cf8   Section      340  dmul.o(x$fpl$dmul)
    x$fpl$dnaninf                            0x08005e4c   Section      156  dnaninf.o(x$fpl$dnaninf)
    x$fpl$dretinf                            0x08005ee8   Section       12  dretinf.o(x$fpl$dretinf)
    x$fpl$drsb                               0x08005ef4   Section       22  daddsub_clz.o(x$fpl$drsb)
    x$fpl$dsub                               0x08005f0c   Section      468  daddsub_clz.o(x$fpl$dsub)
    _dsub1                                   0x08005f1d   Thumb Code     0  daddsub_clz.o(x$fpl$dsub)
    x$fpl$f2d                                0x080060e0   Section       86  f2d.o(x$fpl$f2d)
    x$fpl$fadd                               0x08006138   Section      196  faddsub_clz.o(x$fpl$fadd)
    _fadd1                                   0x08006147   Thumb Code     0  faddsub_clz.o(x$fpl$fadd)
    x$fpl$fcheck1                            0x080061fc   Section       12  fcheck1.o(x$fpl$fcheck1)
    x$fpl$fcmpinf                            0x08006208   Section       24  fcmpi.o(x$fpl$fcmpinf)
    x$fpl$fdiv                               0x08006220   Section      388  fdiv.o(x$fpl$fdiv)
    _fdiv1                                   0x08006221   Thumb Code     0  fdiv.o(x$fpl$fdiv)
    x$fpl$fflt                               0x080063a4   Section       48  fflt_clz.o(x$fpl$fflt)
    x$fpl$ffltu                              0x080063d4   Section       38  fflt_clz.o(x$fpl$ffltu)
    x$fpl$fleqf                              0x080063fc   Section      104  fleqf.o(x$fpl$fleqf)
    x$fpl$fnaninf                            0x08006464   Section      140  fnaninf.o(x$fpl$fnaninf)
    x$fpl$fretinf                            0x080064f0   Section       10  fretinf.o(x$fpl$fretinf)
    x$fpl$frleqf                             0x080064fa   Section       98  frleqf.o(x$fpl$frleqf)
    x$fpl$fsub                               0x0800655c   Section      234  faddsub_clz.o(x$fpl$fsub)
    _fsub1                                   0x0800656b   Thumb Code     0  faddsub_clz.o(x$fpl$fsub)
    x$fpl$retnan                             0x08006646   Section      100  retnan.o(x$fpl$retnan)
    x$fpl$scalbn                             0x080066aa   Section       92  scalbn.o(x$fpl$scalbn)
    x$fpl$scalbnf                            0x08006706   Section       76  scalbnf.o(x$fpl$scalbnf)
    x$fpl$trapveneer                         0x08006752   Section       48  trapv.o(x$fpl$trapveneer)
    .constdata                               0x08006782   Section       32  oled_bmp.o(.constdata)
    x$fpl$usenofp                            0x08006782   Section        0  usenofp.o(x$fpl$usenofp)
    .constdata                               0x080067a2   Section      128  oled_bmp.o(.constdata)
    .constdata                               0x08006822   Section      512  oled_bmp.o(.constdata)
    .constdata                               0x08006a22   Section     1280  oled_font.o(.constdata)
    .constdata                               0x08006f22   Section     1520  oled_font.o(.constdata)
    .constdata                               0x08007518   Section      152  atan.o(.constdata)
    atanhi                                   0x08007518   Data          32  atan.o(.constdata)
    atanlo                                   0x08007538   Data          32  atan.o(.constdata)
    aTodd                                    0x08007558   Data          40  atan.o(.constdata)
    aTeven                                   0x08007580   Data          48  atan.o(.constdata)
    .constdata                               0x080075b0   Section       48  cos_i.o(.constdata)
    C                                        0x080075b0   Data          48  cos_i.o(.constdata)
    .constdata                               0x080075e0   Section        8  qnan.o(.constdata)
    .constdata                               0x080075e8   Section      200  rred.o(.constdata)
    pio2s                                    0x080075e8   Data          48  rred.o(.constdata)
    twooverpi                                0x08007618   Data         152  rred.o(.constdata)
    .constdata                               0x080076b0   Section       40  sin_i.o(.constdata)
    S                                        0x080076b0   Data          40  sin_i.o(.constdata)
    .data                                    0x20000000   Section       32  main.o(.data)
    tmrms                                    0x20000002   Data           2  main.o(.data)
    .data                                    0x20000020   Section       20  system_stm32f10x.o(.data)
    .data                                    0x20000034   Section        1  key.o(.data)
    key_up                                   0x20000034   Data           1  key.o(.data)
    .data                                    0x20000036   Section        4  delay.o(.data)
    fac_us                                   0x20000036   Data           1  delay.o(.data)
    fac_ms                                   0x20000038   Data           2  delay.o(.data)
    .data                                    0x2000003a   Section        2  usart.o(.data)
    .data                                    0x2000003c   Section        4  usart.o(.data)
    .data                                    0x20000040   Section       20  stm32f10x_rcc.o(.data)
    ADCPrescTable                            0x20000040   Data           4  stm32f10x_rcc.o(.data)
    APBAHBPrescTable                         0x20000044   Data          16  stm32f10x_rcc.o(.data)
    .data                                    0x20000054   Section       60  tasks.o(.data)
    uxDeletedTasksWaitingCleanUp             0x20000058   Data           4  tasks.o(.data)
    uxCurrentNumberOfTasks                   0x2000005c   Data           4  tasks.o(.data)
    xTickCount                               0x20000060   Data           4  tasks.o(.data)
    uxTopReadyPriority                       0x20000064   Data           4  tasks.o(.data)
    xSchedulerRunning                        0x20000068   Data           4  tasks.o(.data)
    uxPendedTicks                            0x2000006c   Data           4  tasks.o(.data)
    xYieldPending                            0x20000070   Data           4  tasks.o(.data)
    xNumOfOverflows                          0x20000074   Data           4  tasks.o(.data)
    uxTaskNumber                             0x20000078   Data           4  tasks.o(.data)
    xNextTaskUnblockTime                     0x2000007c   Data           4  tasks.o(.data)
    xIdleTaskHandle                          0x20000080   Data           4  tasks.o(.data)
    uxSchedulerSuspended                     0x20000084   Data           4  tasks.o(.data)
    pxDelayedTaskList                        0x20000088   Data           4  tasks.o(.data)
    pxOverflowDelayedTaskList                0x2000008c   Data           4  tasks.o(.data)
    .data                                    0x20000090   Section       20  timers.o(.data)
    xTimerQueue                              0x20000090   Data           4  timers.o(.data)
    xTimerTaskHandle                         0x20000094   Data           4  timers.o(.data)
    xLastTime                                0x20000098   Data           4  timers.o(.data)
    pxCurrentTimerList                       0x2000009c   Data           4  timers.o(.data)
    pxOverflowTimerList                      0x200000a0   Data           4  timers.o(.data)
    .data                                    0x200000a4   Section       24  heap_4.o(.data)
    pxEnd                                    0x200000a4   Data           4  heap_4.o(.data)
    xFreeBytesRemaining                      0x200000a8   Data           4  heap_4.o(.data)
    xMinimumEverFreeBytesRemaining           0x200000ac   Data           4  heap_4.o(.data)
    xBlockAllocatedBit                       0x200000b0   Data           4  heap_4.o(.data)
    xStart                                   0x200000b4   Data           8  heap_4.o(.data)
    .data                                    0x200000bc   Section       12  port.o(.data)
    ucMaxSysCallPriority                     0x200000bc   Data           1  port.o(.data)
    uxCriticalNesting                        0x200000c0   Data           4  port.o(.data)
    ulMaxPRIGROUPValue                       0x200000c4   Data           4  port.o(.data)
    .data                                    0x200000c8   Section       24  oled_basic.o(.data)
    _BitTableS                               0x200000c8   Data           8  oled_basic.o(.data)
    .data                                    0x200000e0   Section        1  oled_buffer.o(.data)
    _SelectedBuffer                          0x200000e0   Data           1  oled_buffer.o(.data)
    .data                                    0x200000e1   Section        2  oled_color.o(.data)
    _Draw                                    0x200000e1   Data           1  oled_color.o(.data)
    _fill                                    0x200000e2   Data           1  oled_color.o(.data)
    .data                                    0x200000e4   Section       12  oled_debug.o(.data)
    wrap                                     0x200000e4   Data           1  oled_debug.o(.data)
    _cursor_x                                0x200000e8   Data           4  oled_debug.o(.data)
    _cursor_y                                0x200000ec   Data           4  oled_debug.o(.data)
    .data                                    0x200000f0   Section        8  oled_draw.o(.data)
    _pointx                                  0x200000f0   Data           4  oled_draw.o(.data)
    _pointy                                  0x200000f4   Data           4  oled_draw.o(.data)
    .data                                    0x200000f8   Section        2  oled_font.o(.data)
    _TextBk                                  0x200000f8   Data           1  oled_font.o(.data)
    _FontSize                                0x200000f9   Data           1  oled_font.o(.data)
    .bss                                     0x200000fc   Section      200  usart.o(.bss)
    .bss                                     0x200001c4   Section       64  queue.o(.bss)
    .bss                                     0x20000204   Section      740  tasks.o(.bss)
    pxReadyTasksLists                        0x20000204   Data         640  tasks.o(.bss)
    xDelayedTaskList1                        0x20000484   Data          20  tasks.o(.bss)
    xDelayedTaskList2                        0x20000498   Data          20  tasks.o(.bss)
    xPendingReadyList                        0x200004ac   Data          20  tasks.o(.bss)
    xTasksWaitingTermination                 0x200004c0   Data          20  tasks.o(.bss)
    xSuspendedTaskList                       0x200004d4   Data          20  tasks.o(.bss)
    .bss                                     0x200004e8   Section       40  timers.o(.bss)
    xActiveTimerList1                        0x200004e8   Data          20  timers.o(.bss)
    xActiveTimerList2                        0x200004fc   Data          20  timers.o(.bss)
    .bss                                     0x20000510   Section    20480  heap_4.o(.bss)
    ucHeap                                   0x20000510   Data       20480  heap_4.o(.bss)
    .bss                                     0x20005510   Section     2048  oled_buffer.o(.bss)
    .bss                                     0x20005d10   Section       96  libspace.o(.bss)
    HEAP                                     0x20005d70   Section      512  startup_stm32f10x_hd.o(HEAP)
    Heap_Mem                                 0x20005d70   Data         512  startup_stm32f10x_hd.o(HEAP)
    STACK                                    0x20005f70   Section     1024  startup_stm32f10x_hd.o(STACK)
    Stack_Mem                                0x20005f70   Data        1024  startup_stm32f10x_hd.o(STACK)
    __initial_sp                             0x20006370   Data           0  startup_stm32f10x_hd.o(STACK)

    Global Symbols

    Symbol Name                              Value     Ov Type        Size  Object(Section)

    BuildAttributes$$THM_ISAv4$P$D$K$B$S$PE$A:L22UL41UL21$X:L11$S22US41US21$IEEE1$IW$USESV6$~STKCKD$USESV7$~SHL$OTIME$ROPI$IEEEX$EBA8$UX$STANDARDLIB$REQ8$PRES8$EABIv2 0x00000000   Number         0  anon$$obj.o ABSOLUTE
    __ARM_use_no_argv                        0x00000000   Number         0  main.o ABSOLUTE
    __ARM_exceptions_init                     - Undefined Weak Reference
    __alloca_initialize                       - Undefined Weak Reference
    __arm_fini_                               - Undefined Weak Reference
    __arm_preinit_                            - Undefined Weak Reference
    __cpp_initialize__aeabi_                  - Undefined Weak Reference
    __cxa_finalize                            - Undefined Weak Reference
    __rt_locale                               - Undefined Weak Reference
    __sigvec_lookup                           - Undefined Weak Reference
    _atexit_init                              - Undefined Weak Reference
    _call_atexit_fns                          - Undefined Weak Reference
    _clock_init                               - Undefined Weak Reference
    _fp_trap_init                             - Undefined Weak Reference
    _fp_trap_shutdown                         - Undefined Weak Reference
    _get_lc_collate                           - Undefined Weak Reference
    _get_lc_ctype                             - Undefined Weak Reference
    _get_lc_monetary                          - Undefined Weak Reference
    _get_lc_numeric                           - Undefined Weak Reference
    _get_lc_time                              - Undefined Weak Reference
    _getenv_init                              - Undefined Weak Reference
    _handle_redirection                       - Undefined Weak Reference
    _init_alloc                               - Undefined Weak Reference
    _init_user_alloc                          - Undefined Weak Reference
    _initio                                   - Undefined Weak Reference
    _mutex_acquire                            - Undefined Weak Reference
    _mutex_release                            - Undefined Weak Reference
    _printf_mbtowc                            - Undefined Weak Reference
    _printf_post_padding                      - Undefined Weak Reference
    _printf_pre_padding                       - Undefined Weak Reference
    _printf_truncate_signed                   - Undefined Weak Reference
    _printf_truncate_unsigned                 - Undefined Weak Reference
    _signal_finish                            - Undefined Weak Reference
    _signal_init                              - Undefined Weak Reference
    _terminate_alloc                          - Undefined Weak Reference
    _terminate_user_alloc                     - Undefined Weak Reference
    _terminateio                              - Undefined Weak Reference
    __Vectors_Size                           0x00000130   Number         0  startup_stm32f10x_hd.o ABSOLUTE
    __Vectors                                0x08000000   Data           4  startup_stm32f10x_hd.o(RESET)
    __Vectors_End                            0x08000130   Data           0  startup_stm32f10x_hd.o(RESET)
    __main                                   0x08000131   Thumb Code     8  __main.o(!!!main)
    __scatterload                            0x08000139   Thumb Code     0  __scatter.o(!!!scatter)
    __scatterload_rt2                        0x08000139   Thumb Code    44  __scatter.o(!!!scatter)
    __scatterload_rt2_thumb_only             0x08000139   Thumb Code     0  __scatter.o(!!!scatter)
    __scatterload_null                       0x08000147   Thumb Code     0  __scatter.o(!!!scatter)
    __scatterload_copy                       0x0800016d   Thumb Code    26  __scatter_copy.o(!!handler_copy)
    __scatterload_zeroinit                   0x08000189   Thumb Code    28  __scatter_zi.o(!!handler_zi)
    _printf_d                                0x080001a5   Thumb Code     0  _printf_d.o(.ARM.Collect$$_printf_percent$$00000009)
    _printf_percent                          0x080001a5   Thumb Code     0  _printf_percent.o(.ARM.Collect$$_printf_percent$$00000000)
    _printf_s                                0x080001ab   Thumb Code     0  _printf_s.o(.ARM.Collect$$_printf_percent$$00000014)
    _printf_percent_end                      0x080001b1   Thumb Code     0  _printf_percent_end.o(.ARM.Collect$$_printf_percent$$00000017)
    __rt_lib_init                            0x080001b5   Thumb Code     0  libinit.o(.ARM.Collect$$libinit$$00000000)
    __rt_lib_init_alloca_1                   0x080001b7   Thumb Code     0  libinit2.o(.ARM.Collect$$libinit$$0000002E)
    __rt_lib_init_argv_1                     0x080001b7   Thumb Code     0  libinit2.o(.ARM.Collect$$libinit$$0000002C)
    __rt_lib_init_atexit_1                   0x080001b7   Thumb Code     0  libinit2.o(.ARM.Collect$$libinit$$0000001B)
    __rt_lib_init_clock_1                    0x080001b7   Thumb Code     0  libinit2.o(.ARM.Collect$$libinit$$00000021)
    __rt_lib_init_cpp_1                      0x080001b7   Thumb Code     0  libinit2.o(.ARM.Collect$$libinit$$00000032)
    __rt_lib_init_exceptions_1               0x080001b7   Thumb Code     0  libinit2.o(.ARM.Collect$$libinit$$00000030)
    __rt_lib_init_fp_1                       0x080001b7   Thumb Code     0  libinit2.o(.ARM.Collect$$libinit$$00000002)
    __rt_lib_init_fp_trap_1                  0x080001b7   Thumb Code     0  libinit2.o(.ARM.Collect$$libinit$$0000001F)
    __rt_lib_init_getenv_1                   0x080001b7   Thumb Code     0  libinit2.o(.ARM.Collect$$libinit$$00000023)
    __rt_lib_init_heap_1                     0x080001b7   Thumb Code     0  libinit2.o(.ARM.Collect$$libinit$$0000000A)
    __rt_lib_init_lc_collate_1               0x080001b7   Thumb Code     0  libinit2.o(.ARM.Collect$$libinit$$00000011)
    __rt_lib_init_lc_ctype_1                 0x080001b7   Thumb Code     0  libinit2.o(.ARM.Collect$$libinit$$00000013)
    __rt_lib_init_lc_monetary_1              0x080001b7   Thumb Code     0  libinit2.o(.ARM.Collect$$libinit$$00000015)
    __rt_lib_init_lc_numeric_1               0x080001b7   Thumb Code     0  libinit2.o(.ARM.Collect$$libinit$$00000017)
    __rt_lib_init_lc_time_1                  0x080001b7   Thumb Code     0  libinit2.o(.ARM.Collect$$libinit$$00000019)
    __rt_lib_init_preinit_1                  0x080001b7   Thumb Code     0  libinit2.o(.ARM.Collect$$libinit$$00000004)
    __rt_lib_init_rand_1                     0x080001b7   Thumb Code     0  libinit2.o(.ARM.Collect$$libinit$$0000000E)
    __rt_lib_init_return                     0x080001b7   Thumb Code     0  libinit2.o(.ARM.Collect$$libinit$$00000033)
    __rt_lib_init_signal_1                   0x080001b7   Thumb Code     0  libinit2.o(.ARM.Collect$$libinit$$0000001D)
    __rt_lib_init_stdio_1                    0x080001b7   Thumb Code     0  libinit2.o(.ARM.Collect$$libinit$$00000025)
    __rt_lib_init_user_alloc_1               0x080001b7   Thumb Code     0  libinit2.o(.ARM.Collect$$libinit$$0000000C)
    __rt_lib_shutdown                        0x080001b9   Thumb Code     0  libshutdown.o(.ARM.Collect$$libshutdown$$00000000)
    __rt_lib_shutdown_cpp_1                  0x080001bb   Thumb Code     0  libshutdown2.o(.ARM.Collect$$libshutdown$$00000004)
    __rt_lib_shutdown_fini_1                 0x080001bb   Thumb Code     0  libshutdown2.o(.ARM.Collect$$libshutdown$$00000002)
    __rt_lib_shutdown_fp_trap_1              0x080001bb   Thumb Code     0  libshutdown2.o(.ARM.Collect$$libshutdown$$00000009)
    __rt_lib_shutdown_heap_1                 0x080001bb   Thumb Code     0  libshutdown2.o(.ARM.Collect$$libshutdown$$00000011)
    __rt_lib_shutdown_return                 0x080001bb   Thumb Code     0  libshutdown2.o(.ARM.Collect$$libshutdown$$00000012)
    __rt_lib_shutdown_signal_1               0x080001bb   Thumb Code     0  libshutdown2.o(.ARM.Collect$$libshutdown$$0000000C)
    __rt_lib_shutdown_stdio_1                0x080001bb   Thumb Code     0  libshutdown2.o(.ARM.Collect$$libshutdown$$00000006)
    __rt_lib_shutdown_user_alloc_1           0x080001bb   Thumb Code     0  libshutdown2.o(.ARM.Collect$$libshutdown$$0000000E)
    __rt_entry                               0x080001bd   Thumb Code     0  __rtentry.o(.ARM.Collect$$rtentry$$00000000)
    __rt_entry_presh_1                       0x080001bd   Thumb Code     0  __rtentry2.o(.ARM.Collect$$rtentry$$00000002)
    __rt_entry_sh                            0x080001bd   Thumb Code     0  __rtentry4.o(.ARM.Collect$$rtentry$$00000004)
    __rt_entry_li                            0x080001c3   Thumb Code     0  __rtentry2.o(.ARM.Collect$$rtentry$$0000000A)
    __rt_entry_postsh_1                      0x080001c3   Thumb Code     0  __rtentry2.o(.ARM.Collect$$rtentry$$00000009)
    __rt_entry_main                          0x080001c7   Thumb Code     0  __rtentry2.o(.ARM.Collect$$rtentry$$0000000D)
    __rt_entry_postli_1                      0x080001c7   Thumb Code     0  __rtentry2.o(.ARM.Collect$$rtentry$$0000000C)
    __rt_exit                                0x080001cf   Thumb Code     0  rtexit.o(.ARM.Collect$$rtexit$$00000000)
    __rt_exit_ls                             0x080001d1   Thumb Code     0  rtexit2.o(.ARM.Collect$$rtexit$$00000003)
    __rt_exit_prels_1                        0x080001d1   Thumb Code     0  rtexit2.o(.ARM.Collect$$rtexit$$00000002)
    __rt_exit_exit                           0x080001d5   Thumb Code     0  rtexit2.o(.ARM.Collect$$rtexit$$00000004)
    SVC_Handler                              0x080001dd   Thumb Code    32  port.o(.emb_text)
    __asm___6_port_c_39a90d8d__prvStartFirstTask 0x08000201   Thumb Code    28  port.o(.emb_text)
    PendSV_Handler                           0x08000221   Thumb Code    72  port.o(.emb_text)
    vPortGetIPSR                             0x0800026d   Thumb Code     6  port.o(.emb_text)
    Reset_Handler                            0x08000275   Thumb Code     8  startup_stm32f10x_hd.o(.text)
    ADC1_2_IRQHandler                        0x0800028f   Thumb Code     0  startup_stm32f10x_hd.o(.text)
    ADC3_IRQHandler                          0x0800028f   Thumb Code     0  startup_stm32f10x_hd.o(.text)
    CAN1_RX1_IRQHandler                      0x0800028f   Thumb Code     0  startup_stm32f10x_hd.o(.text)
    CAN1_SCE_IRQHandler                      0x0800028f   Thumb Code     0  startup_stm32f10x_hd.o(.text)
    DMA1_Channel1_IRQHandler                 0x0800028f   Thumb Code     0  startup_stm32f10x_hd.o(.text)
    DMA1_Channel2_IRQHandler                 0x0800028f   Thumb Code     0  startup_stm32f10x_hd.o(.text)
    DMA1_Channel3_IRQHandler                 0x0800028f   Thumb Code     0  startup_stm32f10x_hd.o(.text)
    DMA1_Channel4_IRQHandler                 0x0800028f   Thumb Code     0  startup_stm32f10x_hd.o(.text)
    DMA1_Channel5_IRQHandler                 0x0800028f   Thumb Code     0  startup_stm32f10x_hd.o(.text)
    DMA1_Channel6_IRQHandler                 0x0800028f   Thumb Code     0  startup_stm32f10x_hd.o(.text)
    DMA1_Channel7_IRQHandler                 0x0800028f   Thumb Code     0  startup_stm32f10x_hd.o(.text)
    DMA2_Channel1_IRQHandler                 0x0800028f   Thumb Code     0  startup_stm32f10x_hd.o(.text)
    DMA2_Channel2_IRQHandler                 0x0800028f   Thumb Code     0  startup_stm32f10x_hd.o(.text)
    DMA2_Channel3_IRQHandler                 0x0800028f   Thumb Code     0  startup_stm32f10x_hd.o(.text)
    DMA2_Channel4_5_IRQHandler               0x0800028f   Thumb Code     0  startup_stm32f10x_hd.o(.text)
    EXTI0_IRQHandler                         0x0800028f   Thumb Code     0  startup_stm32f10x_hd.o(.text)
    EXTI15_10_IRQHandler                     0x0800028f   Thumb Code     0  startup_stm32f10x_hd.o(.text)
    EXTI1_IRQHandler                         0x0800028f   Thumb Code     0  startup_stm32f10x_hd.o(.text)
    EXTI2_IRQHandler                         0x0800028f   Thumb Code     0  startup_stm32f10x_hd.o(.text)
    EXTI3_IRQHandler                         0x0800028f   Thumb Code     0  startup_stm32f10x_hd.o(.text)
    EXTI4_IRQHandler                         0x0800028f   Thumb Code     0  startup_stm32f10x_hd.o(.text)
    EXTI9_5_IRQHandler                       0x0800028f   Thumb Code     0  startup_stm32f10x_hd.o(.text)
    FLASH_IRQHandler                         0x0800028f   Thumb Code     0  startup_stm32f10x_hd.o(.text)
    FSMC_IRQHandler                          0x0800028f   Thumb Code     0  startup_stm32f10x_hd.o(.text)
    I2C1_ER_IRQHandler                       0x0800028f   Thumb Code     0  startup_stm32f10x_hd.o(.text)
    I2C1_EV_IRQHandler                       0x0800028f   Thumb Code     0  startup_stm32f10x_hd.o(.text)
    I2C2_ER_IRQHandler                       0x0800028f   Thumb Code     0  startup_stm32f10x_hd.o(.text)
    I2C2_EV_IRQHandler                       0x0800028f   Thumb Code     0  startup_stm32f10x_hd.o(.text)
    PVD_IRQHandler                           0x0800028f   Thumb Code     0  startup_stm32f10x_hd.o(.text)
    RCC_IRQHandler                           0x0800028f   Thumb Code     0  startup_stm32f10x_hd.o(.text)
    RTCAlarm_IRQHandler                      0x0800028f   Thumb Code     0  startup_stm32f10x_hd.o(.text)
    RTC_IRQHandler                           0x0800028f   Thumb Code     0  startup_stm32f10x_hd.o(.text)
    SDIO_IRQHandler                          0x0800028f   Thumb Code     0  startup_stm32f10x_hd.o(.text)
    SPI1_IRQHandler                          0x0800028f   Thumb Code     0  startup_stm32f10x_hd.o(.text)
    SPI2_IRQHandler                          0x0800028f   Thumb Code     0  startup_stm32f10x_hd.o(.text)
    SPI3_IRQHandler                          0x0800028f   Thumb Code     0  startup_stm32f10x_hd.o(.text)
    TAMPER_IRQHandler                        0x0800028f   Thumb Code     0  startup_stm32f10x_hd.o(.text)
    TIM1_BRK_IRQHandler                      0x0800028f   Thumb Code     0  startup_stm32f10x_hd.o(.text)
    TIM1_CC_IRQHandler                       0x0800028f   Thumb Code     0  startup_stm32f10x_hd.o(.text)
    TIM1_TRG_COM_IRQHandler                  0x0800028f   Thumb Code     0  startup_stm32f10x_hd.o(.text)
    TIM1_UP_IRQHandler                       0x0800028f   Thumb Code     0  startup_stm32f10x_hd.o(.text)
    TIM2_IRQHandler                          0x0800028f   Thumb Code     0  startup_stm32f10x_hd.o(.text)
    TIM4_IRQHandler                          0x0800028f   Thumb Code     0  startup_stm32f10x_hd.o(.text)
    TIM6_IRQHandler                          0x0800028f   Thumb Code     0  startup_stm32f10x_hd.o(.text)
    TIM7_IRQHandler                          0x0800028f   Thumb Code     0  startup_stm32f10x_hd.o(.text)
    TIM8_BRK_IRQHandler                      0x0800028f   Thumb Code     0  startup_stm32f10x_hd.o(.text)
    TIM8_CC_IRQHandler                       0x0800028f   Thumb Code     0  startup_stm32f10x_hd.o(.text)
    TIM8_TRG_COM_IRQHandler                  0x0800028f   Thumb Code     0  startup_stm32f10x_hd.o(.text)
    TIM8_UP_IRQHandler                       0x0800028f   Thumb Code     0  startup_stm32f10x_hd.o(.text)
    UART4_IRQHandler                         0x0800028f   Thumb Code     0  startup_stm32f10x_hd.o(.text)
    UART5_IRQHandler                         0x0800028f   Thumb Code     0  startup_stm32f10x_hd.o(.text)
    USART2_IRQHandler                        0x0800028f   Thumb Code     0  startup_stm32f10x_hd.o(.text)
    USART3_IRQHandler                        0x0800028f   Thumb Code     0  startup_stm32f10x_hd.o(.text)
    USBWakeUp_IRQHandler                     0x0800028f   Thumb Code     0  startup_stm32f10x_hd.o(.text)
    USB_HP_CAN1_TX_IRQHandler                0x0800028f   Thumb Code     0  startup_stm32f10x_hd.o(.text)
    USB_LP_CAN1_RX0_IRQHandler               0x0800028f   Thumb Code     0  startup_stm32f10x_hd.o(.text)
    WWDG_IRQHandler                          0x0800028f   Thumb Code     0  startup_stm32f10x_hd.o(.text)
    __user_initial_stackheap                 0x08000291   Thumb Code     0  startup_stm32f10x_hd.o(.text)
    __use_no_semihosting                     0x080002b5   Thumb Code     2  use_no_semi_2.o(.text)
    __2printf                                0x080002b9   Thumb Code    20  noretval__2printf.o(.text)
    __printf                                 0x080002d1   Thumb Code   104  __printf.o(.text)
    _printf_str                              0x08000339   Thumb Code    82  _printf_str.o(.text)
    _printf_int_dec                          0x0800038d   Thumb Code   104  _printf_dec.o(.text)
    strlen                                   0x08000405   Thumb Code    62  strlen.o(.text)
    __aeabi_memcpy                           0x08000443   Thumb Code     0  rt_memcpy_v6.o(.text)
    __rt_memcpy                              0x08000443   Thumb Code   138  rt_memcpy_v6.o(.text)
    _memcpy_lastbytes                        0x080004a9   Thumb Code     0  rt_memcpy_v6.o(.text)
    __aeabi_memset                           0x080004cd   Thumb Code    16  aeabi_memset.o(.text)
    __aeabi_memclr                           0x080004dd   Thumb Code     0  rt_memclr.o(.text)
    __rt_memclr                              0x080004dd   Thumb Code    68  rt_memclr.o(.text)
    _memset                                  0x080004e1   Thumb Code     0  rt_memclr.o(.text)
    __aeabi_memclr4                          0x08000521   Thumb Code     0  rt_memclr_w.o(.text)
    __aeabi_memclr8                          0x08000521   Thumb Code     0  rt_memclr_w.o(.text)
    __rt_memclr_w                            0x08000521   Thumb Code    78  rt_memclr_w.o(.text)
    _memset_w                                0x08000525   Thumb Code     0  rt_memclr_w.o(.text)
    __use_two_region_memory                  0x0800056f   Thumb Code     2  heapauxi.o(.text)
    __rt_heap_escrow$2region                 0x08000571   Thumb Code     2  heapauxi.o(.text)
    __rt_heap_expand$2region                 0x08000573   Thumb Code     2  heapauxi.o(.text)
    __I$use$semihosting                      0x08000575   Thumb Code     0  use_no_semi.o(.text)
    __use_no_semihosting_swi                 0x08000575   Thumb Code     2  use_no_semi.o(.text)
    __read_errno                             0x08000577   Thumb Code    10  _rserrno.o(.text)
    __set_errno                              0x08000581   Thumb Code    12  _rserrno.o(.text)
    _printf_int_common                       0x0800058d   Thumb Code   178  _printf_intcommon.o(.text)
    _printf_char_common                      0x0800064b   Thumb Code    32  _printf_char_common.o(.text)
    _printf_cs_common                        0x08000671   Thumb Code    20  _printf_char.o(.text)
    _printf_char                             0x08000685   Thumb Code    16  _printf_char.o(.text)
    _printf_string                           0x08000695   Thumb Code     8  _printf_char.o(.text)
    _printf_char_file                        0x0800069d   Thumb Code    32  _printf_char_file.o(.text)
    __aeabi_memcpy4                          0x080006c1   Thumb Code     0  rt_memcpy_w.o(.text)
    __aeabi_memcpy8                          0x080006c1   Thumb Code     0  rt_memcpy_w.o(.text)
    __rt_memcpy_w                            0x080006c1   Thumb Code   100  rt_memcpy_w.o(.text)
    _memcpy_lastbytes_aligned                0x08000709   Thumb Code     0  rt_memcpy_w.o(.text)
    __aeabi_errno_addr                       0x08000725   Thumb Code     8  rt_errno_addr_intlibspace.o(.text)
    __errno$intlibspace                      0x08000725   Thumb Code     0  rt_errno_addr_intlibspace.o(.text)
    __rt_errno_addr$intlibspace              0x08000725   Thumb Code     0  rt_errno_addr_intlibspace.o(.text)
    ferror                                   0x0800072d   Thumb Code     8  ferror.o(.text)
    __user_libspace                          0x08000735   Thumb Code     8  libspace.o(.text)
    __user_perproc_libspace                  0x08000735   Thumb Code     0  libspace.o(.text)
    __user_perthread_libspace                0x08000735   Thumb Code     0  libspace.o(.text)
    __user_setup_stackheap                   0x0800073d   Thumb Code    74  sys_stackheap_outer.o(.text)
    exit                                     0x08000787   Thumb Code    18  exit.o(.text)
    BusFault_Handler                         0x08000799   Thumb Code     2  stm32f10x_it.o(i.BusFault_Handler)
    ClearScreen                              0x0800079b   Thumb Code     6  oled_basic.o(i.ClearScreen)
    ClearScreenBuffer                        0x080007a1   Thumb Code    12  oled_buffer.o(i.ClearScreenBuffer)
    DebugMon_Handler                         0x080007b1   Thumb Code     2  stm32f10x_it.o(i.DebugMon_Handler)
    DrawArc                                  0x080007b5   Thumb Code   166  oled_draw.o(i.DrawArc)
    DrawBitmap                               0x08000861   Thumb Code   420  oled_draw.o(i.DrawBitmap)
    DrawChar                                 0x08000a05   Thumb Code   282  oled_draw.o(i.DrawChar)
    DrawCircle                               0x08000b29   Thumb Code   196  oled_draw.o(i.DrawCircle)
    DrawCircleHelper                         0x08000bed   Thumb Code   170  oled_draw.o(i.DrawCircleHelper)
    DrawEllipse                              0x08000c99   Thumb Code   466  oled_draw.o(i.DrawEllipse)
    DrawFastHLine                            0x08000e71   Thumb Code    54  oled_draw.o(i.DrawFastHLine)
    DrawFastVLine                            0x08000ea7   Thumb Code    54  oled_draw.o(i.DrawFastVLine)
    DrawFillCircle                           0x08000edd   Thumb Code    42  oled_draw.o(i.DrawFillCircle)
    DrawFillCircleHelper                     0x08000f07   Thumb Code   148  oled_draw.o(i.DrawFillCircleHelper)
    DrawFillEllipse                          0x08000f9b   Thumb Code   324  oled_draw.o(i.DrawFillEllipse)
    DrawFillRect2                            0x080010df   Thumb Code    32  oled_draw.o(i.DrawFillRect2)
    DrawFillTriangle                         0x080010ff   Thumb Code   340  oled_draw.o(i.DrawFillTriangle)
    DrawLine                                 0x08001253   Thumb Code   164  oled_draw.o(i.DrawLine)
    DrawNum                                  0x080012f7   Thumb Code   184  oled_draw.o(i.DrawNum)
    DrawRect2                                0x080013af   Thumb Code    62  oled_draw.o(i.DrawRect2)
    DrawRoundRect                            0x080013ed   Thumb Code   144  oled_draw.o(i.DrawRoundRect)
    DrawString                               0x0800147d   Thumb Code   110  oled_draw.o(i.DrawString)
    DrawTriangle                             0x080014eb   Thumb Code    48  oled_draw.o(i.DrawTriangle)
    DrawfillRoundRect                        0x0800151b   Thumb Code    76  oled_draw.o(i.DrawfillRoundRect)
    DriverInit                               0x08001567   Thumb Code    14  oled_config.o(i.DriverInit)
    FillByte                                 0x08001575   Thumb Code    48  oled_basic.o(i.FillByte)
    FillRect                                 0x080015a5   Thumb Code   184  oled_basic.o(i.FillRect)
    GPIO_Init                                0x08001661   Thumb Code   156  stm32f10x_gpio.o(i.GPIO_Init)
    GPIO_ReadInputDataBit                    0x080016fd   Thumb Code    14  stm32f10x_gpio.o(i.GPIO_ReadInputDataBit)
    GPIO_ResetBits                           0x0800170b   Thumb Code     4  stm32f10x_gpio.o(i.GPIO_ResetBits)
    GPIO_SetBits                             0x0800170f   Thumb Code     4  stm32f10x_gpio.o(i.GPIO_SetBits)
    GetDrawColor                             0x08001715   Thumb Code     6  oled_color.o(i.GetDrawColor)
    GetFillColor                             0x08001721   Thumb Code     6  oled_color.o(i.GetFillColor)
    GetFontSize                              0x0800172d   Thumb Code     6  oled_font.o(i.GetFontSize)
    GetRotateXY                              0x08001739   Thumb Code    48  oled_basic.o(i.GetRotateXY)
    GetTextBkMode                            0x0800176d   Thumb Code     6  oled_font.o(i.GetTextBkMode)
    GetXY                                    0x08001779   Thumb Code    12  oled_draw.o(i.GetXY)
    HardFault_Handler                        0x08001789   Thumb Code     2  stm32f10x_it.o(i.HardFault_Handler)
    InitGraph                                0x0800178b   Thumb Code     4  oled_basic.o(i.InitGraph)
    KEY_Init                                 0x08001791   Thumb Code    52  key.o(i.KEY_Init)
    KEY_Scan                                 0x080017cd   Thumb Code   154  key.o(i.KEY_Scan)
    LED_Init                                 0x08001875   Thumb Code    70  led.o(i.LED_Init)
    LineTo                                   0x080018c5   Thumb Code    26  oled_draw.o(i.LineTo)
    MemManage_Handler                        0x080018e5   Thumb Code     2  stm32f10x_it.o(i.MemManage_Handler)
    MoveTo                                   0x080018e9   Thumb Code     8  oled_draw.o(i.MoveTo)
    NMI_Handler                              0x080018f5   Thumb Code     2  stm32f10x_it.o(i.NMI_Handler)
    NVIC_Init                                0x080018f9   Thumb Code    94  misc.o(i.NVIC_Init)
    NVIC_PriorityGroupConfig                 0x0800195d   Thumb Code    10  misc.o(i.NVIC_PriorityGroupConfig)
    OLED_CLS                                 0x08001971   Thumb Code    52  oled_driver.o(i.OLED_CLS)
    OLED_FILL                                0x080019a5   Thumb Code    56  oled_driver.o(i.OLED_FILL)
    OLED_Init                                0x080019dd   Thumb Code   178  oled_driver.o(i.OLED_Init)
    OLED_Polygon_task                        0x08001a91   Thumb Code    52  main.o(i.OLED_Polygon_task)
    OLED_TEST_task                           0x08001b25   Thumb Code    48  main.o(i.OLED_TEST_task)
    OLED_WATCH_task                          0x08001b6d   Thumb Code    40  main.o(i.OLED_WATCH_task)
    OLED_WR_Byte                             0x08001bb1   Thumb Code   110  oled_driver.o(i.OLED_WR_Byte)
    OledPrintf                               0x08001c25   Thumb Code   278  oled_debug.o(i.OledPrintf)
    OneShotCallback                          0x08001d41   Thumb Code    20  main.o(i.OneShotCallback)
    RCC_APB2PeriphClockCmd                   0x08001d59   Thumb Code    18  stm32f10x_rcc.o(i.RCC_APB2PeriphClockCmd)
    RCC_GetClocksFreq                        0x08001d71   Thumb Code   132  stm32f10x_rcc.o(i.RCC_GetClocksFreq)
    ReadByteBuffer                           0x08001e05   Thumb Code    20  oled_buffer.o(i.ReadByteBuffer)
    RoundClock                               0x08001eef   Thumb Code   264  test.o(i.RoundClock)
    SPI_Configuration                        0x08001ff9   Thumb Code    86  oled_driver.o(i.SPI_Configuration)
    SetAnggleDir                             0x08002055   Thumb Code     6  oled_basic.o(i.SetAnggleDir)
    SetAngle                                 0x08002061   Thumb Code    44  oled_basic.o(i.SetAngle)
    SetDrawColor                             0x0800209d   Thumb Code     6  oled_color.o(i.SetDrawColor)
    SetFillcolor                             0x080020a9   Thumb Code     6  oled_color.o(i.SetFillcolor)
    SetFontSize                              0x080020b5   Thumb Code     6  oled_font.o(i.SetFontSize)
    SetPointBuffer                           0x080020c1   Thumb Code    68  oled_buffer.o(i.SetPointBuffer)
    SetRotateCenter                          0x08002111   Thumb Code     8  oled_basic.o(i.SetRotateCenter)
    SetRotateValue                           0x0800211d   Thumb Code    22  oled_basic.o(i.SetRotateValue)
    ShowPolygon                              0x080021e1   Thumb Code   274  test.o(i.ShowPolygon)
    ShowWatch                                0x080022fd   Thumb Code    54  test.o(i.ShowWatch)
    SysTick_CLKSourceConfig                  0x08002333   Thumb Code    24  misc.o(i.SysTick_CLKSourceConfig)
    SysTick_Handler                          0x0800234b   Thumb Code    20  delay.o(i.SysTick_Handler)
    SystemInit                               0x08002361   Thumb Code    64  system_stm32f10x.o(i.SystemInit)
    TIM3_IRQHandler                          0x080023b1   Thumb Code    34  timer.o(i.TIM3_IRQHandler)
    TIM5_IRQHandler                          0x080023ed   Thumb Code    34  timer.o(i.TIM5_IRQHandler)
    TIM_ClearITPendingBit                    0x08002429   Thumb Code     6  stm32f10x_tim.o(i.TIM_ClearITPendingBit)
    TIM_GetITStatus                          0x0800242f   Thumb Code    24  stm32f10x_tim.o(i.TIM_GetITStatus)
    USART1_IRQHandler                        0x08002449   Thumb Code    88  usart.o(i.USART1_IRQHandler)
    USART_Cmd                                0x080024ad   Thumb Code    20  stm32f10x_usart.o(i.USART_Cmd)
    USART_GetITStatus                        0x080024c1   Thumb Code    62  stm32f10x_usart.o(i.USART_GetITStatus)
    USART_ITConfig                           0x080024ff   Thumb Code    48  stm32f10x_usart.o(i.USART_ITConfig)
    USART_Init                               0x08002531   Thumb Code   166  stm32f10x_usart.o(i.USART_Init)
    USART_ReceiveData                        0x080025dd   Thumb Code     8  stm32f10x_usart.o(i.USART_ReceiveData)
    UpdateScreen                             0x080025e5   Thumb Code     4  oled_basic.o(i.UpdateScreen)
    UpdateScreenBuffer                       0x080025e9   Thumb Code     6  oled_config.o(i.UpdateScreenBuffer)
    UpdateScreenDisplay                      0x080025f5   Thumb Code     4  oled_buffer.o(i.UpdateScreenDisplay)
    UsageFault_Handler                       0x080025f9   Thumb Code     2  stm32f10x_it.o(i.UsageFault_Handler)
    WriteByteBuffer                          0x080025fd   Thumb Code    20  oled_buffer.o(i.WriteByteBuffer)
    WriteCmd                                 0x0800261d   Thumb Code     6  oled_driver.o(i.WriteCmd)
    WriteDat                                 0x08002623   Thumb Code     6  oled_driver.o(i.WriteDat)
    __ARM_fpclassify                         0x08002629   Thumb Code    40  fpclassify.o(i.__ARM_fpclassify)
    __ieee754_rem_pio2                       0x08002651   Thumb Code   828  rred.o(i.__ieee754_rem_pio2)
    __kernel_cos                             0x080029d9   Thumb Code   230  cos_i.o(i.__kernel_cos)
    __kernel_poly                            0x08002ad5   Thumb Code   170  poly.o(i.__kernel_poly)
    __kernel_sin                             0x08002b81   Thumb Code   224  sin_i.o(i.__kernel_sin)
    __mathlib_dbl_infnan                     0x08002c6d   Thumb Code     6  dunder.o(i.__mathlib_dbl_infnan)
    __mathlib_dbl_infnan2                    0x08002c73   Thumb Code     4  dunder.o(i.__mathlib_dbl_infnan2)
    __mathlib_dbl_invalid                    0x08002c77   Thumb Code    12  dunder.o(i.__mathlib_dbl_invalid)
    __mathlib_dbl_underflow                  0x08002c85   Thumb Code    10  dunder.o(i.__mathlib_dbl_underflow)
    _sys_exit                                0x08002c95   Thumb Code     2  usart.o(i._sys_exit)
    atan                                     0x08002c99   Thumb Code   474  atan.o(i.atan)
    atan2                                    0x08002eb9   Thumb Code   374  atan2.o(i.atan2)
    cos                                      0x08003055   Thumb Code   148  cos.o(i.cos)
    delay_init                               0x080030f1   Thumb Code    60  delay.o(i.delay_init)
    delay_ms                                 0x08003139   Thumb Code    52  delay.o(i.delay_ms)
    delay_us                                 0x08003171   Thumb Code    48  delay.o(i.delay_us)
    demo                                     0x080031a5   Thumb Code  1208  test.o(i.demo)
    fputc                                    0x0800365d   Thumb Code    18  usart.o(i.fputc)
    key_task                                 0x08003675   Thumb Code    48  main.o(i.key_task)
    m_putchar                                0x080036b9   Thumb Code    74  oled_debug.o(i.m_putchar)
    m_putstr                                 0x08003709   Thumb Code    20  oled_debug.o(i.m_putstr)
    main                                     0x0800371d   Thumb Code    62  main.o(i.main)
    mySqrt                                   0x08003771   Thumb Code    32  oled_basic.o(i.mySqrt)
    oled_pow                                 0x08003795   Thumb Code    16  oled_basic.o(i.oled_pow)
    pgm_read_byte                            0x080037a5   Thumb Code     4  oled_basic.o(i.pgm_read_byte)
    pvPortMalloc                             0x08004061   Thumb Code   214  heap_4.o(i.pvPortMalloc)
    pvTaskIncrementMutexHeldCount            0x08004175   Thumb Code    18  tasks.o(i.pvTaskIncrementMutexHeldCount)
    pxPortInitialiseStack                    0x0800418d   Thumb Code    32  port.o(i.pxPortInitialiseStack)
    sin                                      0x080041b1   Thumb Code   150  sin.o(i.sin)
    start_task                               0x08004251   Thumb Code   104  main.o(i.start_task)
    uart_init                                0x080042f5   Thumb Code   152  usart.o(i.uart_init)
    uxListRemove                             0x08004395   Thumb Code    36  list.o(i.uxListRemove)
    vListInitialise                          0x080043b9   Thumb Code    22  list.o(i.vListInitialise)
    vListInitialiseItem                      0x080043cf   Thumb Code     6  list.o(i.vListInitialiseItem)
    vListInsert                              0x080043d5   Thumb Code    48  list.o(i.vListInsert)
    vListInsertEnd                           0x08004405   Thumb Code    24  list.o(i.vListInsertEnd)
    vPortEnterCritical                       0x0800441d   Thumb Code    50  port.o(i.vPortEnterCritical)
    vPortExitCritical                        0x08004495   Thumb Code    34  port.o(i.vPortExitCritical)
    vPortFree                                0x080044f9   Thumb Code    94  heap_4.o(i.vPortFree)
    vPortSetupTimerInterrupt                 0x08004595   Thumb Code    26  port.o(i.vPortSetupTimerInterrupt)
    vPortValidateInterruptPriority           0x080045b5   Thumb Code    70  port.o(i.vPortValidateInterruptPriority)
    vQueueAddToRegistry                      0x08004641   Thumb Code    32  queue.o(i.vQueueAddToRegistry)
    vQueueWaitForMessageRestricted           0x08004665   Thumb Code    68  queue.o(i.vQueueWaitForMessageRestricted)
    vTaskDelay                               0x080046a9   Thumb Code    62  tasks.o(i.vTaskDelay)
    vTaskDelete                              0x08004715   Thumb Code   152  tasks.o(i.vTaskDelete)
    vTaskMissedYield                         0x080047e1   Thumb Code     8  tasks.o(i.vTaskMissedYield)
    vTaskPlaceOnEventList                    0x080047ed   Thumb Code    44  tasks.o(i.vTaskPlaceOnEventList)
    vTaskPlaceOnEventListRestricted          0x08004841   Thumb Code    52  tasks.o(i.vTaskPlaceOnEventListRestricted)
    vTaskPriorityInherit                     0x0800489d   Thumb Code   124  tasks.o(i.vTaskPriorityInherit)
    vTaskResume                              0x08004921   Thumb Code   112  tasks.o(i.vTaskResume)
    vTaskSetTimeOutState                     0x080049c1   Thumb Code    30  tasks.o(i.vTaskSetTimeOutState)
    vTaskStartScheduler                      0x08004a09   Thumb Code    96  tasks.o(i.vTaskStartScheduler)
    vTaskSuspend                             0x08004a9d   Thumb Code   154  tasks.o(i.vTaskSuspend)
    vTaskSuspendAll                          0x08004b6d   Thumb Code    10  tasks.o(i.vTaskSuspendAll)
    vTaskSwitchContext                       0x08004b7d   Thumb Code    80  tasks.o(i.vTaskSwitchContext)
    xPortStartScheduler                      0x08004bf9   Thumb Code   108  port.o(i.xPortStartScheduler)
    xPortSysTickHandler                      0x08004c71   Thumb Code    38  port.o(i.xPortSysTickHandler)
    xQueueGenericCreate                      0x08004c9d   Thumb Code    82  queue.o(i.xQueueGenericCreate)
    xQueueGenericReceive                     0x08004d15   Thumb Code   348  queue.o(i.xQueueGenericReceive)
    xQueueGenericReset                       0x08004e99   Thumb Code   128  queue.o(i.xQueueGenericReset)
    xQueueGenericSend                        0x08004f41   Thumb Code   350  queue.o(i.xQueueGenericSend)
    xQueueGenericSendFromISR                 0x080050c9   Thumb Code   188  queue.o(i.xQueueGenericSendFromISR)
    xTaskCheckForTimeOut                     0x080051a9   Thumb Code    94  tasks.o(i.xTaskCheckForTimeOut)
    xTaskCreate                              0x08005231   Thumb Code    86  tasks.o(i.xTaskCreate)
    xTaskGetSchedulerState                   0x08005289   Thumb Code    22  tasks.o(i.xTaskGetSchedulerState)
    xTaskGetTickCount                        0x080052a5   Thumb Code     6  tasks.o(i.xTaskGetTickCount)
    xTaskIncrementTick                       0x080052b1   Thumb Code   188  tasks.o(i.xTaskIncrementTick)
    xTaskPriorityDisinherit                  0x08005399   Thumb Code   136  tasks.o(i.xTaskPriorityDisinherit)
    xTaskRemoveFromEventList                 0x0800544d   Thumb Code   102  tasks.o(i.xTaskRemoveFromEventList)
    xTaskResumeAll                           0x080054e5   Thumb Code   180  tasks.o(i.xTaskResumeAll)
    xTimerCreate                             0x080055c9   Thumb Code    74  timers.o(i.xTimerCreate)
    xTimerCreateTimerTask                    0x0800563d   Thumb Code    58  timers.o(i.xTimerCreateTimerTask)
    xTimerGenericCommand                     0x080056b1   Thumb Code    98  timers.o(i.xTimerGenericCommand)
    __aeabi_d2f                              0x08005741   Thumb Code     0  d2f.o(x$fpl$d2f)
    _d2f                                     0x08005741   Thumb Code    98  d2f.o(x$fpl$d2f)
    __aeabi_dadd                             0x080057a5   Thumb Code     0  daddsub_clz.o(x$fpl$dadd)
    _dadd                                    0x080057a5   Thumb Code   332  daddsub_clz.o(x$fpl$dadd)
    __fpl_dcheck_NaN1                        0x080058f5   Thumb Code    10  dcheck1.o(x$fpl$dcheck1)
    __fpl_dcmp_Inf                           0x08005905   Thumb Code    24  dcmpi.o(x$fpl$dcmpinf)
    __aeabi_ddiv                             0x0800591d   Thumb Code     0  ddiv.o(x$fpl$ddiv)
    _ddiv                                    0x0800591d   Thumb Code   552  ddiv.o(x$fpl$ddiv)
    __aeabi_cdcmpeq                          0x08005bcd   Thumb Code     0  deqf.o(x$fpl$deqf)
    _dcmpeq                                  0x08005bcd   Thumb Code   120  deqf.o(x$fpl$deqf)
    __aeabi_d2iz                             0x08005c45   Thumb Code     0  dfix.o(x$fpl$dfix)
    _dfix                                    0x08005c45   Thumb Code    94  dfix.o(x$fpl$dfix)
    __aeabi_i2d                              0x08005ca3   Thumb Code     0  dflt_clz.o(x$fpl$dflt)
    _dflt                                    0x08005ca3   Thumb Code    46  dflt_clz.o(x$fpl$dflt)
    __aeabi_ui2d                             0x08005cd1   Thumb Code     0  dflt_clz.o(x$fpl$dfltu)
    _dfltu                                   0x08005cd1   Thumb Code    38  dflt_clz.o(x$fpl$dfltu)
    __aeabi_dmul                             0x08005cf9   Thumb Code     0  dmul.o(x$fpl$dmul)
    _dmul                                    0x08005cf9   Thumb Code   332  dmul.o(x$fpl$dmul)
    __fpl_dnaninf                            0x08005e4d   Thumb Code   156  dnaninf.o(x$fpl$dnaninf)
    __fpl_dretinf                            0x08005ee9   Thumb Code    12  dretinf.o(x$fpl$dretinf)
    __aeabi_drsub                            0x08005ef5   Thumb Code     0  daddsub_clz.o(x$fpl$drsb)
    _drsb                                    0x08005ef5   Thumb Code    22  daddsub_clz.o(x$fpl$drsb)
    __aeabi_dsub                             0x08005f0d   Thumb Code     0  daddsub_clz.o(x$fpl$dsub)
    _dsub                                    0x08005f0d   Thumb Code   464  daddsub_clz.o(x$fpl$dsub)
    __aeabi_f2d                              0x080060e1   Thumb Code     0  f2d.o(x$fpl$f2d)
    _f2d                                     0x080060e1   Thumb Code    86  f2d.o(x$fpl$f2d)
    __aeabi_fadd                             0x08006139   Thumb Code     0  faddsub_clz.o(x$fpl$fadd)
    _fadd                                    0x08006139   Thumb Code   196  faddsub_clz.o(x$fpl$fadd)
    __fpl_fcheck_NaN1                        0x080061fd   Thumb Code     6  fcheck1.o(x$fpl$fcheck1)
    __fpl_fcmp_Inf                           0x08006209   Thumb Code    24  fcmpi.o(x$fpl$fcmpinf)
    __aeabi_fdiv                             0x08006221   Thumb Code     0  fdiv.o(x$fpl$fdiv)
    _fdiv                                    0x08006221   Thumb Code   384  fdiv.o(x$fpl$fdiv)
    __aeabi_i2f                              0x080063a5   Thumb Code     0  fflt_clz.o(x$fpl$fflt)
    _fflt                                    0x080063a5   Thumb Code    48  fflt_clz.o(x$fpl$fflt)
    __aeabi_ui2f                             0x080063d5   Thumb Code     0  fflt_clz.o(x$fpl$ffltu)
    _ffltu                                   0x080063d5   Thumb Code    38  fflt_clz.o(x$fpl$ffltu)
    __aeabi_cfcmple                          0x080063fd   Thumb Code     0  fleqf.o(x$fpl$fleqf)
    _fcmple                                  0x080063fd   Thumb Code   104  fleqf.o(x$fpl$fleqf)
    __fpl_fcmple_InfNaN                      0x0800644f   Thumb Code     0  fleqf.o(x$fpl$fleqf)
    __fpl_fnaninf                            0x08006465   Thumb Code   140  fnaninf.o(x$fpl$fnaninf)
    __fpl_fretinf                            0x080064f1   Thumb Code    10  fretinf.o(x$fpl$fretinf)
    __aeabi_cfrcmple                         0x080064fb   Thumb Code     0  frleqf.o(x$fpl$frleqf)
    _frcmple                                 0x080064fb   Thumb Code    98  frleqf.o(x$fpl$frleqf)
    __aeabi_fsub                             0x0800655d   Thumb Code     0  faddsub_clz.o(x$fpl$fsub)
    _fsub                                    0x0800655d   Thumb Code   234  faddsub_clz.o(x$fpl$fsub)
    __fpl_return_NaN                         0x08006647   Thumb Code   100  retnan.o(x$fpl$retnan)
    __ARM_scalbn                             0x080066ab   Thumb Code    92  scalbn.o(x$fpl$scalbn)
    __ARM_scalbnf                            0x08006707   Thumb Code    76  scalbnf.o(x$fpl$scalbnf)
    __fpl_cmpreturn                          0x08006753   Thumb Code    48  trapv.o(x$fpl$trapveneer)
    BmpTest1                                 0x08006782   Data          32  oled_bmp.o(.constdata)
    __I$use$fp                               0x08006782   Number         0  usenofp.o(x$fpl$usenofp)
    BmpTest2                                 0x080067a2   Data         128  oled_bmp.o(.constdata)
    BmpTest3                                 0x08006822   Data         512  oled_bmp.o(.constdata)
    font5x7                                  0x08006a22   Data        1280  oled_font.o(.constdata)
    F8X16                                    0x08006f22   Data        1520  oled_font.o(.constdata)
    __mathlib_zero                           0x080075e0   Data           8  qnan.o(.constdata)
    Region$$Table$$Base                      0x080076d8   Number         0  anon$$obj.o(Region$$Table)
    Region$$Table$$Limit                     0x080076f8   Number         0  anon$$obj.o(Region$$Table)
    flag1s                                   0x20000000   Data           1  main.o(.data)
    StartTask_Handler                        0x20000004   Data           4  main.o(.data)
    Task1Task_Handler                        0x20000008   Data           4  main.o(.data)
    OLED_TESTTask_Handler                    0x2000000c   Data           4  main.o(.data)
    OLED_WATCHTask_Handler                   0x20000010   Data           4  main.o(.data)
    KeyTask_Handler                          0x20000014   Data           4  main.o(.data)
    OLED_PolygonTask_Handler                 0x20000018   Data           4  main.o(.data)
    OneShotTimer_Handle                      0x2000001c   Data           4  main.o(.data)
    SystemCoreClock                          0x20000020   Data           4  system_stm32f10x.o(.data)
    AHBPrescTable                            0x20000024   Data          16  system_stm32f10x.o(.data)
    USART_RX_STA                             0x2000003a   Data           2  usart.o(.data)
    __stdout                                 0x2000003c   Data           4  usart.o(.data)
    pxCurrentTCB                             0x20000054   Data           4  tasks.o(.data)
    _RoateValue                              0x200000d0   Data          16  oled_basic.o(.data)
    USART_RX_BUF                             0x200000fc   Data         200  usart.o(.bss)
    xQueueRegistry                           0x200001c4   Data          64  queue.o(.bss)
    ScreenBuffer                             0x20005510   Data        1024  oled_buffer.o(.bss)
    TempBuffer                               0x20005910   Data        1024  oled_buffer.o(.bss)
    __libspace_start                         0x20005d10   Data          96  libspace.o(.bss)
    __temporary_stack_top$libspace           0x20005d70   Data           0  libspace.o(.bss)



==============================================================================

Memory Map of the image

  Image Entry point : 0x08000275

  Load Region LR_1 (Base: 0x08000000, Size: 0x000077f4, Max: 0xffffffff, ABSOLUTE)

    Execution Region ER_RO (Exec base: 0x08000000, Load base: 0x08000000, Size: 0x000076f8, Max: 0xffffffff, ABSOLUTE)

    Exec Addr    Load Addr    Size         Type   Attr      Idx    E Section Name        Object

    0x08000000   0x08000000   0x00000130   Data   RO          543    RESET               startup_stm32f10x_hd.o
    0x08000130   0x08000130   0x00000008   Code   RO         3529  * !!!main             c_w.l(__main.o)
    0x08000138   0x08000138   0x00000034   Code   RO         3852    !!!scatter          c_w.l(__scatter.o)
    0x0800016c   0x0800016c   0x0000001a   Code   RO         3854    !!handler_copy      c_w.l(__scatter_copy.o)
    0x08000186   0x08000186   0x00000002   PAD
    0x08000188   0x08000188   0x0000001c   Code   RO         3856    !!handler_zi        c_w.l(__scatter_zi.o)
    0x080001a4   0x080001a4   0x00000000   Code   RO         3509    .ARM.Collect$$_printf_percent$$00000000  c_w.l(_printf_percent.o)
    0x080001a4   0x080001a4   0x00000006   Code   RO         3507    .ARM.Collect$$_printf_percent$$00000009  c_w.l(_printf_d.o)
    0x080001aa   0x080001aa   0x00000006   Code   RO         3506    .ARM.Collect$$_printf_percent$$00000014  c_w.l(_printf_s.o)
    0x080001b0   0x080001b0   0x00000004   Code   RO         3618    .ARM.Collect$$_printf_percent$$00000017  c_w.l(_printf_percent_end.o)
    0x080001b4   0x080001b4   0x00000002   Code   RO         3778    .ARM.Collect$$libinit$$00000000  c_w.l(libinit.o)
    0x080001b6   0x080001b6   0x00000000   Code   RO         3622    .ARM.Collect$$libinit$$00000002  c_w.l(libinit2.o)
    0x080001b6   0x080001b6   0x00000000   Code   RO         3624    .ARM.Collect$$libinit$$00000004  c_w.l(libinit2.o)
    0x080001b6   0x080001b6   0x00000000   Code   RO         3627    .ARM.Collect$$libinit$$0000000A  c_w.l(libinit2.o)
    0x080001b6   0x080001b6   0x00000000   Code   RO         3629    .ARM.Collect$$libinit$$0000000C  c_w.l(libinit2.o)
    0x080001b6   0x080001b6   0x00000000   Code   RO         3631    .ARM.Collect$$libinit$$0000000E  c_w.l(libinit2.o)
    0x080001b6   0x080001b6   0x00000000   Code   RO         3634    .ARM.Collect$$libinit$$00000011  c_w.l(libinit2.o)
    0x080001b6   0x080001b6   0x00000000   Code   RO         3636    .ARM.Collect$$libinit$$00000013  c_w.l(libinit2.o)
    0x080001b6   0x080001b6   0x00000000   Code   RO         3638    .ARM.Collect$$libinit$$00000015  c_w.l(libinit2.o)
    0x080001b6   0x080001b6   0x00000000   Code   RO         3640    .ARM.Collect$$libinit$$00000017  c_w.l(libinit2.o)
    0x080001b6   0x080001b6   0x00000000   Code   RO         3642    .ARM.Collect$$libinit$$00000019  c_w.l(libinit2.o)
    0x080001b6   0x080001b6   0x00000000   Code   RO         3644    .ARM.Collect$$libinit$$0000001B  c_w.l(libinit2.o)
    0x080001b6   0x080001b6   0x00000000   Code   RO         3646    .ARM.Collect$$libinit$$0000001D  c_w.l(libinit2.o)
    0x080001b6   0x080001b6   0x00000000   Code   RO         3648    .ARM.Collect$$libinit$$0000001F  c_w.l(libinit2.o)
    0x080001b6   0x080001b6   0x00000000   Code   RO         3650    .ARM.Collect$$libinit$$00000021  c_w.l(libinit2.o)
    0x080001b6   0x080001b6   0x00000000   Code   RO         3652    .ARM.Collect$$libinit$$00000023  c_w.l(libinit2.o)
    0x080001b6   0x080001b6   0x00000000   Code   RO         3654    .ARM.Collect$$libinit$$00000025  c_w.l(libinit2.o)
    0x080001b6   0x080001b6   0x00000000   Code   RO         3658    .ARM.Collect$$libinit$$0000002C  c_w.l(libinit2.o)
    0x080001b6   0x080001b6   0x00000000   Code   RO         3660    .ARM.Collect$$libinit$$0000002E  c_w.l(libinit2.o)
    0x080001b6   0x080001b6   0x00000000   Code   RO         3662    .ARM.Collect$$libinit$$00000030  c_w.l(libinit2.o)
    0x080001b6   0x080001b6   0x00000000   Code   RO         3664    .ARM.Collect$$libinit$$00000032  c_w.l(libinit2.o)
    0x080001b6   0x080001b6   0x00000002   Code   RO         3665    .ARM.Collect$$libinit$$00000033  c_w.l(libinit2.o)
    0x080001b8   0x080001b8   0x00000002   Code   RO         3811    .ARM.Collect$$libshutdown$$00000000  c_w.l(libshutdown.o)
    0x080001ba   0x080001ba   0x00000000   Code   RO         3817    .ARM.Collect$$libshutdown$$00000002  c_w.l(libshutdown2.o)
    0x080001ba   0x080001ba   0x00000000   Code   RO         3819    .ARM.Collect$$libshutdown$$00000004  c_w.l(libshutdown2.o)
    0x080001ba   0x080001ba   0x00000000   Code   RO         3821    .ARM.Collect$$libshutdown$$00000006  c_w.l(libshutdown2.o)
    0x080001ba   0x080001ba   0x00000000   Code   RO         3824    .ARM.Collect$$libshutdown$$00000009  c_w.l(libshutdown2.o)
    0x080001ba   0x080001ba   0x00000000   Code   RO         3827    .ARM.Collect$$libshutdown$$0000000C  c_w.l(libshutdown2.o)
    0x080001ba   0x080001ba   0x00000000   Code   RO         3829    .ARM.Collect$$libshutdown$$0000000E  c_w.l(libshutdown2.o)
    0x080001ba   0x080001ba   0x00000000   Code   RO         3832    .ARM.Collect$$libshutdown$$00000011  c_w.l(libshutdown2.o)
    0x080001ba   0x080001ba   0x00000002   Code   RO         3833    .ARM.Collect$$libshutdown$$00000012  c_w.l(libshutdown2.o)
    0x080001bc   0x080001bc   0x00000000   Code   RO         3605    .ARM.Collect$$rtentry$$00000000  c_w.l(__rtentry.o)
    0x080001bc   0x080001bc   0x00000000   Code   RO         3723    .ARM.Collect$$rtentry$$00000002  c_w.l(__rtentry2.o)
    0x080001bc   0x080001bc   0x00000006   Code   RO         3735    .ARM.Collect$$rtentry$$00000004  c_w.l(__rtentry4.o)
    0x080001c2   0x080001c2   0x00000000   Code   RO         3725    .ARM.Collect$$rtentry$$00000009  c_w.l(__rtentry2.o)
    0x080001c2   0x080001c2   0x00000004   Code   RO         3726    .ARM.Collect$$rtentry$$0000000A  c_w.l(__rtentry2.o)
    0x080001c6   0x080001c6   0x00000000   Code   RO         3728    .ARM.Collect$$rtentry$$0000000C  c_w.l(__rtentry2.o)
    0x080001c6   0x080001c6   0x00000008   Code   RO         3729    .ARM.Collect$$rtentry$$0000000D  c_w.l(__rtentry2.o)
    0x080001ce   0x080001ce   0x00000002   Code   RO         3783    .ARM.Collect$$rtexit$$00000000  c_w.l(rtexit.o)
    0x080001d0   0x080001d0   0x00000000   Code   RO         3793    .ARM.Collect$$rtexit$$00000002  c_w.l(rtexit2.o)
    0x080001d0   0x080001d0   0x00000004   Code   RO         3794    .ARM.Collect$$rtexit$$00000003  c_w.l(rtexit2.o)
    0x080001d4   0x080001d4   0x00000006   Code   RO         3795    .ARM.Collect$$rtexit$$00000004  c_w.l(rtexit2.o)
    0x080001da   0x080001da   0x00000002   PAD
    0x080001dc   0x080001dc   0x00000096   Code   RO         2701    .emb_text           port.o
    0x08000272   0x08000272   0x00000002   PAD
    0x08000274   0x08000274   0x00000040   Code   RO          544  * .text               startup_stm32f10x_hd.o
    0x080002b4   0x080002b4   0x00000002   Code   RO         3469    .text               c_w.l(use_no_semi_2.o)
    0x080002b6   0x080002b6   0x00000002   PAD
    0x080002b8   0x080002b8   0x00000018   Code   RO         3475    .text               c_w.l(noretval__2printf.o)
    0x080002d0   0x080002d0   0x00000068   Code   RO         3479    .text               c_w.l(__printf.o)
    0x08000338   0x08000338   0x00000052   Code   RO         3481    .text               c_w.l(_printf_str.o)
    0x0800038a   0x0800038a   0x00000002   PAD
    0x0800038c   0x0800038c   0x00000078   Code   RO         3483    .text               c_w.l(_printf_dec.o)
    0x08000404   0x08000404   0x0000003e   Code   RO         3517    .text               c_w.l(strlen.o)
    0x08000442   0x08000442   0x0000008a   Code   RO         3519    .text               c_w.l(rt_memcpy_v6.o)
    0x080004cc   0x080004cc   0x00000010   Code   RO         3521    .text               c_w.l(aeabi_memset.o)
    0x080004dc   0x080004dc   0x00000044   Code   RO         3523    .text               c_w.l(rt_memclr.o)
    0x08000520   0x08000520   0x0000004e   Code   RO         3525    .text               c_w.l(rt_memclr_w.o)
    0x0800056e   0x0800056e   0x00000006   Code   RO         3527    .text               c_w.l(heapauxi.o)
    0x08000574   0x08000574   0x00000002   Code   RO         3603    .text               c_w.l(use_no_semi.o)
    0x08000576   0x08000576   0x00000016   Code   RO         3606    .text               c_w.l(_rserrno.o)
    0x0800058c   0x0800058c   0x000000b2   Code   RO         3608    .text               c_w.l(_printf_intcommon.o)
    0x0800063e   0x0800063e   0x00000002   PAD
    0x08000640   0x08000640   0x00000030   Code   RO         3610    .text               c_w.l(_printf_char_common.o)
    0x08000670   0x08000670   0x0000002c   Code   RO         3614    .text               c_w.l(_printf_char.o)
    0x0800069c   0x0800069c   0x00000024   Code   RO         3616    .text               c_w.l(_printf_char_file.o)
    0x080006c0   0x080006c0   0x00000064   Code   RO         3619    .text               c_w.l(rt_memcpy_w.o)
    0x08000724   0x08000724   0x00000008   Code   RO         3740    .text               c_w.l(rt_errno_addr_intlibspace.o)
    0x0800072c   0x0800072c   0x00000008   Code   RO         3744    .text               c_w.l(ferror.o)
    0x08000734   0x08000734   0x00000008   Code   RO         3762    .text               c_w.l(libspace.o)
    0x0800073c   0x0800073c   0x0000004a   Code   RO         3765    .text               c_w.l(sys_stackheap_outer.o)
    0x08000786   0x08000786   0x00000012   Code   RO         3767    .text               c_w.l(exit.o)
    0x08000798   0x08000798   0x00000002   Code   RO          248    i.BusFault_Handler  stm32f10x_it.o
    0x0800079a   0x0800079a   0x00000006   Code   RO         2778    i.ClearScreen       oled_basic.o
    0x080007a0   0x080007a0   0x00000010   Code   RO         2928    i.ClearScreenBuffer  oled_buffer.o
    0x080007b0   0x080007b0   0x00000002   Code   RO          249    i.DebugMon_Handler  stm32f10x_it.o
    0x080007b2   0x080007b2   0x00000002   PAD
    0x080007b4   0x080007b4   0x000000ac   Code   RO         3119    i.DrawArc           oled_draw.o
    0x08000860   0x08000860   0x000001a4   Code   RO         3120    i.DrawBitmap        oled_draw.o
    0x08000a04   0x08000a04   0x00000124   Code   RO         3121    i.DrawChar          oled_draw.o
    0x08000b28   0x08000b28   0x000000c4   Code   RO         3122    i.DrawCircle        oled_draw.o
    0x08000bec   0x08000bec   0x000000aa   Code   RO         3123    i.DrawCircleHelper  oled_draw.o
    0x08000c96   0x08000c96   0x00000002   PAD
    0x08000c98   0x08000c98   0x000001d8   Code   RO         3124    i.DrawEllipse       oled_draw.o
    0x08000e70   0x08000e70   0x00000036   Code   RO         3126    i.DrawFastHLine     oled_draw.o
    0x08000ea6   0x08000ea6   0x00000036   Code   RO         3127    i.DrawFastVLine     oled_draw.o
    0x08000edc   0x08000edc   0x0000002a   Code   RO         3129    i.DrawFillCircle    oled_draw.o
    0x08000f06   0x08000f06   0x00000094   Code   RO         3130    i.DrawFillCircleHelper  oled_draw.o
    0x08000f9a   0x08000f9a   0x00000144   Code   RO         3131    i.DrawFillEllipse   oled_draw.o
    0x080010de   0x080010de   0x00000020   Code   RO         3133    i.DrawFillRect2     oled_draw.o
    0x080010fe   0x080010fe   0x00000154   Code   RO         3134    i.DrawFillTriangle  oled_draw.o
    0x08001252   0x08001252   0x000000a4   Code   RO         3135    i.DrawLine          oled_draw.o
    0x080012f6   0x080012f6   0x000000b8   Code   RO         3136    i.DrawNum           oled_draw.o
    0x080013ae   0x080013ae   0x0000003e   Code   RO         3140    i.DrawRect2         oled_draw.o
    0x080013ec   0x080013ec   0x00000090   Code   RO         3141    i.DrawRoundRect     oled_draw.o
    0x0800147c   0x0800147c   0x0000006e   Code   RO         3142    i.DrawString        oled_draw.o
    0x080014ea   0x080014ea   0x00000030   Code   RO         3143    i.DrawTriangle      oled_draw.o
    0x0800151a   0x0800151a   0x0000004c   Code   RO         3145    i.DrawfillRoundRect  oled_draw.o
    0x08001566   0x08001566   0x0000000e   Code   RO         3039    i.DriverInit        oled_config.o
    0x08001574   0x08001574   0x00000030   Code   RO         2779    i.FillByte          oled_basic.o
    0x080015a4   0x080015a4   0x000000bc   Code   RO         2780    i.FillRect          oled_basic.o
    0x08001660   0x08001660   0x0000009c   Code   RO          590    i.GPIO_Init         stm32f10x_gpio.o
    0x080016fc   0x080016fc   0x0000000e   Code   RO          594    i.GPIO_ReadInputDataBit  stm32f10x_gpio.o
    0x0800170a   0x0800170a   0x00000004   Code   RO          597    i.GPIO_ResetBits    stm32f10x_gpio.o
    0x0800170e   0x0800170e   0x00000004   Code   RO          598    i.GPIO_SetBits      stm32f10x_gpio.o
    0x08001712   0x08001712   0x00000002   PAD
    0x08001714   0x08001714   0x0000000c   Code   RO         3007    i.GetDrawColor      oled_color.o
    0x08001720   0x08001720   0x0000000c   Code   RO         3008    i.GetFillColor      oled_color.o
    0x0800172c   0x0800172c   0x0000000c   Code   RO         3386    i.GetFontSize       oled_font.o
    0x08001738   0x08001738   0x00000034   Code   RO         2787    i.GetRotateXY       oled_basic.o
    0x0800176c   0x0800176c   0x0000000c   Code   RO         3387    i.GetTextBkMode     oled_font.o
    0x08001778   0x08001778   0x00000010   Code   RO         3148    i.GetXY             oled_draw.o
    0x08001788   0x08001788   0x00000002   Code   RO          250    i.HardFault_Handler  stm32f10x_it.o
    0x0800178a   0x0800178a   0x00000004   Code   RO         2788    i.InitGraph         oled_basic.o
    0x0800178e   0x0800178e   0x00000002   PAD
    0x08001790   0x08001790   0x0000003c   Code   RO          390    i.KEY_Init          key.o
    0x080017cc   0x080017cc   0x000000a8   Code   RO          391    i.KEY_Scan          key.o
    0x08001874   0x08001874   0x00000050   Code   RO          348    i.LED_Init          led.o
    0x080018c4   0x080018c4   0x00000020   Code   RO         3150    i.LineTo            oled_draw.o
    0x080018e4   0x080018e4   0x00000002   Code   RO          251    i.MemManage_Handler  stm32f10x_it.o
    0x080018e6   0x080018e6   0x00000002   PAD
    0x080018e8   0x080018e8   0x0000000c   Code   RO         3151    i.MoveTo            oled_draw.o
    0x080018f4   0x080018f4   0x00000002   Code   RO          252    i.NMI_Handler       stm32f10x_it.o
    0x080018f6   0x080018f6   0x00000002   PAD
    0x080018f8   0x080018f8   0x00000064   Code   RO          548    i.NVIC_Init         misc.o
    0x0800195c   0x0800195c   0x00000014   Code   RO          549    i.NVIC_PriorityGroupConfig  misc.o
    0x08001970   0x08001970   0x00000034   Code   RO         3327    i.OLED_CLS          oled_driver.o
    0x080019a4   0x080019a4   0x00000038   Code   RO         3328    i.OLED_FILL         oled_driver.o
    0x080019dc   0x080019dc   0x000000b2   Code   RO         3329    i.OLED_Init         oled_driver.o
    0x08001a8e   0x08001a8e   0x00000002   PAD
    0x08001a90   0x08001a90   0x00000094   Code   RO            2    i.OLED_Polygon_task  main.o
    0x08001b24   0x08001b24   0x00000048   Code   RO            3    i.OLED_TEST_task    main.o
    0x08001b6c   0x08001b6c   0x00000044   Code   RO            4    i.OLED_WATCH_task   main.o
    0x08001bb0   0x08001bb0   0x00000074   Code   RO         3332    i.OLED_WR_Byte      oled_driver.o
    0x08001c24   0x08001c24   0x0000011c   Code   RO         3073    i.OledPrintf        oled_debug.o
    0x08001d40   0x08001d40   0x00000018   Code   RO            5    i.OneShotCallback   main.o
    0x08001d58   0x08001d58   0x00000018   Code   RO          726    i.RCC_APB2PeriphClockCmd  stm32f10x_rcc.o
    0x08001d70   0x08001d70   0x00000094   Code   RO          734    i.RCC_GetClocksFreq  stm32f10x_rcc.o
    0x08001e04   0x08001e04   0x00000020   Code   RO         2932    i.ReadByteBuffer    oled_buffer.o
    0x08001e24   0x08001e24   0x000000ca   Code   RO         2789    i.Rotate            oled_basic.o
    0x08001eee   0x08001eee   0x00000108   Code   RO         3425    i.RoundClock        test.o
    0x08001ff6   0x08001ff6   0x00000002   PAD
    0x08001ff8   0x08001ff8   0x0000005c   Code   RO         3333    i.SPI_Configuration  oled_driver.o
    0x08002054   0x08002054   0x0000000c   Code   RO         2790    i.SetAnggleDir      oled_basic.o
    0x08002060   0x08002060   0x0000003c   Code   RO         2791    i.SetAngle          oled_basic.o
    0x0800209c   0x0800209c   0x0000000c   Code   RO         3009    i.SetDrawColor      oled_color.o
    0x080020a8   0x080020a8   0x0000000c   Code   RO         3010    i.SetFillcolor      oled_color.o
    0x080020b4   0x080020b4   0x0000000c   Code   RO         3388    i.SetFontSize       oled_font.o
    0x080020c0   0x080020c0   0x00000050   Code   RO         2933    i.SetPointBuffer    oled_buffer.o
    0x08002110   0x08002110   0x0000000c   Code   RO         2792    i.SetRotateCenter   oled_basic.o
    0x0800211c   0x0800211c   0x0000001c   Code   RO         2793    i.SetRotateValue    oled_basic.o
    0x08002138   0x08002138   0x000000a8   Code   RO          319    i.SetSysClockTo72   system_stm32f10x.o
    0x080021e0   0x080021e0   0x0000011c   Code   RO         3426    i.ShowPolygon       test.o
    0x080022fc   0x080022fc   0x00000036   Code   RO         3429    i.ShowWatch         test.o
    0x08002332   0x08002332   0x00000018   Code   RO          552    i.SysTick_CLKSourceConfig  misc.o
    0x0800234a   0x0800234a   0x00000014   Code   RO          409    i.SysTick_Handler   delay.o
    0x0800235e   0x0800235e   0x00000002   PAD
    0x08002360   0x08002360   0x00000050   Code   RO          321    i.SystemInit        system_stm32f10x.o
    0x080023b0   0x080023b0   0x0000003c   Code   RO          360    i.TIM3_IRQHandler   timer.o
    0x080023ec   0x080023ec   0x0000003c   Code   RO          362    i.TIM5_IRQHandler   timer.o
    0x08002428   0x08002428   0x00000006   Code   RO         1111    i.TIM_ClearITPendingBit  stm32f10x_tim.o
    0x0800242e   0x0800242e   0x00000018   Code   RO         1137    i.TIM_GetITStatus   stm32f10x_tim.o
    0x08002446   0x08002446   0x00000002   PAD
    0x08002448   0x08002448   0x00000064   Code   RO          486    i.USART1_IRQHandler  usart.o
    0x080024ac   0x080024ac   0x00000014   Code   RO          926    i.USART_Cmd         stm32f10x_usart.o
    0x080024c0   0x080024c0   0x0000003e   Code   RO          930    i.USART_GetITStatus  stm32f10x_usart.o
    0x080024fe   0x080024fe   0x00000030   Code   RO          932    i.USART_ITConfig    stm32f10x_usart.o
    0x0800252e   0x0800252e   0x00000002   PAD
    0x08002530   0x08002530   0x000000ac   Code   RO          933    i.USART_Init        stm32f10x_usart.o
    0x080025dc   0x080025dc   0x00000008   Code   RO          940    i.USART_ReceiveData  stm32f10x_usart.o
    0x080025e4   0x080025e4   0x00000004   Code   RO         2794    i.UpdateScreen      oled_basic.o
    0x080025e8   0x080025e8   0x0000000c   Code   RO         3041    i.UpdateScreenBuffer  oled_config.o
    0x080025f4   0x080025f4   0x00000004   Code   RO         2937    i.UpdateScreenDisplay  oled_buffer.o
    0x080025f8   0x080025f8   0x00000002   Code   RO          253    i.UsageFault_Handler  stm32f10x_it.o
    0x080025fa   0x080025fa   0x00000002   PAD
    0x080025fc   0x080025fc   0x00000020   Code   RO         2938    i.WriteByteBuffer   oled_buffer.o
    0x0800261c   0x0800261c   0x00000006   Code   RO         3334    i.WriteCmd          oled_driver.o
    0x08002622   0x08002622   0x00000006   Code   RO         3335    i.WriteDat          oled_driver.o
    0x08002628   0x08002628   0x00000028   Code   RO         3758    i.__ARM_fpclassify  m_ws.l(fpclassify.o)
    0x08002650   0x08002650   0x00000388   Code   RO         3711    i.__ieee754_rem_pio2  m_ws.l(rred.o)
    0x080029d8   0x080029d8   0x000000fc   Code   RO         3693    i.__kernel_cos      m_ws.l(cos_i.o)
    0x08002ad4   0x08002ad4   0x000000aa   Code   RO         3760    i.__kernel_poly     m_ws.l(poly.o)
    0x08002b7e   0x08002b7e   0x00000002   PAD
    0x08002b80   0x08002b80   0x000000ec   Code   RO         3716    i.__kernel_sin      m_ws.l(sin_i.o)
    0x08002c6c   0x08002c6c   0x00000006   Code   RO         3697    i.__mathlib_dbl_infnan  m_ws.l(dunder.o)
    0x08002c72   0x08002c72   0x00000004   Code   RO         3698    i.__mathlib_dbl_infnan2  m_ws.l(dunder.o)
    0x08002c76   0x08002c76   0x0000000c   Code   RO         3699    i.__mathlib_dbl_invalid  m_ws.l(dunder.o)
    0x08002c82   0x08002c82   0x00000002   PAD
    0x08002c84   0x08002c84   0x00000010   Code   RO         3702    i.__mathlib_dbl_underflow  m_ws.l(dunder.o)
    0x08002c94   0x08002c94   0x00000002   Code   RO          487    i._sys_exit         usart.o
    0x08002c96   0x08002c96   0x00000002   PAD
    0x08002c98   0x08002c98   0x00000220   Code   RO         3684    i.atan              m_ws.l(atan.o)
    0x08002eb8   0x08002eb8   0x0000019c   Code   RO         3580    i.atan2             m_ws.l(atan2.o)
    0x08003054   0x08003054   0x0000009c   Code   RO         3588    i.cos               m_ws.l(cos.o)
    0x080030f0   0x080030f0   0x00000048   Code   RO          410    i.delay_init        delay.o
    0x08003138   0x08003138   0x00000038   Code   RO          411    i.delay_ms          delay.o
    0x08003170   0x08003170   0x00000034   Code   RO          412    i.delay_us          delay.o
    0x080031a4   0x080031a4   0x000004b8   Code   RO         3430    i.demo              test.o
    0x0800365c   0x0800365c   0x00000018   Code   RO          488    i.fputc             usart.o
    0x08003674   0x08003674   0x00000034   Code   RO            6    i.key_task          main.o
    0x080036a8   0x080036a8   0x0000000e   Code   RO         3076    i.m_pow             oled_debug.o
    0x080036b6   0x080036b6   0x00000002   PAD
    0x080036b8   0x080036b8   0x00000050   Code   RO         3077    i.m_putchar         oled_debug.o
    0x08003708   0x08003708   0x00000014   Code   RO         3078    i.m_putstr          oled_debug.o
    0x0800371c   0x0800371c   0x00000054   Code   RO            7    i.main              main.o
    0x08003770   0x08003770   0x00000024   Code   RO         2795    i.mySqrt            oled_basic.o
    0x08003794   0x08003794   0x00000010   Code   RO         2796    i.oled_pow          oled_basic.o
    0x080037a4   0x080037a4   0x00000004   Code   RO         2797    i.pgm_read_byte     oled_basic.o
    0x080037a8   0x080037a8   0x00000070   Code   RO         2187    i.prvAddCurrentTaskToDelayedList  tasks.o
    0x08003818   0x08003818   0x000000d0   Code   RO         2188    i.prvAddNewTaskToReadyList  tasks.o
    0x080038e8   0x080038e8   0x00000050   Code   RO         2532    i.prvCheckForValidListAndQueue  timers.o
    0x08003938   0x08003938   0x00000054   Code   RO         2189    i.prvCheckTasksWaitingTermination  tasks.o
    0x0800398c   0x0800398c   0x00000026   Code   RO         1966    i.prvCopyDataFromQueue  queue.o
    0x080039b2   0x080039b2   0x0000006c   Code   RO         1967    i.prvCopyDataToQueue  queue.o
    0x08003a1e   0x08003a1e   0x00000014   Code   RO         2190    i.prvDeleteTCB      tasks.o
    0x08003a32   0x08003a32   0x00000002   PAD
    0x08003a34   0x08003a34   0x0000004c   Code   RO         2652    i.prvHeapInit       heap_4.o
    0x08003a80   0x08003a80   0x00000028   Code   RO         2191    i.prvIdleTask       tasks.o
    0x08003aa8   0x08003aa8   0x000000c0   Code   RO         2192    i.prvInitialiseNewTask  tasks.o
    0x08003b68   0x08003b68   0x0000004c   Code   RO         2653    i.prvInsertBlockIntoFreeList  heap_4.o
    0x08003bb4   0x08003bb4   0x00000038   Code   RO         2533    i.prvInsertTimerInActiveList  timers.o
    0x08003bec   0x08003bec   0x0000001a   Code   RO         1968    i.prvIsQueueEmpty   queue.o
    0x08003c06   0x08003c06   0x00000002   PAD
    0x08003c08   0x08003c08   0x00000090   Code   RO         1969    i.prvNotifyQueueSetContainer  queue.o
    0x08003c98   0x08003c98   0x00000060   Code   RO         2534    i.prvProcessExpiredTimer  timers.o
    0x08003cf8   0x08003cf8   0x000000f0   Code   RO         2535    i.prvProcessReceivedCommands  timers.o
    0x08003de8   0x08003de8   0x0000006c   Code   RO         2536    i.prvProcessTimerOrBlockTask  timers.o
    0x08003e54   0x08003e54   0x00000020   Code   RO         2194    i.prvResetNextTaskUnblockTime  tasks.o
    0x08003e74   0x08003e74   0x00000028   Code   RO         2537    i.prvSampleTimeNow  timers.o
    0x08003e9c   0x08003e9c   0x0000006c   Code   RO         2538    i.prvSwitchTimerLists  timers.o
    0x08003f08   0x08003f08   0x00000064   Code   RO         2702    i.prvTaskExitError  port.o
    0x08003f6c   0x08003f6c   0x00000054   Code   RO         2195    i.prvTaskIsTaskSuspended  tasks.o
    0x08003fc0   0x08003fc0   0x00000028   Code   RO         2539    i.prvTimerTask      timers.o
    0x08003fe8   0x08003fe8   0x00000078   Code   RO         1970    i.prvUnlockQueue    queue.o
    0x08004060   0x08004060   0x00000114   Code   RO         2654    i.pvPortMalloc      heap_4.o
    0x08004174   0x08004174   0x00000018   Code   RO         2196    i.pvTaskIncrementMutexHeldCount  tasks.o
    0x0800418c   0x0800418c   0x00000024   Code   RO         2703    i.pxPortInitialiseStack  port.o
    0x080041b0   0x080041b0   0x000000a0   Code   RO         3596    i.sin               m_ws.l(sin.o)
    0x08004250   0x08004250   0x000000a4   Code   RO            8    i.start_task        main.o
    0x080042f4   0x080042f4   0x000000a0   Code   RO          489    i.uart_init         usart.o
    0x08004394   0x08004394   0x00000024   Code   RO         1929    i.uxListRemove      list.o
    0x080043b8   0x080043b8   0x00000016   Code   RO         1930    i.vListInitialise   list.o
    0x080043ce   0x080043ce   0x00000006   Code   RO         1931    i.vListInitialiseItem  list.o
    0x080043d4   0x080043d4   0x00000030   Code   RO         1932    i.vListInsert       list.o
    0x08004404   0x08004404   0x00000018   Code   RO         1933    i.vListInsertEnd    list.o
    0x0800441c   0x0800441c   0x00000078   Code   RO         2705    i.vPortEnterCritical  port.o
    0x08004494   0x08004494   0x00000064   Code   RO         2706    i.vPortExitCritical  port.o
    0x080044f8   0x080044f8   0x0000009c   Code   RO         2655    i.vPortFree         heap_4.o
    0x08004594   0x08004594   0x00000020   Code   RO         2707    i.vPortSetupTimerInterrupt  port.o
    0x080045b4   0x080045b4   0x0000008c   Code   RO         2708    i.vPortValidateInterruptPriority  port.o
    0x08004640   0x08004640   0x00000024   Code   RO         1976    i.vQueueAddToRegistry  queue.o
    0x08004664   0x08004664   0x00000044   Code   RO         1980    i.vQueueWaitForMessageRestricted  queue.o
    0x080046a8   0x080046a8   0x0000006c   Code   RO         2204    i.vTaskDelay        tasks.o
    0x08004714   0x08004714   0x000000cc   Code   RO         2206    i.vTaskDelete       tasks.o
    0x080047e0   0x080047e0   0x0000000c   Code   RO         2210    i.vTaskMissedYield  tasks.o
    0x080047ec   0x080047ec   0x00000054   Code   RO         2212    i.vTaskPlaceOnEventList  tasks.o
    0x08004840   0x08004840   0x0000005c   Code   RO         2213    i.vTaskPlaceOnEventListRestricted  tasks.o
    0x0800489c   0x0800489c   0x00000084   Code   RO         2215    i.vTaskPriorityInherit  tasks.o
    0x08004920   0x08004920   0x000000a0   Code   RO         2217    i.vTaskResume       tasks.o
    0x080049c0   0x080049c0   0x00000048   Code   RO         2219    i.vTaskSetTimeOutState  tasks.o
    0x08004a08   0x08004a08   0x00000094   Code   RO         2220    i.vTaskStartScheduler  tasks.o
    0x08004a9c   0x08004a9c   0x000000d0   Code   RO         2221    i.vTaskSuspend      tasks.o
    0x08004b6c   0x08004b6c   0x00000010   Code   RO         2222    i.vTaskSuspendAll   tasks.o
    0x08004b7c   0x08004b7c   0x0000007c   Code   RO         2223    i.vTaskSwitchContext  tasks.o
    0x08004bf8   0x08004bf8   0x00000078   Code   RO         2709    i.xPortStartScheduler  port.o
    0x08004c70   0x08004c70   0x0000002c   Code   RO         2710    i.xPortSysTickHandler  port.o
    0x08004c9c   0x08004c9c   0x00000078   Code   RO         1985    i.xQueueGenericCreate  queue.o
    0x08004d14   0x08004d14   0x00000184   Code   RO         1986    i.xQueueGenericReceive  queue.o
    0x08004e98   0x08004e98   0x000000a8   Code   RO         1987    i.xQueueGenericReset  queue.o
    0x08004f40   0x08004f40   0x00000188   Code   RO         1988    i.xQueueGenericSend  queue.o
    0x080050c8   0x080050c8   0x000000e0   Code   RO         1989    i.xQueueGenericSendFromISR  queue.o
    0x080051a8   0x080051a8   0x00000088   Code   RO         2224    i.xTaskCheckForTimeOut  tasks.o
    0x08005230   0x08005230   0x00000056   Code   RO         2225    i.xTaskCreate       tasks.o
    0x08005286   0x08005286   0x00000002   PAD
    0x08005288   0x08005288   0x0000001c   Code   RO         2229    i.xTaskGetSchedulerState  tasks.o
    0x080052a4   0x080052a4   0x0000000c   Code   RO         2230    i.xTaskGetTickCount  tasks.o
    0x080052b0   0x080052b0   0x000000e8   Code   RO         2232    i.xTaskIncrementTick  tasks.o
    0x08005398   0x08005398   0x000000b4   Code   RO         2235    i.xTaskPriorityDisinherit  tasks.o
    0x0800544c   0x0800544c   0x00000098   Code   RO         2236    i.xTaskRemoveFromEventList  tasks.o
    0x080054e4   0x080054e4   0x000000e4   Code   RO         2238    i.xTaskResumeAll    tasks.o
    0x080055c8   0x080055c8   0x00000074   Code   RO         2542    i.xTimerCreate      timers.o
    0x0800563c   0x0800563c   0x00000074   Code   RO         2543    i.xTimerCreateTimerTask  timers.o
    0x080056b0   0x080056b0   0x00000090   Code   RO         2544    i.xTimerGenericCommand  timers.o
    0x08005740   0x08005740   0x00000062   Code   RO         3531    x$fpl$d2f           fz_ws.l(d2f.o)
    0x080057a2   0x080057a2   0x00000002   PAD
    0x080057a4   0x080057a4   0x00000150   Code   RO         3533    x$fpl$dadd          fz_ws.l(daddsub_clz.o)
    0x080058f4   0x080058f4   0x00000010   Code   RO         3666    x$fpl$dcheck1       fz_ws.l(dcheck1.o)
    0x08005904   0x08005904   0x00000018   Code   RO         3750    x$fpl$dcmpinf       fz_ws.l(dcmpi.o)
    0x0800591c   0x0800591c   0x000002b0   Code   RO         3540    x$fpl$ddiv          fz_ws.l(ddiv.o)
    0x08005bcc   0x08005bcc   0x00000078   Code   RO         3668    x$fpl$deqf          fz_ws.l(deqf.o)
    0x08005c44   0x08005c44   0x0000005e   Code   RO         3543    x$fpl$dfix          fz_ws.l(dfix.o)
    0x08005ca2   0x08005ca2   0x0000002e   Code   RO         3548    x$fpl$dflt          fz_ws.l(dflt_clz.o)
    0x08005cd0   0x08005cd0   0x00000026   Code   RO         3547    x$fpl$dfltu         fz_ws.l(dflt_clz.o)
    0x08005cf6   0x08005cf6   0x00000002   PAD
    0x08005cf8   0x08005cf8   0x00000154   Code   RO         3553    x$fpl$dmul          fz_ws.l(dmul.o)
    0x08005e4c   0x08005e4c   0x0000009c   Code   RO         3670    x$fpl$dnaninf       fz_ws.l(dnaninf.o)
    0x08005ee8   0x08005ee8   0x0000000c   Code   RO         3672    x$fpl$dretinf       fz_ws.l(dretinf.o)
    0x08005ef4   0x08005ef4   0x00000016   Code   RO         3534    x$fpl$drsb          fz_ws.l(daddsub_clz.o)
    0x08005f0a   0x08005f0a   0x00000002   PAD
    0x08005f0c   0x08005f0c   0x000001d4   Code   RO         3535    x$fpl$dsub          fz_ws.l(daddsub_clz.o)
    0x080060e0   0x080060e0   0x00000056   Code   RO         3555    x$fpl$f2d           fz_ws.l(f2d.o)
    0x08006136   0x08006136   0x00000002   PAD
    0x08006138   0x08006138   0x000000c4   Code   RO         3557    x$fpl$fadd          fz_ws.l(faddsub_clz.o)
    0x080061fc   0x080061fc   0x0000000c   Code   RO         3674    x$fpl$fcheck1       fz_ws.l(fcheck1.o)
    0x08006208   0x08006208   0x00000018   Code   RO         3752    x$fpl$fcmpinf       fz_ws.l(fcmpi.o)
    0x08006220   0x08006220   0x00000184   Code   RO         3564    x$fpl$fdiv          fz_ws.l(fdiv.o)
    0x080063a4   0x080063a4   0x00000030   Code   RO         3568    x$fpl$fflt          fz_ws.l(fflt_clz.o)
    0x080063d4   0x080063d4   0x00000026   Code   RO         3567    x$fpl$ffltu         fz_ws.l(fflt_clz.o)
    0x080063fa   0x080063fa   0x00000002   PAD
    0x080063fc   0x080063fc   0x00000068   Code   RO         3676    x$fpl$fleqf         fz_ws.l(fleqf.o)
    0x08006464   0x08006464   0x0000008c   Code   RO         3678    x$fpl$fnaninf       fz_ws.l(fnaninf.o)
    0x080064f0   0x080064f0   0x0000000a   Code   RO         3680    x$fpl$fretinf       fz_ws.l(fretinf.o)
    0x080064fa   0x080064fa   0x00000062   Code   RO         3573    x$fpl$frleqf        fz_ws.l(frleqf.o)
    0x0800655c   0x0800655c   0x000000ea   Code   RO         3559    x$fpl$fsub          fz_ws.l(faddsub_clz.o)
    0x08006646   0x08006646   0x00000064   Code   RO         3756    x$fpl$retnan        fz_ws.l(retnan.o)
    0x080066aa   0x080066aa   0x0000005c   Code   RO         3575    x$fpl$scalbn        fz_ws.l(scalbn.o)
    0x08006706   0x08006706   0x0000004c   Code   RO         3577    x$fpl$scalbnf       fz_ws.l(scalbnf.o)
    0x08006752   0x08006752   0x00000030   Code   RO         3779    x$fpl$trapveneer    fz_ws.l(trapv.o)
    0x08006782   0x08006782   0x00000000   Code   RO         3682    x$fpl$usenofp       fz_ws.l(usenofp.o)
    0x08006782   0x08006782   0x00000020   Data   RO         2912    .constdata          oled_bmp.o
    0x080067a2   0x080067a2   0x00000080   Data   RO         2913    .constdata          oled_bmp.o
    0x08006822   0x08006822   0x00000200   Data   RO         2914    .constdata          oled_bmp.o
    0x08006a22   0x08006a22   0x00000500   Data   RO         3390    .constdata          oled_font.o
    0x08006f22   0x08006f22   0x000005f0   Data   RO         3391    .constdata          oled_font.o
    0x08007512   0x08007512   0x00000006   PAD
    0x08007518   0x08007518   0x00000098   Data   RO         3685    .constdata          m_ws.l(atan.o)
    0x080075b0   0x080075b0   0x00000030   Data   RO         3694    .constdata          m_ws.l(cos_i.o)
    0x080075e0   0x080075e0   0x00000008   Data   RO         3710    .constdata          m_ws.l(qnan.o)
    0x080075e8   0x080075e8   0x000000c8   Data   RO         3713    .constdata          m_ws.l(rred.o)
    0x080076b0   0x080076b0   0x00000028   Data   RO         3717    .constdata          m_ws.l(sin_i.o)
    0x080076d8   0x080076d8   0x00000020   Data   RO         3850    Region$$Table       anon$$obj.o


    Execution Region ER_RW (Exec base: 0x20000000, Load base: 0x080076f8, Size: 0x000000fc, Max: 0xffffffff, ABSOLUTE)

    Exec Addr    Load Addr    Size         Type   Attr      Idx    E Section Name        Object

    0x20000000   0x080076f8   0x00000020   Data   RW           10    .data               main.o
    0x20000020   0x08007718   0x00000014   Data   RW          322    .data               system_stm32f10x.o
    0x20000034   0x0800772c   0x00000001   Data   RW          392    .data               key.o
    0x20000035   0x0800772d   0x00000001   PAD
    0x20000036   0x0800772e   0x00000004   Data   RW          414    .data               delay.o
    0x2000003a   0x08007732   0x00000002   Data   RW          491    .data               usart.o
    0x2000003c   0x08007734   0x00000004   Data   RW          492    .data               usart.o
    0x20000040   0x08007738   0x00000014   Data   RW          754    .data               stm32f10x_rcc.o
    0x20000054   0x0800774c   0x0000003c   Data   RW         2241    .data               tasks.o
    0x20000090   0x08007788   0x00000014   Data   RW         2552    .data               timers.o
    0x200000a4   0x0800779c   0x00000018   Data   RW         2660    .data               heap_4.o
    0x200000bc   0x080077b4   0x0000000c   Data   RW         2711    .data               port.o
    0x200000c8   0x080077c0   0x00000018   Data   RW         2799    .data               oled_basic.o
    0x200000e0   0x080077d8   0x00000001   Data   RW         2940    .data               oled_buffer.o
    0x200000e1   0x080077d9   0x00000002   Data   RW         3011    .data               oled_color.o
    0x200000e3   0x080077db   0x00000001   PAD
    0x200000e4   0x080077dc   0x0000000c   Data   RW         3079    .data               oled_debug.o
    0x200000f0   0x080077e8   0x00000008   Data   RW         3153    .data               oled_draw.o
    0x200000f8   0x080077f0   0x00000002   Data   RW         3393    .data               oled_font.o


    Execution Region ER_ZI (Exec base: 0x200000fc, Load base: 0x080077f4, Size: 0x00006274, Max: 0xffffffff, ABSOLUTE)

    Exec Addr    Load Addr    Size         Type   Attr      Idx    E Section Name        Object

    0x200000fc        -       0x000000c8   Zero   RW          490    .bss                usart.o
    0x200001c4        -       0x00000040   Zero   RW         2000    .bss                queue.o
    0x20000204        -       0x000002e4   Zero   RW         2240    .bss                tasks.o
    0x200004e8        -       0x00000028   Zero   RW         2551    .bss                timers.o
    0x20000510        -       0x00005000   Zero   RW         2659    .bss                heap_4.o
    0x20005510        -       0x00000800   Zero   RW         2939    .bss                oled_buffer.o
    0x20005d10        -       0x00000060   Zero   RW         3763    .bss                c_w.l(libspace.o)
    0x20005d70        -       0x00000200   Zero   RW          542    HEAP                startup_stm32f10x_hd.o
    0x20005f70        -       0x00000400   Zero   RW          541    STACK               startup_stm32f10x_hd.o


==============================================================================

Image component sizes


      Code (inc. data)   RO Data    RW Data    ZI Data      Debug   Object Name

       200         20          0          4          0       2253   delay.o
         0          0          0          0          0       9284   event_groups.o
       584        138          0         24      20480       3819   heap_4.o
       228         22          0          1          0       1150   key.o
        80         10          0          0          0        479   led.o
       136          0          0          0          0       2838   list.o
       612        238          0         32          0     270317   main.o
       144         16          0          0          0       1977   misc.o
       672         44          0         24          0       8543   oled_basic.o
         0          0        672          0          0        684   oled_bmp.o
       164         40          0          1       2048       3482   oled_buffer.o
        48         24          0          2          0       1988   oled_color.o
        26          6          0          0          0        878   oled_config.o
       398         12          0         12          0       3992   oled_debug.o
      3564         36          0          8          0      21500   oled_draw.o
       506         12          0          0          0       4070   oled_driver.o
        36         18       2800          2          0       2437   oled_font.o
       842        312          0         12          0       9745   port.o
      1832        236          0          0         64      14985   queue.o
        64         26        304          0       1536        776   startup_stm32f10x_hd.o
       178          0          0          0          0       3596   stm32f10x_gpio.o
        12          0          0          0          0       2297   stm32f10x_it.o
       172         22          0         20          0       3817   stm32f10x_rcc.o
        30          0          0          0          0       2517   stm32f10x_tim.o
       310          6          0          0          0       5018   stm32f10x_usart.o
         0          0          0          0          0         32   sys.o
       248         24          0         20          0       1617   system_stm32f10x.o
      3210        812          0         60        740      29856   tasks.o
      1810         54          0          0          0       3918   test.o
       120         52          0          0          0        924   timer.o
      1144        260          0         20         40       9214   timers.o
       286         26          0          6        200       4008   usart.o

    ----------------------------------------------------------------------
     17692       2466       3814        252      25108     432011   Object Totals
         0          0         32          0          0          0   (incl. Generated)
        36          0          6          4          0          0   (incl. Padding)

    ----------------------------------------------------------------------

      Code (inc. data)   RO Data    RW Data    ZI Data      Debug   Library Member Name

         8          0          0          0          0         68   __main.o
       104          0          0          0          0         84   __printf.o
         0          0          0          0          0          0   __rtentry.o
        12          0          0          0          0          0   __rtentry2.o
         6          0          0          0          0          0   __rtentry4.o
        52          8          0          0          0          0   __scatter.o
        26          0          0          0          0          0   __scatter_copy.o
        28          0          0          0          0          0   __scatter_zi.o
        44          0          0          0          0        108   _printf_char.o
        48          6          0          0          0         96   _printf_char_common.o
        36          4          0          0          0         80   _printf_char_file.o
         6          0          0          0          0          0   _printf_d.o
       120         16          0          0          0         92   _printf_dec.o
       178          0          0          0          0         88   _printf_intcommon.o
         0          0          0          0          0          0   _printf_percent.o
         4          0          0          0          0          0   _printf_percent_end.o
         6          0          0          0          0          0   _printf_s.o
        82          0          0          0          0         80   _printf_str.o
        22          0          0          0          0        100   _rserrno.o
        16          0          0          0          0         68   aeabi_memset.o
        18          0          0          0          0         80   exit.o
         8          0          0          0          0         68   ferror.o
         6          0          0          0          0        152   heapauxi.o
         2          0          0          0          0          0   libinit.o
         2          0          0          0          0          0   libinit2.o
         2          0          0          0          0          0   libshutdown.o
         2          0          0          0          0          0   libshutdown2.o
         8          4          0          0         96         68   libspace.o
        24          4          0          0          0         84   noretval__2printf.o
         8          4          0          0          0         68   rt_errno_addr_intlibspace.o
        68          0          0          0          0         68   rt_memclr.o
        78          0          0          0          0         80   rt_memclr_w.o
       138          0          0          0          0         68   rt_memcpy_v6.o
       100          0          0          0          0         80   rt_memcpy_w.o
         2          0          0          0          0          0   rtexit.o
        10          0          0          0          0          0   rtexit2.o
        62          0          0          0          0         76   strlen.o
        74          0          0          0          0         80   sys_stackheap_outer.o
         2          0          0          0          0         68   use_no_semi.o
         2          0          0          0          0         68   use_no_semi_2.o
        98          4          0          0          0         92   d2f.o
       826         16          0          0          0        348   daddsub_clz.o
        16          4          0          0          0         68   dcheck1.o
        24          0          0          0          0         68   dcmpi.o
       688        140          0          0          0        208   ddiv.o
       120          4          0          0          0         92   deqf.o
        94          4          0          0          0         92   dfix.o
        84          0          0          0          0        136   dflt_clz.o
       340         12          0          0          0        104   dmul.o
       156          4          0          0          0         92   dnaninf.o
        12          0          0          0          0         68   dretinf.o
        86          4          0          0          0         84   f2d.o
       430          8          0          0          0        168   faddsub_clz.o
        12          4          0          0          0         68   fcheck1.o
        24          0          0          0          0         68   fcmpi.o
       388         76          0          0          0         96   fdiv.o
        86          0          0          0          0        136   fflt_clz.o
       104          4          0          0          0         84   fleqf.o
       140          4          0          0          0         84   fnaninf.o
        10          0          0          0          0         68   fretinf.o
        98          0          0          0          0         68   frleqf.o
       100          0          0          0          0         68   retnan.o
        92          0          0          0          0         68   scalbn.o
        76          0          0          0          0         68   scalbnf.o
        48          0          0          0          0         68   trapv.o
         0          0          0          0          0          0   usenofp.o
       544         70        152          0          0        124   atan.o
       412         38          0          0          0        144   atan2.o
       156          8          0          0          0        104   cos.o
       252         22         48          0          0        124   cos_i.o
        38          6          0          0          0        272   dunder.o
        40          0          0          0          0         68   fpclassify.o
       170          0          0          0          0         96   poly.o
         0          0          8          0          0          0   qnan.o
       904         76        200          0          0        140   rred.o
       160         10          0          0          0        108   sin.o
       236         12         40          0          0        128   sin_i.o

    ----------------------------------------------------------------------
      8502        576        448          0         96       5844   Library Totals
        24          0          0          0          0          0   (incl. Padding)

    ----------------------------------------------------------------------

      Code (inc. data)   RO Data    RW Data    ZI Data      Debug   Library Name

      1414         46          0          0         96       1972   c_w.l
      4152        288          0          0          0       2564   fz_ws.l
      2912        242        448          0          0       1308   m_ws.l

    ----------------------------------------------------------------------
      8502        576        448          0         96       5844   Library Totals

    ----------------------------------------------------------------------

==============================================================================


      Code (inc. data)   RO Data    RW Data    ZI Data      Debug   

     26194       3042       4262        252      25204     425475   Grand Totals
     26194       3042       4262        252      25204     425475   ELF Image Totals
     26194       3042       4262        252          0          0   ROM Totals

==============================================================================

    Total RO  Size (Code + RO Data)                30456 (  29.74kB)
    Total RW  Size (RW Data + ZI Data)             25456 (  24.86kB)
    Total ROM Size (Code + RO Data + RW Data)      30708 (  29.99kB)

==============================================================================

