:020000040800F2
:100000007063002075020008F518000889170008C1
:10001000E518000899070008F9250008000000000D
:10002000000000000000000000000000DD010008EA
:10003000B107000800000000210200084B2300085F
:100040008F0200088F0200088F0200088F0200084C
:100050008F0200088F0200088F0200088F0200083C
:100060008F0200088F0200088F0200088F0200082C
:100070008F0200088F0200088F0200088F0200081C
:100080008F0200088F0200088F0200088F0200080C
:100090008F0200088F0200088F0200088F020008FC
:1000A0008F0200088F0200088F0200088F020008EC
:1000B0008F020008B12300088F0200088F02000899
:1000C0008F0200088F0200088F0200088F020008CC
:1000D0008F020008492400088F0200088F020008E0
:1000E0008F0200088F0200088F0200088F020008AC
:1000F0008F0200088F0200088F0200088F0200089C
:100100008F0200088F020008ED2300088F0200080C
:100110008F0200088F0200088F0200088F0200087B
:100120008F0200088F0200088F0200088F0200086B
:1001300000F002F800F042F80AA090E8000C8244B7
:100140008344AAF10107DA4501D100F037F8AFF294
:10015000090EBAE80F0013F0010F18BFFB1A43F0A5
:10016000010318477475000094750000103A24BF0D
:1001700078C878C1FAD8520724BF30C830C144BF0C
:1001800004680C607047000000230024002500264E
:10019000103A28BF78C1FBD8520728BF30C148BFEA
:1001A0000B607047642900F0F180732900F07282BF
:1001B000002070471FB51FBD10B510BD00F0BEFA7E
:1001C0001146FFF7F7FF03F0A9FA00F0DCFA03B4D9
:1001D000FFF7F2FF03BC02F05DFD0000224B19683F
:1001E0000868B0E8F00F80F30988BFF36F8F4FF015
:1001F000000080F311884EF00D0E704700000000E3
:1002000006480068006880F3088862B661B6BFF3EC
:100210004F8FBFF36F8F00DF00BF00BF08ED00E01E
:10022000EFF30980BFF36F8F0F4B1A6820E9F00FCF
:10023000106008B54FF0500080F31188BFF34F8F66
:10024000BFF36F8F04F09AFC4FF0000080F3118829
:10025000BDE8084019680868B0E8F00F80F3098825
:10026000BFF36F8F704700BF54000020EFF305808D
:10027000704700000948804709480047FEE7FEE74D
:10028000FEE7FEE7FEE7FEE7FEE7FEE7FEE7FEE746
:1002900004480549054A064B7047000061230008E1
:1002A00031010008705D002070630020705F002045
:1002B000705F0020704700000FB4044910B503AA16
:1002C000029800F0EBF910BC5DF814FB3C00002034
:1002D0002DE9F0410E460446002020622046E168E8
:1002E000884730B3252805D0D4E901219047206AFA
:1002F000401CF2E7E168204600278847050018D037
:10030000A5F14100192802D820354FF40067324684
:10031000294620462760FFF745FF40B1012804D059
:10032000F61D26F007060836D8E7361DD6E728461C
:10033000DAE7206ABDE8F08170B50C460546012A6F
:1003400005D02878800600D5EA69002302E0012361
:1003500005E05B1C934202D2E05C0028F9D1A86959
:10036000E618C01AA861286A184428622846AFF324
:10037000008004E0D5E9012114F8010B9047B44254
:10038000F8D32846AFF3008070BD00002DE9F0419E
:100390000646002410687529314616A510D0AFF323
:1003A0000080002802DA404213A507E031688A077E
:1003B00001D512A502E0490704D511A5012401E0E9
:1003C000AFF3008000210A2206F1240709E0B0FB08
:1003D000F2FCB0FBF2F302FB1C00303078541846FC
:1003E000491C0028F3D123462A463046BDE8F04197
:1003F00000F0CCB8000000002D0000002B00000031
:100400002000000010B5431C02E010F8011B71B180
:100410008107FAD14FF0013202C88C1A8C4314EADA
:10042000C211F9D0C01A0A0603D0C01E10BDC01AEE
:1004300010BD0A0401D0801E10BD0902FCD0401E70
:1004400010BD032A40F2308010F0030C00F015803C
:1004500011F8013BBCF1020F624498BF11F801CBC7
:1004600000F8013B38BF11F8013BA2F1040298BF2C
:1004700000F801CB38BF00F8013B11F0030300F096
:100480001F81083AC0F0088051F8043B083A51F83F
:1004900004CBA0E80810F5E7121D5CBF51F8043B3F
:1004A00040F8043BAFF30080D20724BF11F8013BB2
:1004B00011F801CB48BF11F8012B24BF00F8013B14
:1004C00000F801CB48BF00F8012B704702F0FF0392
:1004D00043EA032242EA024200F002B84FF000026F
:1004E0000429C0F0128010F0030C00F01B80CCF146
:1004F000040CBCF1020F18BF00F8012BA8BF20F8B4
:10050000022BA1EB0C0100F00DB85FEAC17C24BF07
:1005100000F8012B00F8012B48BF00F8012B7047B1
:100520004FF0000200B5134694469646203922BF8C
:10053000A0E80C50A0E80C50B1F12001BFF4F7AFD7
:10054000090728BFA0E80C5048BF0CC05DF804EBB9
:10055000890028BF40F8042B08BF704748BF20F827
:10056000022B11F0804F18BF00F8012B7047704725
:1005700070477047704710B500F0D4F8006810BDA0
:1005800010B5044600F0CEF8046010BD2DE9F04728
:100590000D4699469246044600F1240801688806F3
:1005A00004D5E06921F01001216000E00120A8429B
:1005B00001DD471B00E00027A1697A1902EB090061
:1005C000081AA0612078C00602D42046AFF300804C
:1005D000002608E0D4E901211AF806009047206AB5
:1005E000401C761C20624E45F4DB2078C0060AD5FC
:1005F0002046AFF3008006E0D4E901213020904787
:10060000206A401C2062381EA7F10107F4DC07E0D5
:10061000D4E9012118F805009047206A401C2062A7
:10062000281EA5F10105F3DC2046AFF300802078F9
:10063000000602D50220BDE8F0870120FBE700009C
:1006400001694A1C02610878704700B58FB0CDE996
:1006500001310021059105497944CDE90310114686
:100660006846FFF735FE0FB000BD0000E5FFFFFF55
:1006700010B5436913B1AFF3008001E0FFF75CFEF2
:10068000012010BD127800F124010A7000224A7086
:100690000122EDE711684FF0FF32E9E7074B70B533
:1006A0000D467B44FFF7D1FF0446284600F03EF894
:1006B00010B14FF0FF3070BD204670BDB72F000065
:1006C00010B5203AC0F00B80B1E81850203AA0E8ED
:1006D0001850B1E81850A0E81850BFF4F5AF5FEA21
:1006E000027C24BFB1E81850A0E8185044BF18C9D4
:1006F00018C0BDE810405FEA827C24BF51F8043B7B
:1007000040F8043B08BF7047D20728BF31F8023BCE
:1007100048BF11F8012B28BF20F8023B48BF00F862
:10072000012B704700487047105D0020007B00F0EF
:100730008000704700487047105D00207546FFF745
:10074000F9FFAE4605006946534620F0070085468E
:1007500018B020B5FFF79CFDBDE820404FF0000623
:100760004FF000074FF000084FF0000B21F0070199
:10077000AC46ACE8C009ACE8C009ACE8C009ACE8DC
:10078000C0098D46704710B50446AFF3008020467F
:10079000BDE81040FFF71BBDFEE70020AFF300806F
:1007A00002464FF480610148FFF790BE10550020CB
:1007B000704700002DE9FE4F81469B4690468A46D1
:1007C00068460C9F00F0D8FFDDE9005651464846C8
:1007D00001F09EFC002001F03DFC4FF4B470874214
:1007E00000DD0746002001F03BFC0AEB080422462E
:1007F0004946684600F0A0FFDDE9000101F074F809
:10080000584605F0CFFD0090DFF850B0384605F0AF
:10081000C9FD074610E0009801F022FC2246494637
:1008200001A800F089FFDDE9010101F04BF859460C
:10083000009805F081FC00903846009905F05DFEB7
:10084000E9D309EB0800514601F03CF803B031460A
:100850002846BDE8F04F01F047B800000000A04076
:100860002DE9FE4F92460C9A99468046002901DBFD
:10087000084600E04842C31700EB5373DB10A0EBBF
:10088000C307C81701EB5070C0100190D00800904A
:1008900018EB090F70D4B8F17F0F6DDCD1426BD427
:1008A0003F2969DC002904DA0198C7F10807401ED6
:1008B0000190500702D00098401C0090002658E09C
:1008C00001988519072D57DC15F1020F50DD002422
:1008D0004CE004EB08007F284ADC002845DB002DB3
:1008E0001DDB00F017FF012848D000F013FF00289F
:1008F00008EB04018B46284652D001F083FA0AEB3C
:100900000401029006FB091002F04CFF00FA07F107
:1009100002984140CAB25946284601F06FFE27B3FB
:10092000072D22DA15F1020F1FDD00F0F3FE01287A
:1009300045D000F0EFFE002808EB04018B4605F1DE
:1009400001004FD001F05EFA0AEB0401029006FBB1
:10095000091002F027FFC7F10801C840029948407A
:1009600002465946681C01F049FE641C4C45B0DB48
:10097000761C00988642A3DBBDE8FE8F08EB0401DD
:100980008B46284601F03EFA0AEB0401029006FB72
:10099000091002F007FF0299B8400843C2B2BAE753
:1009A00001F030FA0AEB0401029006FB091002F094
:1009B000F9FE00FA07F1029820EA0102ABE708EB22
:1009C00004018B46681C01F01DFA0AEB0401029039
:1009D00006FB091002F0E6FEC7F10801C8400299C3
:1009E0000843BDE701F00EFA0AEB0401029006FB92
:1009F000091002F0D7FE0146C7F10800C140029875
:100A00008843ADE72DE9F74F86B08A46834600F06C
:100A10008DFE054600F07EFE009000F0A7FE0099D6
:100A20000190884201D0012000E00020059025B30C
:100A3000BBF1800F45DABAF1400F42DA05EB8501D0
:100A400001EB0B0001283CD40AEBC500012838D487
:100A50004FF00008B8F1050F36D00898304900EB88
:100A60008000014401EB080002F09CFE8146002753
:100A70005FEAC9702AD0009829E0BBF1060F20DC9C
:100A8000BAF1780F1DDC0898264E2038C5B2002434
:100A900004EB05100AEB0401325C584601F0AEFD90
:100AA000641C082CF4DB002404EB051030440AEB32
:100AB0000401027A0BF1010001F0A0FD641C082C76
:100AC000F2DB09B0BDE8F08F0020CFE7019805996F
:100AD0000490084318D0002614E00BEB060008FB36
:100AE00005000024039009E00AEB040007FB050160
:100AF000DDE9030201F0E4FA641CE4B2AC42F3D392
:100B0000761CF6B2AE42E8D37F1C4FEA6909082F83
:100B1000AEDB08F10108B8F1060F9BDBD1E700005E
:100B2000226A0008226F00082DE9FC5F804600243D
:100B300003200F4615B2A0EB420006B252E000F0CF
:100B4000E9FD0246791908EB04008946824601F066
:100B5000B7FA00F0DFFD0246A8EB04004946019019
:100B600001F0AEFA00F0D6FD02463919A8EB0500F7
:100B70008B46814601F0A4FA00F0CCFD0246391BF9
:100B80004846009101F09CFA00F0C4FD0246791B32
:100B90008946019801F094FA00F0BCFD02464946EE
:100BA000504601F08DFA00F0B5FD024608EB050055
:100BB0008146009901F084FA00F0ACFD02465946E6
:100BC000484601F07DFA641C24B2002E03DA06EBDD
:100BD0008400801DB1E7601B06EB80000A306D1EAB
:100BE00006B22DB2AC42AADDBDE8FC9F2DE9F84F5C
:100BF0000746500099460E46C2F101084FF0010B1E
:100C0000C0F1000A0025144600F084FD00903EE08B
:100C1000B8F1000F03DB0AF1020AD044641E0BF1A5
:100C2000020B6D1CD8445FEA497009D53119781957
:100C3000009A01F045FA71193819009A01F040FA4A
:100C40005FEA897009D5311B7819009A01F038FAEA
:100C5000711B3819009A01F033FA5FEA097009D55F
:100C60007119381B009A01F02BFA3119781B009A80
:100C700001F026FA5FEAC97009D0711B381B009A8F
:100C800001F01EFA311B781B009A01F019FAA542F7
:100C9000BEDBBDE8F88F00002DE9F04F8BB01C469D
:100CA000804603FB04F002FB02FB00904FEA4B0579
:100CB0004000CDE9065000268A463746654300F0DD
:100CC00029FD02460AEB04018946404601F0F8F985
:100CD00000F020FD02464946404601F0F1F900F0DF
:100CE00019FD0246AAEB04018946404601F0E8F9E5
:100CF00000F010FD02464946404601F0E1F9584631
:100D000004F0CFFFB21E05F0D0FC8146009801919F
:100D10000BFB140004F0C5FF4A46019B04F042FDA2
:100D200004F090FF814634E00798761C0744B9F13F
:100D3000000F03DA0098C119894406E00698641E82
:100D40002D1A00983844411B894400F0E3FC024608
:100D50000AEB040108EB06000191039001F0B0F9E1
:100D600000F0D8FC0246A8EB06000199029001F0C1
:100D7000A7F900F0CFFC0246AAEB04010191039809
:100D800001F09EF900F0C6FC0246DDE9011001F019
:100D900097F9AF42C8DB00990BFB01F004F081FF2B
:100DA000CDE90401601E0BFB00F1484304F079FF1C
:100DB000CDE90201304604F074FF00222B4B04F011
:100DC000F1FC0A9008908946009804F06AFF4B46AF
:100DD000089A04F091FF4B460A9A04F08DFFDDE972
:100DE000022304F0DFFCDDE9042305F08FF804F0B2
:100DF00029FF814634E00698641E2D1AB9F1000FD0
:100E000003DDABEB0501894406E00798761C074437
:100E1000ABEB0500C119894400F07CFC02460AEBEB
:100E2000040108EB06000091029001F049F900F07E
:100E300071FC0246A8EB06000099019001F040F910
:100E400000F068FC0246AAEB04010091029801F050
:100E500037F900F05FFC0246DDE9001001F030F9DF
:100E6000002CC8DC0BB0BDE8F08F00000000E03FB4
:100E70002DE9F0410F460446851800F04BFC06466C
:100E8000002C07DA002405E032463946204601F0FE
:100E900017F9641C802D01DA284600E08020A0426A
:100EA000F2DCBDE8F0812DE9F0410C4607468D18D3
:100EB00000F030FC0646002C07DA002405E032463C
:100EC0002146384601F0FCF8641C402D01DA284622
:100ED00000E04020A042F2DCBDE8F081F8B5144605
:100EE0000646012000EB44000D46C2B2091B304605
:100EF000FFF7D9FF00200090E2B2032329463046D5
:100F000000F001F8F8BD2DE9FF5F804650000F4664
:100F1000C2F101064FF0010BC0F1000A0025144692
:100F2000DDF8389000F0F6FB33E0002E03DB0AF129
:100F3000020A5644641E03980BF1020B6D1C5E44BA
:100F4000C00711D009EB4400401CC2B2391B08EBAA
:100F50000500FFF7A8FF09EB4500401CC2B2791B52
:100F600008EB0400FFF79FFF0398800711D509EBFA
:100F70004400401CC2B2391BA8EB0500FFF793FFE9
:100F800009EB4500401CC2B2791BA8EB0400FFF737
:100F90008AFFA542C9DBBDE8FF9F2DE9FF4F9246BE
:100FA00087B09B4602FB0AF003FB0BF145004E00A5
:100FB00005914FF0000957460390C2F1010106FB6D
:100FC00007F0A1EB0A01CDE9000901FB0BF101FBE0
:100FD0000BF84C4633E009F10100C2B202900898C8
:100FE000A0EB09010798069138440490FFF75BFFD6
:100FF0000298C2B2DDE90610C01B0690FFF753FF4E
:1010000002980899C2B20498FFF74DFF0298089918
:10101000C2B20698FFF747FF019809F10109284479
:101020000190039804442844039008EB44000028EE
:1010300005DD00984444801BB0447F1E0090DDE92C
:1010400000018842C7DA05980190CBF10100A0EBBE
:101050000B004FF000095F4600FB0AF000FB0AF8A6
:101060004C4605FB07FBCDF8009032E0089807F1ED
:10107000010AC11B07980AF0FF024844039102903D
:10108000FFF711FF07980399A0EB09000AF0FF0290
:101090000390FFF708FF0AF0FF0208990298FFF794
:1010A00002FF0AF0FF0208990398FFF7FCFE009880
:1010B00009F1010930440090019804443044019042
:1010C00008EB4400002804DD4444ABEB050BA844C6
:1010D0007F1E00985845C9DD0BB0BDE8F08F2DE9A3
:1010E000F0411F4616460D46044600F060F97B1E8F
:1010F000721E691C601CBDE8F04100F053BA2DE976
:10110000F04F89B04FF0000BDDE912791D46904693
:101110000E460446DA4600F0FDFA049000F000FBAB
:1011200000F0BCFFAE4207DD7019861B851B04EB87
:101130000800041BA0EB04084D450ADD09EB05007F
:10114000A0EB0909A0EB090507EB0800C71BA0EB02
:101150000708AE4207DD7019861B851B04EB0800EB
:10116000041BA0EB04084E4517D12046414680459C
:1011700001DA084601E000DD0C46874201DA384614
:1011800002E0A74200DD3C46211A491CCAB209B060
:101190003146BDE8F04FFFF76BBEA8EB04000790A7
:1011A000A81B0690381B0090A9EB06000290A7EB45
:1011B00008000190A9EB050005904D4501D103956C
:1011C00001E0681E0390374617E00699029A9BFBE0
:1011D000F1F09AFBF2F1079B20449B44009B2144D1
:1011E0009A44884202DD0144081A091A091A491C66
:1011F000CAB23946FFF73CFE7F1C03988742E4DD04
:101200000199781B00FB01FA0098BD1B454318E0CB
:101210000599019B9AFBF1F101EB08000299009AF4
:1012200095FBF1F121449A441544884202DD0144C2
:10123000081A091A091A491CCAB23946FFF718FEDA
:101240007F1C4F45E4DD049809B0BDE8F04F00F085
:1012500025BF2DE9FE4FA2EB000880B201900026C9
:1012600088B200905F1A701E3546B8F1000F02DD9B
:101270004FF0010102E003D14FF000018B4602E084
:101280008346C8F10008002F02DD4FF0010002E0A4
:1012900003D14FF00000824602E08246C7F100070A
:1012A0004046B84501DD044600E03C46601C4FF076
:1012B000000902901AE000F02DFA0246DDE9001064
:1012C00000F0FEFE46443D44A64204DD0198361B74
:1012D000584480B20190A54204DD00982D1B504473
:1012E00080B2009009F101001FFA80F90299894546
:1012F000E1DDBDE8FE8F2DE9F05F1D4691468B468E
:101300008246002600F012FA0700A5F101083446D3
:101310001FD049E0281B401EC1B20A2002F03AFA51
:10132000B9FBF0F10A20B1FBF0F200FB12101EB97C
:10133000444501DA28B101263030C2B20BEBC401BA
:1013400002E00BEBC40120225046FFF75BFB641C5C
:10135000E4B2AC42DED3BDE8F09F281B401EC1B210
:101360000A2002F017FAB9FBF0F10A20B1FBF0F203
:1013700000FB12101EB9444501DA48B10126303095
:10138000C2B207FB04F000EB40010AEB410006E0AB
:1013900007FB04F000EB40010AEB41003022594604
:1013A000FFF730FB641CE4B2AC42D6D3D3E72DE99F
:1013B000F0411C4685180F4606466A1E0B46FFF78D
:1013C00048FF3C44631E6A1E19463046FFF741FF42
:1013D0003246631E39461046FFF73BFF631E6A1E06
:1013E0003946BDE8F0411046FFF733BF2DE9F84F0D
:1013F00090460A9C8146C4F1000B02EB4B0A05198A
:101400001E460F460AF0FF022846FFF731FDB919C4
:1014100000910AF0FF022846491EFFF729FD06EB5E
:101420004B0A3E190AF0FF0231464846FFF73BFDE2
:1014300009EB08070AF0FF023146781EFFF733FD7B
:101440003146284601232246FFF7D0FB3F1B314699
:10145000781E02232246FFF7C9FB0099781E0E1B57
:10146000711E04232246FFF7C1FB711E01B02846FE
:101470002246BDE8F04F0823FFF7B8BB2DE9F0473F
:1014800092460D4607460024C6B201F0FF0900F05F
:101490004DF95FEA00081CD008EB48051AF8042053
:1014A000002A1AD00A2A1AD049463046FFF7AAFA6B
:1014B00006EB4500C6B2641CE4B2EFE729463846A5
:1014C000FFF7A0FA0835782D01DD0025BF1C641C4C
:1014D000E4B21AF80420002AF0D1BDE8F08709EB45
:1014E000C80000F0FF09FEB2E5E72DE9F047984695
:1014F000DDE9085491460E460746FFF7AAFE23464B
:101500002A4641464846FFF7A4FE33463A4621465E
:101510002846BDE8F047FFF79CBE2DE9F84F81460D
:101520000A9C9046654220441E468A4602EB4502CC
:101530000746FFF7D4FD06EB450609EB0800761ECB
:101540000AEB0405001B012322462946401E009693
:10155000FFF7D9FC29463846022322460096FFF7BA
:10156000D2FCBDE8F88F10B500F046FDBDE8104094
:1015700000F034BA70B514460D46064600F0D0F8B7
:1015800000282946304603D000F03CFC204302E00E
:1015900000F038FCA043024629463046BDE87040C2
:1015A00001F02CB82DE9F84F9A460F465144491ED8
:1015B000CB1701EB5371FB17C91007EB5375A1EB68
:1015C000E508802848DC402F46DCF917064607EB83
:1015D000517121F007011044DFF880B0A7EB010939
:1015E000009035E0B8F1000F0ED0C9F1080101EB11
:1015F0000B00314610F8010C00FA09F0C2B2E810F5
:10160000FFF7B8FF01240FE00BEB0A0010F8010C04
:1016100000FA09F0C2B2E81015E004EBE500FF2281
:101620003146FFF7A7FF641C4445F6DB0AEB0700D1
:10163000401EC11700EB517121F00701411A08EB60
:10164000E50011F80B203146FFF794FF0098761C57
:10165000B04201DD802EC5DBBDE8F88FC800002058
:10166000F0B5CC78002204F00F03E40601D58C78A5
:1016700023430C784FF00F0C14F0FF0F4FF0010EC6
:101680001BD005680E880EFA02F42640A64210D13F
:1016900096000CFA06F725EA070703FA06F5CE7856
:1016A0003D43282E02D0482E02D002E0446100E0E3
:1016B0000461521C082AE5D305600A88FF2A1CD958
:1016C0004468002202F108060EFA06F50E882E4044
:1016D000AE420ED196000CFA06F7BC4303FA06F7A9
:1016E000CE783C43282E00D14561CE78482E00D1DB
:1016F0000561521C082AE5D34460F0BD0246002073
:1017000092680A4200D00120704741617047016130
:10171000704700000148007870470000E100002099
:101720000148407870470000E100002001484078FF
:1017300070470000F800002030B585B00A4DCDE9B3
:1017400003120446A86804F0CBFCEA688DE80700A1
:10175000D5E9000104AB03AA00F064FBDDE9030155
:10176000C4E9000105B030BDD00000200148007878
:1017700070470000F80000200249D1E90021C0E9CB
:1017800000217047F0000020FEE7FFF7ECBE0000EC
:1017900008B50121442000F0DFFA1820ADF8000060
:1017A00048208DF8030069460648FFF759FF0120DD
:1017B000ADF8000028208DF8030069460248FFF7C5
:1017C0004FFF08BD00180140000801402DE9F0411D
:1017D000254C264F264D012608B1267001E02078C1
:1017E00078B110212846FFF789FF88B108212846E3
:1017F000FFF784FF60B101213846FFF77FFF012822
:1018000006D010212846FFF779FF01281DD028E0D7
:101810000A2001F091FC0020207010212846FFF7DB
:101820006DFF58B108212846FFF768FF48B1012134
:101830003846FFF763FF012805D012E00120BDE81C
:10184000F0810220FBE70320F9E708212846FFF793
:1018500055FF012805D101213846FFF74FFF00B998
:1018600026700020EBE70000340000200008014053
:101870000018014038B50121482000F06DFA2024FD
:10188000ADF8004010208DF8030003200B4D8DF8BB
:10189000020069462846FFF7E3FE20212846FFF7AD
:1018A00036FFADF80040064C69462046FFF7D8FEEB
:1018B00020212046FFF72BFF38BD0000000C01401F
:1018C0000018014070B5064C0E4605460B46024610
:1018D000D4E90001FFF7BDFCC4E9005670BD00006B
:1018E000F0000020FEE70000014AC2E90001704755
:1018F000F00000207047000030B50F23C278017857
:101900000125F2B1144A126801F1E02102F4E0620B
:10191000C2F5E062120AC2F10404D3404278A24048
:1019200084781C401443220181F80024007800F0E0
:101930001F018D404009800000F1E020C0F80051F7
:1019400030BD01F01F0085404809800000F1E02013
:10195000C0F8805130BD00000CED00E002490843A2
:1019600002490860704700000000FA050CED00E035
:1019700070B5002505F1B000C0B200F04FFE0020A8
:1019800000F04CFE102000F049FE0024002000F082
:1019900048FE641CE4B2802CF8D36D1CEDB2082D17
:1019A000E8D370BD70B50546002606F1B000C0B2A0
:1019B00000F034FE002000F031FE102000F02EFE7A
:1019C000002415F8010B00F02CFE641CE4B2802CFE
:1019D000F7D3761CF6B2082EE7D370BD10B5AE2053
:1019E00000F01CFE202000F019FE102000F016FE72
:1019F000B02000F013FEC82000F010FE002000F020
:101A00000DFE102000F00AFE402000F007FE8120AD
:101A100000F004FEFF2000F001FEA12000F0FEFD1A
:101A2000A62000F0FBFDA82000F0F8FD3F2000F00C
:101A3000F5FDA42000F0F2FDD32000F0EFFD002022
:101A400000F0ECFDD52000F0E9FDF02000F0E6FD0F
:101A5000D92000F0E3FD222000F0E0FDDA2000F0C4
:101A6000DDFD122000F0DAFDDB2000F0D7FD2020A4
:101A700000F0D4FD8D2000F0D1FD142000F0CEFD4B
:101A8000AF2000F0CBFDBDE81040FFF771BF0000B4
:101A900010B500F0A5FBFEF780FE0AA000F0C2F82A
:101AA0000BA000F0BFF810A000F0BCF814A000F0EC
:101AB000B9F818A000F0B6F819488069BDE81040E0
:101AC00002F028BE5465737420456E640D0A000050
:101AD0005468616E6B7320666F722057617463681F
:101AE000696E670D0A00000044585F4564756361C4
:101AF00074696F6E2032312F372F31380D0A000094
:101B00004672656552544F532076392E302E300D73
:101B10000A0000004F4C45444C69620D0A00000069
:101B2000000000201CB501F03DFB02F077FC0949E4
:101B30000120CDE900014202002307A10A4803F079
:101B400077FB04481038C06802F0E4FDBDE81C4093
:101B500002F0A0BC100000204F4C45445F57415498
:101B600043485F7461736B006D1B00081CB500F087
:101B7000C5FB08490120CDE900014202002306A16E
:101B80000A4803F055FB034818380069BDE81C40BB
:101B900002F0C0BD180000204F4C45445F506F6CF0
:101BA00079676F6E5F7461736B000000911A0008B3
:101BB0002DE9F0411A4E054600294FF080013046CC
:101BC00002D0FFF7A4FD01E0FFF79FFD4FF48077FF
:101BD00039463046FFF799FD002410213046FFF7C3
:101BE00094FD28064FF02001304602D5FFF78FFD07
:101BF00001E0FFF78AFD10213046FFF788FD6806F7
:101C0000641C050EE4B2082CE7D339463046FFF7D2
:101C10007EFD3046BDE8F0418021FFF778BD000031
:101C2000000801400FB42DE9F041002407AD72E037
:101C30000A286AD00D2868D0252866D1491C06914B
:101C4000087863285FD0642804D0732852D078289D
:101C50005ED124E080CD002638460A2103E090FBC7
:101C6000F1F0761CF6B20028F9D1344414E0711E6C
:101C70000A2001F019FDB7FBF0F8711E0A2001F0EF
:101C800013FDB7FBF0F100FB117708F13000C0B293
:101C900001F012FD761EF6B2002EE8D138E002CD3A
:101CA0000026084605E0761CC21700EB1270F6B25B
:101CB00000110028F7D13444884618E0711E102026
:101CC00001F0F2FCB8FBF0F0C7B2711E102001F079
:101CD000EBFCB8FBF0F200FB1288092F01D830377B
:101CE00000E05737F8B201F0E7FC761EF6B2002E9E
:101CF000E4D10DE040CD304601F006FD3046FEF760
:101D000081FB044404E015F8040B01F0D5FC641CCD
:101D10000698401C069006990878002888D1074844
:101D20000022816808313F2900DB826000F05AFC04
:101D30002046BDE8F0015DF814FB0000E40000203F
:101D40000449D1F8940118B10020C1F894017047FA
:101D50000120FAE700802142044A0029916901D05C
:101D6000014300E081439161704700000010024090
:101D700030B5204A5168204B11F00C0103D00429E2
:101D800001D0082901D0036012E05168536801F4C2
:101D900070114FF0020413F4803F04EB914102D024
:101DA00053689B0301D5154B00E0134B5943016069
:101DB00051680F2303EA1111114B5C5C0168E1408B
:101DC00041605468072505EA14241C5D21FA04F4D7
:101DD0008460546805EAD4241B5DD940C160526810
:101DE000032303EA9232064B1B1F9A5CB1FBF2F10C
:101DF000016130BD0010024000127A0000093D0070
:101E000044000020044A12780AB1044A00E0044A5F
:101E100002EBC010405C7047E0000020105500202D
:101E2000105900202DE9FF4F83B08946904619686C
:101E300012680398A1EB09014943101A00FB001036
:101E40001E4604F0AFFA01F093FC04F049F90D4688
:101E500031680446A1EB090003F023FF07468A46D8
:101E6000D8F800100398081A03F01BFF3A465346AF
:101E700001F022F882468B46129F039803F011FF6F
:101E8000CDE90010484603F00CFF0291DDE9102374
:101E900081465046594617B103F084FC01E004F036
:101EA00035F88A46074601F0D5F822462B4603F05E
:101EB00023FF02460B46DDE9001003F073FC03F03C
:101EC000C1FEC8F800003846514602F071F92246BA
:101ED0002B4603F011FF02460B464846029903F0D9
:101EE00061FC03F0AFFE306007B0BDE8F08F2DE974
:101EF000FC410D46C1EB051149003C2691FBF6F172
:101F0000C0EB00101746002401EB400004F04AFA31
:101F1000024601231F213F2000F000F91F2231213A
:101F20006846FFF709FCDDE900231F213F20FFF78A
:101F300090F907EB4700470097FBF6F005EB4501EA
:101F400000EB410004F02EFA024601231F213F203E
:101F500000F0E4F81F222A216846FFF7EDFBDDE9D7
:101F600000231F213F20FFF774F9384604F01AFAC6
:101F7000024601231F213F2000F0D0F81F22232119
:101F80006846FFF7D9FBDDE900231F213F20FFF75B
:101F900060F9C4EB0410400004F01CFA024601236F
:101FA0001F213F2000F0BAF81F2222216846FFF7C8
:101FB000C3FBDDE900510E461F2227216846FFF7CB
:101FC000BBFBDDE9002331462846FFF742F9641CDC
:101FD000E4B20C2CDDD302221F213F20FEF77EFF4E
:101FE0001E221F213F20FEF79FFD00F0FBFABDE8F7
:101FF000FC41FEF7D2BB000038B501210420FFF7F9
:10200000ABFE4FF4F870ADF8000010208DF803001F
:1020100003200F4C8DF8020069462046FFF720FB95
:10202000B0212046FFF773FB40212046FFF76FFBEE
:10203000642001F081F840212046FFF766FBC820AC
:1020400001F07AF840212046FFF761FB38BD00001F
:10205000000801400149C86070470000D00000201E
:1020600010B510F0FF4F0ED004F03AF8074A084BB5
:1020700003F042FE0022074B03F050FC03F060FB2C
:102080000549886010BD00200146F7E76E861BF009
:10209000F921094000806640D00000200149087005
:1020A00070470000E10000200149487070470000BF
:1020B000E10000200149487070470000F80000204E
:1020C00030B57F280FDC3F290DDC0E4B1D78CB1778
:1020D00001EB537323F00703CC1A0123A3401DB176
:1020E000094C02E0017030BD084CCD1701EB557171
:1020F000C91004EBC111084401780AB11943F1E792
:102100009943EFE7E000002010550020105900200F
:10211000014AC2E900017047D000002010B5144602
:10212000FFF7F6FF0348C3602046BDE81040FFF705
:1021300097BF0000D00000200CB500222648009276
:102140000192016841F4803101604FF4A06301689D
:1021500001F4003101910099491C0091019911B9D4
:1021600000999942F3D10168890333D50121019186
:102170001A490A6842F010020A600A6822F0030253
:102180000A600A6842F002020A60416841604168E0
:102190004160416841F480614160416821F47C11F3
:1021A0004160416841F4E8114160016841F080718B
:1021B000016001688901FCD5416821F0030141609B
:1021C000416841F0020141604168C1F38101022987
:1021D000FAD10CBD01920CBD00100240002002405B
:1021E0002DE9F04FC3B03F2042901F204190409016
:1021F000012500202E463C90FEF7CFFA002445E052
:10220000429803F04EFD81468A46284603F049FD78
:1022100007468846204603F05BFD364A364B03F0FE
:102220006BFD3A46434603F079FB80463F9100F050
:1022300011FF83463E91409803F033FD07465A460E
:102240003D913E9B03F058FD4A46534603F0AAFADF
:1022500003F0F8FC4DF82400419803F022FD81467C
:102260008A4640463F9901F0A3FF02460B46384696
:102270003D9903F041FD4A46534603F093FA03F0BB
:10228000E1FC1EA941F82400641CE4B2AC42B7DBB7
:102290000027EB46A5F10108A5F1020A15E007F1B8
:1022A000010909F0FF040CE01EA95BF8242051F895
:1022B000243051F827105BF82700FEF7CAFF641C92
:1022C000E4B24445F0DD09F0FF075745E7DD35444A
:1022D000142D00D005B97642642002F0E5F900F033
:1022E00081F93C98401C3C905A2885D143B0BDE808
:1022F000F08F00004AD8124DFB2119402DE9F04122
:1023000000252F464FF44878002600242246314607
:102310003846FFF7ECFD6D1C454508DA641C3C2C83
:10232000F4DB761C3C2EF0DB7F1C0C2FECDBBDE8D5
:10233000F0814FF0E0210428086903D020F0040068
:102340000861704740F00400FAE710B502F09CFF06
:10235000012803D0BDE8104002F08ABC10BD000087
:102360000F4810B5016841F00101016041680D4A54
:102370001140416001680C4A11400160016821F47C
:1023800080210160416821F4FE0141604FF41F018A
:102390008160FFF7D1FE05494FF00060086010BD75
:1023A000001002400000FFF8FFFFF6FE08ED00E01D
:1023B00010B5084C0121204600F039F8012802D15F
:1023C00005A0FDF779FF2046BDE81040012100F08F
:1023D0002BB800000004004054494D33CAE4B3F662
:1023E0002E2E2E2E2E2E2E0D0A00000010B5084C7B
:1023F0000121204600F01BF8012802D105A0FDF7BD
:102400005BFF2046BDE81040012100F00DB8000040
:10241000000C004054494D35CAE4B3F62E2E2E2E42
:102420002E2E2E0D0A000000C9430182704702467D
:102430000020138A92890B4202EA010202D0002A8C
:1024400000D001207047000070B5154C40F22551B6
:10245000204600F035F800280ED0204600F0BEF8E7
:10246000104AC1B21088030406D444044FF000039C
:1024700006D50A2901D0138070BD40F400400DE05C
:102480000D2909D0C0F30D04074D401C80B2295519
:102490001080C728EFD870BD40F48040108070BD18
:1024A000003801403A000020FC000020002981890A
:1024B00002D041F4005101E021F4005181817047C4
:1024C00070B501F01F0501260024C1F3421306FA7E
:1024D00005F2012B0FD0022B0FD0838A4FEA112176
:1024E0000088134206FA01F600EA060001D000B1A6
:1024F0000124204670BD8389F0E7038AEEE710B51A
:10250000C1F3421301F01F040121A140012B07D0A8
:10251000022B07D01430002A026805D00A4304E0D9
:102520000C30F8E71030F6E78A43026010BD000077
:1025300030B50446008A85B00D464CF6FF71084060
:10254000E98801432182A0894EF6F3110840A98849
:102550002A8911436A8902431143A181A08A4FF657
:10256000FF410840A9890143A1826846FFF700FCAA
:102570001948844201D1039800E00298A189090416
:1025800000EBC00101EB0010296801D5490000E013
:102590008900B0FBF1F06422B0FBF2F109010B09F4
:1025A0006FF018056B4300EB8300A3891D044FF007
:1025B000320306D503EBC000B0FBF2F000F00700D9
:1025C00005E003EB0010B0FBF2F000F00F00084351
:1025D000208105B030BD0000003801408088C0F384
:1025E0000800704700F006B80148FFF7DBB90000AB
:1025F00010550020FFF7F8BFFEE70000044B1B78E2
:102600000BB1044B00E0044B03EBC0104254704785
:10261000E000002010550020105900200021FFF795
:10262000C7BA0121FFF7C4BA490050EAC12018BF58
:1026300004204A0D18BF40F0010040F2FF72B2EBD7
:10264000515F08BF40F00200012808BF0520704715
:102650002DE9F74F144694B00021C4E902111599F1
:10266000079121F00045C9498D4206DC1599C4E95E
:10267000000117B00020BDE8F08FC549DFF814A3B2
:10268000A9423CDD0799C44E0029C44FC44A15999C
:10269000534619DD03F03AFC554506D0C14AC24BFA
:1026A00003F034FCC4E900010AE04FF0D352BE4B02
:1026B00003F02CFC32463B4603F028FCC4E9000141
:1026C00017B00120BDE8F08F03F06CF8554506D037
:1026D000B44AB54B03F066F8C4E900010AE04FF0D4
:1026E000D352B14B03F05EF832463B4603F05AF842
:1026F000C4E9000117B04FF0FF30BDE8F08FAB49DF
:10270000A942159978DB21F0004183468846A84A02
:10271000A84B03F0F1FA0022A74B03F043F803F0B3
:1027200091FA099003F0BDFA06460F469C4A5346BB
:1027300003F0E2FA43465A4603F0DCFB80468A4641
:10274000984A994B3046394603F0D6FA2A0D0125AE
:102750000B924246534603F0CDFB032DC4E9000122
:1027600039D00B98C1F30A51401A05EB45111139C4
:10277000814230DA9148C346784400EB0510CDF829
:102780000CA00C90D0E900233046394603F0B4FA8F
:1027900002460B46049106905846039903F0B6FB97
:1027A00080468A4602460B465846039903F0AEFB24
:1027B000049B069A03F0AAFB83460C9803913946C2
:1027C000D0E90223304603F097FA5A46039B03F000
:1027D0009DFB6D1CBDE707980028A2BF099817B0A4
:1027E000BDE8F08F616881F000416160099817B021
:1027F0004042BDE8F08FFFE784461598C1F313010E
:10280000C0F30A50A0F2F5304FEA601800F01F063E
:10281000C6F12000139000200690079041F4801E1E
:1028200005206D4676B1664A08EB00017A4452F8FD
:10283000213002EB8101B3404A68139922FA01F179
:10284000194305E05F4908EB0002794451F8221072
:10285000A1FB0E27A1FB0C131A449A4234BF01239B
:10286000002303EB070A05EB8003D3E901B70F440C
:102870008F4234BF0121002193448B4411B1934511
:1028800002D903E0934501D2012100E00021C3E910
:1028900001B7514445F82010011EA0F10100C1DC30
:1028A0000298059F00F10050800F12900298DDE918
:1028B0000356800003F0F5F9834628460D9103F096
:1028C00007FA6FF01D0203F0F0FECDE90E0130466D
:1028D00003F0FEF96FF03D0203F0E7FE80468A4602
:1028E000384603F0F5F96FF05D0203F0DEFE0746AF
:1028F00042465346119102F055FFDDE90E2302F0E6
:1029000051FF5A460D9B02F04DFF00250E465A46D8
:1029100028460D9B03F0FAFADDE90E2303F0F6FAE0
:102920004246534603F0F2FA3A46119B03F0E2FAAC
:10293000DFF898A0244A534603F0DEF9074688469C
:10294000234A244B3146284603F0D6F93A464346FB
:1029500002F028FF074688464FF0A842534631460A
:10296000284603F0C9F93A46434602F01BFF159A80
:1029700012F0004F04D0129A81F00041524212929C
:10298000C4E90001129817B0BDE8F08FFB21E93FC0
:102990007CD90240FB21F93F7370032E8A19A33BB7
:1029A000000040543163621A61B4D03DFB213941CB
:1029B00083C8C96D305FE43F0000E03F6C4E00000B
:1029C000E84D0000CA4D0000182D4454FB21F93D8C
:1029D0003326A611460B113C2DE9FF4D21F000488E
:1029E00007460C46B8F1795F08DA03F02BF90028A6
:1029F00001BF0020324904B0BDE8F08D3A462346BD
:102A00001046194603F078F9054602462D480E4651
:102A10000B460621784400F05DF82A46334603F061
:102A20006BF9DDE9022382468B463846214603F0E6
:102A300063F904460F4652465B462846314603F08A
:102A40005BF922463B4603F061FA07468A464FF09F
:102A5000FF322846314603F028FE1B4A90450ADA29
:102A60003A46534603F052FA04B00022BDE8F04D56
:102A7000134B03F03FBA154A4245A8BFA8F500150D
:102A80004FF00004B8BF124D22462B4603F03EFA29
:102A90000646884622462B460020094903F036FAAE
:102AA00004460D463A4653463046414603F02EFA58
:102AB00004B022462B46BDE8F04D03F01BBA0000DF
:102AC0000000F03F984B00003333D33F0000E93F54
:102AD0000000D23F2DE9F0414F1E00EBC701044634
:102AE000D1E9000115461E4637F006020DD02A46F0
:102AF000334603F001F97F1E04EBC703D3E900233B
:102B000002F050FE37F00602F1D1022F25D0042F3B
:102B100013D0062F18BFBDE8F0812A46334603F0D4
:102B2000EBF8D4E90A2302F03DFE2A46334603F0CF
:102B3000E3F8D4E9082302F035FE2A46334603F0D1
:102B4000DBF8D4E9062302F02DFE2A46334603F0D3
:102B5000D3F8D4E9042302F025FE2A46334603F0D5
:102B6000CBF8D4E9022302F01DFE2A46334603F0D7
:102B7000C3F8D4E90023BDE8F04102F013BE000021
:102B80002DE9FF4D054621F0004084B00C46B0F120
:102B9000795F0BDA2846FFF747FD042808BF00F0ED
:102BA00071F8284608B02146BDE8F08D2A460B464C
:102BB000104603F0A1F806460F462A46234603F0C6
:102BC0009BF8804626488A4632463B460521784493
:102BD000FFF780FF83461098029160B3214A224B91
:102BE0004046514603F088F8CDE900015A46404678
:102BF0005146029B03F080F882468846DDE90601D3
:102C00004FF0FF3203F051FD5246434603F07EF988
:102C100032463B4603F070F8DDE9062303F076F90F
:102C2000DDE9002303F072F908B02A462346BDE827
:102C3000F04D03F05FB90B465A463046394603F073
:102C40005BF8084A084B02F0ADFD4246534603F0DC
:102C500053F808B02A462346BDE8F04D02F0A2BD65
:102C6000DE4A0000495555555555C5BF012203F0B0
:102C70001CBD02F097BD002213461046114602F01B
:102C80004DBE0000024A0020110703F00EBD0000F7
:102C900001FDFFFF704700002DE9F84F04460D4687
:102CA00021F0004000917349814211DC7249884251
:102CB00001DC06D12CB120462946BDE8F84FFFF7CC
:102CC000D5BF6E48002DCCBF6D496E49BDE8F88F69
:102CD0006D49814211DD6D498142D8BF4FF0FF3609
:102CE0006DDD20462946FFF79FFC042808BFFFF74B
:102CF000C9FF20462946BDE8F88F6549654F25F094
:102D00000045814233DD6449814219DD00263246A7
:102D10004FF080432046294602F044FD80468A4613
:102D200001222046294603F0C0FC00223B4603F066
:102D3000EDF84246534602F0F1FD04460D463EE0F2
:102D400001260022BA463B462046294602F02AFDCB
:102D500080460F46002253462046294603F0D6F807
:102D600042463B4602F0DAFD04460D4627E04B4959
:102D700081421BDDDFF828A10226002253462046AF
:102D8000294602F0B9FF00223B4602F00BFD8046C7
:102D90000F46002253462046294603F0B7F8424624
:102DA0003B4602F0BBFD04460D4608E003262246E2
:102DB0002B4600203B4902F0B1FD04460D46224659
:102DC0002B461046194602F097FF8B468246024674
:102DD0000B4602F091FF07460246334888460B46F1
:102DE00006217844FFF776FE52465B4602F084FFE8
:102DF00082462E488B463A46434605217844FFF7E3
:102E000069FE3A46434602F077FF02460B46002E23
:102E1000504659460CDA02F0C5FC22462B4602F019
:102E20006BFF01B022462B46BDE8F04F03F062B8BD
:102E300002F0B8FC22462B4602F05EFF1C4A7A44A0
:102E400002EBC603D3E9002303F060F822462B46C9
:102E500003F05CF8174A7A4402EBC603D3E9002377
:102E600003F048F8009A002AB8BF81F00041BDE89D
:102E7000F88F0000000010440000F07F182D44542B
:102E8000FB21F93FFB21F9BF0000DC3F0000203EA1
:102E90000000F33F0000F03F0000E63F00800340E9
:102EA0000000F83F0000F0BF9A47000058470000BC
:102EB000F6460000BE4600002DE9F04D9446CCF1E8
:102EC000000423F000464CEA0404594F46EAD47447
:102ED0009A46884621F00042BC4206D8454240EA64
:102EE000050442EAD474BC4204D9BDE8F04D624600
:102EF000FFF7BFBEAAF14055A5F17F6555EA0C0466
:102F00000BD0022404EAAA744A4DDFF82CE144EA0B
:102F1000D87452EA000B04D00CE0BDE8F04DFFF786
:102F2000BBBE002C14BF012CBDE8F08D022C30D0AC
:102F3000032C32D056EA0C0B0AD0BE4220D1BA4242
:102F400009D126F0804622F080423346114617E030
:102F500000291ADB25E0DFF8E4B0FB44002C04BFB5
:102F6000DBE90001BDE8F08D012C02BFDBE90001C7
:102F700081F00041BDE8F08D022C0AD0032C0CD06A
:102F8000BA4212D1B8F1000F0BDA2A482C49BDE839
:102F9000F08D28462B49BDE8F08D28467146BDE8E6
:102FA000F08D24482849BDE8F08D921B12153C2A6B
:102FB000C4BF204F244E10DCBAF1000FBEBF12F187
:102FC0003C0F00273E4608DB624602F0A7FC21F0DA
:102FD0000041FFF761FE07460E4694B1012C08BF81
:102FE00086F000460DD0194A194B022C384631465E
:102FF00015D002F08BFF2A46BDE8F04D114B02F0D0
:1030000085BF002213463846314602F0DFFD04BF7B
:103010000220FDF7B5FA38463146BDE8F08D02F0E2
:1030200075FF2A46BDE8F04D064B02F063BF000075
:103030000000F07F182D4454FB2109C08246000097
:10304000FB21F9BFFB210940FB21F93F075C143349
:1030500026A6A13C00B5244B21F0004287B09A423D
:10306000DCBF0022134629DD204B9A4208D140B92B
:103070004FF00100FDF784FAFFF7FDFD07B000BD3A
:1030800003DBFFF7F3FD07B000BD02AAFFF7E0FA8C
:1030900010F0030104BF0DF1080C9CE80F000DD0E7
:1030A000012001290ED0022914D00DF1080C009046
:1030B0009CE80F00FFF764FD07B000BDFFF78CFC34
:1030C00007B000BD0DF1080C00909CE80F00FFF761
:1030D00057FD05E00DF1080C9CE80F00FFF77CFCA4
:1030E00007B081F0004100BDFB21E93F0000F07F07
:1030F00010B50420FFF71DF90C480D490D4A006872
:10310000B0FBF1F3B0FBF1F14FF47A70414313706F
:10311000012050804FF0E020026942F0020202617B
:103120004161016941F00101016110BD20000020F1
:1031300040420F003600002070B5044602F0A4F8AB
:1031400001280CD0094D6888844203D3B4FBF0F009
:1031500001F0AAFA6888B4FBF0F100FB11444FF4C7
:103160007A706043BDE8704000F002B8360000207D
:1031700070B54FF0E02500216C69094AAB691278FF
:103180005043AA699A42FCD002D2A3EB020302E0A8
:10319000A4EB02063344194413468142F1D370BDB7
:1031A000360000202DE9FC47FDF7F7FA0120FEF775
:1031B00081FF0021FDA20846FEF760F9FFF712FA31
:1031C0004FF47A75284601F06FFA0220FEF772FF7D
:1031D000F6A208210020FEF751F9FFF703FA28466E
:1031E00001F062FA0320FEF765FFF0A2182100202B
:1031F000FEF744F9FFF7F6F9284601F055FAFDF716
:10320000CCFA00244FF496760020FEF753FF0423F7
:10321000224660210020FEF76EF80120FEF74AFFEB
:103220000423224610210020FEF765F80220FEF755
:1032300041FF0423224618210020FEF75CF80320FA
:10324000FEF738FF0423224628210020FEF753F81A
:10325000FFF7C8F9012001F027FA641CB442D3DB60
:10326000284601F021FAFDF798FA002423461A4671
:103270001146D0A0FEF7D6FC072001F015FA641C19
:10328000FF2CF3DD284601F00FFAFDF786FA002443
:1032900004EB8400420000213F230846FDF7D9FFDC
:1032A000FFF7A0F9642001F0FFF9641C142CEFDB98
:1032B00000248026604200EB800006EB40023F23A2
:1032C00000218020FDF7C5FFFFF78CF9642001F095
:1032D000EBF9641C142CEDDBAA46284601F0E4F956
:1032E00000254FF4FA79402700E00DB9FDF755FAB3
:1032F0000024604207EB400306EB80026000214699
:10330000FEF755F8FFF76EF9642001F0CDF9A41C23
:103310001F2CEEDB0DB9FDF740FA484601F0C4F969
:103320001F24604207EB400306EB80026000214649
:10333000FDF7D5FEFFF756F9642001F0B5F9A41E9C
:10334000002CEEDC0020FEF7A9FE0020FEF7ACFE0C
:103350006D1C022DC9DB0120FEF7A0FE0120FEF747
:10336000A3FE00254FF0080800E00DB9FDF715FA9F
:103370000024604207EB400106EB8000CBB2C2B2F2
:1033800060002146CDF80080FEF730F8FFF72AF9FB
:10339000642001F089F9A41C192CEADB0DB9FDF7B2
:1033A000FCF9484601F080F91924604207EB40011E
:1033B00006EB8000CBB2C2B260002146CDF800809F
:1033C000FEF7ABF8FFF70EF9642001F06DF9A41ECB
:1033D000022CEADC0020FEF761FE0020FEF764FE0E
:1033E0006D1C022DC1DB0120FEF758FE0120FEF707
:1033F0005BFE5546504601F057F9FDF7CEF91F2305
:103400003F2219461046FDF747FCFFF7EBF8284628
:1034100001F04AF9FDF7C1F91F23102219463F2098
:10342000FDF73AFCFFF7DEF8284601F03DF9FDF71D
:10343000B4F91F233F2219461046FDF7AEFDFFF7F2
:10344000D1F8284601F030F9FDF7A7F91F23102223
:1034500019463F20FDF7A1FDFFF7C4F8284601F00B
:1034600023F9FDF79AF91E221F213F20FDF75CFB8F
:10347000FFF7B8F8284601F017F9FDF78EF91E227C
:103480001F213F20FDF72AFDFFF7ACF8284601F089
:103490000BF9FDF782F932243C26CDE900641E23A6
:1034A00064220A210520FEF720F8FFF79BF8284642
:1034B00001F0FAF8FDF771F9CDE900641E236422EA
:1034C0000A210520FDF71BFEFFF78CF8284601F0C6
:1034D000EBF8FDF762F910200346002100903B4A0B
:1034E0000846FDF7BDF9FFF77DF8284601F0DCF846
:1034F000202003460090364A00211020FDF7B0F945
:10350000FFF770F8284601F0CFF84023314A002138
:1035100030200097FDF7A4F9FFF764F8284601F082
:10352000C3F8FDF73AF900244FF4B87600231E22C1
:103530001F213F200094FDF73DF9FFF753F8FDF7F9
:103540002CF9641CB442F1DD1E221F213F20FDF73F
:10355000EBFAFFF747F8484601F0A6F800242246A8
:103560001F213F20FDF7BAFC1E221F213F20FDF73F
:10357000DBFAFFF737F8FDF710F9642001F094F853
:10358000641C0A2CEBDB00244FF43476204602F056
:1035900009FFFEF765FD1F213F20FEF7B9FD3D2223
:1035A0003F216846FEF7C8F8052215E0746573747C
:1035B000000000006E756D3A2564206368613A254D
:1035C00063206865783A25780D0A00008267000854
:1035D000A267000822680008DDE90001FDF77EFC13
:1035E0001E221F213F20FDF79FFA0A221F213F20A4
:1035F000FDF774FCFEF7F6FFFDF7CFF8641CB4424C
:10360000C4DB002404F5347002F0CCFEFEF728FD84
:1036100004F13F001F210646FEF77AFD3D223146A8
:103620006846FEF789F8DDE900010522FDF756FC42
:103630001E221F213046FDF777FA0A221F2130464D
:10364000FDF74CFCFEF7CEFFFDF7A7F8641C5F2CDE
:10365000D8DB2846BDE8FC4701F026B804490A88B3
:103660005206FCD5024AC1B2121D118070470000FB
:10367000003801400B4C0020FEF7A8F801280DD0BF
:10368000022805D0032809D1A06801F007FA05E057
:10369000A06801F045F9206901F042F90A2001F023
:1036A00003F8E8E7000000200346012000E058434B
:1036B000491EFCD27047000070B50546FEF736F88B
:1036C000104C06460A2D16D00D2D19D00120FEF7FC
:1036D000F1FCD4E901012A46FDF794F93046FEF7E2
:1036E000E9FC6068801D60602178002908D07A2894
:1036F00006DD0A25E2E7A0680830A06000206060CF
:1037000070BD0000E400002010B5044602E0641C17
:10371000FFF7D2FF20780028F9D110BD1CB54FF477
:103720004070FEF71BF9FFF7E3FC4FF4E13000F0C7
:10373000E1FDFEF72AF8FEF79DF8FEF729F80749A4
:103740000120CDE900010023802205A1074801F0F6
:103750006FFD01F059F900201CBD0000040000209D
:1037600073746172745F7461736B0000514200087E
:10377000074910B501444C08214602F051FD21468D
:1037800002F0DAFCBDE810404FF0FF3102F0BBBFA1
:1037900062CF763F0346012000E05843491EC9B27C
:1037A000FBD27047007870472DE9F041184E0F4664
:1037B0000446F5683068001D00F0ECFD38B930684B
:1037C00090F82C1001208840316981433161601CE0
:1037D00007D137B13168BDE8F0410E48091D00F04E
:1037E00011BE30682C44AC424460316805D2B06BE5
:1037F000BDE8F041091D00F0EDBD706B091D00F042
:10380000E9FDB06A844200D2B462BDE8F0810000F4
:1038100054000020D40400202DE9F041054600F0BA
:10382000FDFD2D4EB068401CB06030682B4F10B1CC
:10383000706930B32BE03560B068012827D10024CF
:1038400004EB840007EB800000F0B6FD641C202C24
:10385000F6D3234800F0B0FD2148143000F0ACFD51
:103860001F48283000F0A8FD1D483C3000F0A4FDA2
:103870001B48503000F0A0FD194870631430B0634D
:1038800005E03068E96AC06A884200D83560706A2D
:103890000121401C70626864E86A3269814011430A
:1038A000316100EB800007EB8000291D00F0AAFDCC
:1038B00000F0F0FD706900280CD03068E96AC06A39
:1038C000884207D207494FF080500860BFF34F8FFE
:1038D000BFF36F8FBDE8F081540000200402002088
:1038E0008404002004ED00E010B500F097FD0E4CBC
:1038F0002068A0B90D4800F05FFD0C48143000F0BE
:103900005BFD0A48E0601430206100221021052090
:1039100001F0C4F9206010B105A100F091FEBDE8EE
:10392000104000F0B7BD000090000020E804002027
:10393000546D72510000000070B5124E124D1CE023
:1039400001F014F9306820B1002401F0CBFDA4B9D6
:1039500001E00124F9E700F061FDF068C468201D72
:1039600000F018FDA868401EA8606868401E6860E6
:1039700000F090FD204600F052F868680028DFD182
:1039800070BD0000C00400205400002030B4026C60
:103990000B46002A0BD0C1681144C1604468A142A3
:1039A00001D30168C16030BC1846FCF74ABD30BC89
:1039B00070472DE9F041856B174604460026026CDE
:1039C00082B1C7B1E068FCF73CFDE168206C091AE0
:1039D000E1602268914202D26168081AE060022F19
:1039E00016D017E02068A8B9606801F0D5FC06463B
:1039F000002060600EE0A068FCF723FD216CA06849
:103A00000844A0606168884204D32068A06001E097
:103A100005B16D1E6D1CA5633046BDE8F08110B583
:103A20000446006B00F068FD2046BDE8104000F041
:103A300063BD000010484FF4A041420706D0C01DEE
:103A40000D4920F00700411AC1F5A0410B4A00239F
:103A50000144C2E900030839103A21F0070111605E
:103A60004B600B600B1AC0E9001393604FF00040ED
:103A70005360D0607047000010050020B4000020A3
:103A8000074E4FF08054074DFFF756FF306801286E
:103A9000FAD92C60BFF34F8FBFF36F8FF4E70000AC
:103AA0000402002004ED00E02DE9F047DDE909847F
:103AB0000E461746824691009946089DA522206B26
:103AC000FCF704FD6FF00301206B01EB8701084454
:103AD00020F00707780705D040F22B3219A11EA06D
:103AE000FCF7EAFB00202218315C82F83410315CCC
:103AF00011B1401C1028F6D3002684F84360202D15
:103B000000D31F25E562C4E91356201D00F05FFCB9
:103B100004F1180000F05BFC2461C5F12000646230
:103B2000A061666584F858604A465146384600F000
:103B30002DFB2060B8F1000F01D0C8F80040BDE8AF
:103B4000F08700002E2E5C4672656552544F535C20
:103B50007461736B732E63004572726F723A2573D2
:103B60002C25640D0A00000030B5114900E0114613
:103B70000A688242FBD34B685C18844203D14068D8
:103B800018444860084643681C18944209D1084C00
:103B9000103C2468A24209D052681A4442600A6864
:103BA00012680260814200D0086030BD0460F9E70D
:103BB000B400002070B5002441600B4D00619142BB
:103BC00006D8D11A8269914206D2011D286907E000
:103BD0009A4203D2994201D3012403E0011DE8680F
:103BE00000F0F8FB204670BD9000002010B50446A0
:103BF00000F014FCA06B20B1002400F04BFC204628
:103C000010BD0124F9E700002DE9F34100980F46AB
:103C10000026846C2CB940F6CE1216A11AA0FCF72F
:103C20004BFBA06BE16B884205D340F6CF1211A18C
:103C300015A0FCF741FBA06BE16B88420CD294F914
:103C400045503A4669462046FFF7B3FE0646681CD3
:103C500005D06D1C84F845503046BDE8FC81606A93
:103C60000028F9D004F1240001F0F0FB0028F3D083
:103C70000126F1E72E2E5C4672656552544F535C67
:103C800071756575652E63004572726F723A2573A2
:103C90002C25640D0A000000F8B5054614480E46B0
:103CA000C068C068C468201D00F074FBE06901288A
:103CB00017D1A0692B46411932462046FFF77AFFFB
:103CC00078B100200346014600902A46204601F0C4
:103CD000EFFC30B907494FF4027201F11800FCF70C
:103CE000EBFA616A01B02046BDE8F04008470000E9
:103CF000900000201456000870B586B02F4E53E097
:103D00000198002806DADDE90301029A904701983C
:103D1000002849DB039C606910B1201D00F03AFBCC
:103D200005A800F0A7F8054601980A283CD2DFE86C
:103D300000F00505053B273805053B270298A169DA
:103D4000034601442A462046FFF734FF00282BD0C3
:103D5000616A20468847E069012825D1002000904B
:103D60000298A169002342181946204601F0A0FCE0
:103D7000D0B940F2213212A117A0FCF79DFA13E04E
:103D80000298A06128B94FF44E720DA112A0FCF761
:103D900093FAA0692B4641191A462046FFF70AFFFD
:103DA00002E0204600F0A8FB00231A4601A9306873
:103DB00000F0B0FF0028A3D106B070BD9000002035
:103DC0002E2E5C4672656552544F535C74696D6566
:103DD00072732E63000000004572726F723A257391
:103DE0002C25640D0A000000F8B50D46064600F0CB
:103DF000BDFE684600F03EF80446009810B101F0A0
:103E000071FBF8BD1148ADB101690968D9B1002550
:103E1000311B2A46006800F025FC01F063FB0028F6
:103E2000EFD10B494FF080500860BFF34F8FBFF3C5
:103E30006F8FF8BDA642EBD801F054FB2146304607
:103E4000FFF72AFFF8BD0125E2E7000090000020FF
:103E500004ED00E00648416B096829B1416BC9686F
:103E6000C9684968816270474FF0FF31FAE7000086
:103E70005400002070B5054601F014FA064E0446C1
:103E8000B068844203D200F009F8012000E000206D
:103E900028602046B46070BD90000020F8B5184E30
:103EA00026E0C068C4680568201D00F073FA616AE6
:103EB00020468847E06901281AD1A0692844A84211
:103EC00006D924616060211DF06800F083FA0FE0DC
:103ED00000200346014600902A46204601F0E8FBF8
:103EE00030B9084940F2923201F11800FCF7E4F9C8
:103EF000F06801680029D4D13169C6E90310F8BD22
:103F0000900000201456000808484068401C04D067
:103F1000F42207A111A0FCF7CFF9502080F31188FB
:103F2000BFF34F8FBFF36F8FFEE70000BC00002090
:103F30002E2E5C4672656552544F535C706F7274DE
:103F400061626C655C525644535C41524D5F434D17
:103F5000335C706F72742E63000000004572726FE4
:103F6000723A25732C25640D0A00000070B50025F7
:103F7000040005D140F2816207A10CA0FCF79CF976
:103F80000E496069884205D1A06A2839884201D06B
:103F900000B90125284670BD2E2E5C46726565521B
:103FA000544F535C7461736B732E63004572726F70
:103FB000723A25732C25640D0A000000D4040020F9
:103FC000084CE068016839B1002139B10020FFF7E1
:103FD0000BFFFFF791FEF4E70121F6E7C0680068E8
:103FE000F5E70000900000202DE9F041044600F0C4
:103FF00015FA94F9455004F1240610E0A06C20B1A4
:1040000000212046FFF700FE04E0606A48B1304618
:1040100001F01CFA08B100F0E3FB6D1E6DB2002D3B
:10402000ECDC4FF0FF3684F8456000F033FA00F026
:10403000F5F994F9445004F1100709E0206948B1FA
:10404000384601F003FA08B100F0CAFB6D1E6DB2EC
:10405000002DF3DC84F84460BDE8F04100F01ABAAA
:104060002DE9F0410546002600F080FD324F38680A
:1040700008B9FFF7DFFCF86805424FD1002D4DD09D
:10408000083568070BD005F00700C0F108000544AB
:10409000680704D0BF2229A132A0FCF70DF9002D3A
:1040A0003CD07868854239D82349103108460468E5
:1040B00001E0214604466068A84202D22068002838
:1040C000F7D13868B846844228D00E682068086066
:1040D00060680836401B10280ED96719780704D08D
:1040E000EC2216A11FA0FCF7E7F86068401B78607F
:1040F00038466560FFF738FD6168D8F8040042462D
:10410000401AC8F80400D8F80830984200D29060ED
:10411000D8F80C0001430020C4E9000101F0E2F9E5
:10412000700705D04FF4967204A10EA0FCF7C4F8F6
:104130003046BDE8F0810000A40000202E2E5C4631
:1041400072656552544F535C706F727461626C6536
:104150005C4D656D4D616E675C686561705F342EA6
:10416000630000004572726F723A25732C25640D4E
:104170000A0000000449086818B10868026D521C62
:1041800002650868704700005400002010B5031F46
:104190004FF080741C601B1F21F001011960191F72
:1041A000024B0B60143940380A6010BD093F00080B
:1041B00000B5254B21F0004287B09A4203DC002273
:1041C000134600922BE0214B9A4208D140B94FF0A0
:1041D0000100FCF7D5F9FEF74EFD07B000BD03DB8B
:1041E000FEF744FD07B000BD02AAFEF731FA10F059
:1041F00003014FF001000DD0012914D002291AD07B
:104200000DF1080C9CE80F00FEF7E6FB07B081F00B
:10421000004100BD0DF1080C00909CE80F00FEF776
:10422000AFFC07B000BD0DF1080C9CE80F00FEF7D5
:10423000D3FB07B000BD0DF1080C00909CE80F0007
:10424000FEF79EFCE2E70000FB21E93F0000F07F63
:104250007CB500F0E3F818480090022301224FF4E7
:104260007A7116A001F0B0F9184C02250023E06124
:1042700004F11400CDE90050802215A1174800F088
:10428000D7FF012004F10C01CDE900014202002317
:1042900013A1174800F0CCFF01F004F80246009586
:1042A00000230121E06901F003FA606800F032FAAE
:1042B000BDE87C4000F0EEB8411D00084F6E65532C
:1042C000686F7454696D6572000000000000002082
:1042D0006B65795F7461736B0000000075360008D0
:1042E0004F4C45445F544553545F7461736B0000F9
:1042F000251B000870B5054686B0012144F2040074
:10430000FDF72AFD4FF40070ADF8100003248DF87E
:10431000124018201D4E8DF8130004A93046FDF7F9
:104320009FF93015ADF8100004208DF8130004A992
:104330003046FDF795F925208DF814008DF81540CD
:104340008DF8164001208DF8170005A8FDF7D4FA66
:104350000020ADF80400ADF80600ADF80800ADF897
:104360000C000C200A4CADF80A0000956946204666
:10437000FEF7DEF8012240F225512046FEF7BFF895
:1043800001212046FEF792F806B070BD00080140FA
:1043900000380140D0E9013201699A60D0E9012377
:1043A0005A604A68824201D182684A6000220261F2
:1043B0000868401E0860704700F108014FF0FF32A6
:1043C000C0E90112C1600161002101607047002154
:1043D0000161704730B50C68621C02D000F1080220
:1043E00002E0026904E01A4653681D68A542FAD942
:1043F00053684B6099608A60516008610168491C8C
:10440000016030BD42684A6093688B609368596070
:10441000916008610168491C01607047502080F379
:104420001188BFF34F8FBFF36F8F09494868401C55
:10443000486001280AD10748006810F0FF0F05D036
:104440004FF4BD7204A10FA0FBF736BF7047000008
:10445000BC00002004ED00E02E2E5C467265655223
:10446000544F535C706F727461626C655C52564459
:10447000535C41524D5F434D335C706F72742E63D9
:10448000000000004572726F723A25732C25640D8E
:104490000A00000010B5084C606828B940F281128B
:1044A00006A111A0FBF708FF6068401E606001D103
:1044B00080F3118810BD0000BC0000202E2E5C4649
:1044C00072656552544F535C706F727461626C65B3
:1044D0005C525644535C41524D5F434D335C706FA8
:1044E00072742E63000000004572726F723A257379
:1044F0002C25640D0A00000070B500282AD0164D46
:10450000A0F108046068E968084205D14FF4A07280
:1045100012A11CA0FBF7D0FE206828B140F2411286
:104520000EA118A0FBF7C8FE6068E968084211D028
:104530002268002A0ED18843606000F017FB606893
:104540006968084468602046FFF70EFBBDE87040CC
:1045500000F0C8BF70BD0000A40000202E2E5C46F5
:1045600072656552544F535C706F727461626C6512
:104570005C4D656D4D616E675C686561705F342E82
:10458000630000004572726F723A25732C25640D2A
:104590000A00000006484FF47A710068B0FBF1F1A0
:1045A0004FF0E020491E4161072101617047000082
:1045B0002000002010B5FBF759FE104C10280CD33A
:1045C00000F1E02090F8F0032178884205D24FF402
:1045D0002A720BA115A0FBF76FFE18480068A168AE
:1045E00000F4E060884207D9BDE810404FF42E7215
:1045F00003A10EA0FBF760BE10BD0000BC000020B0
:104600002E2E5C4672656552544F535C706F727407
:1046100061626C655C525644535C41524D5F434D40
:10462000335C706F72742E63000000004572726F0D
:10463000723A25732C25640D0A0000000CED00E091
:1046400010B5074B002253F832401CB1521C082A07
:10465000F9D310BD43F8321003EBC201486010BD1E
:10466000C401002070B515460E460446FFF7D6FE7D
:1046700094F944100020491C01D184F8440094F9B5
:104680004510491C01D184F84500FFF703FFA06BDA
:1046900028B92A46314604F1240000F0D1F820461A
:1046A000BDE87040FFF7A0BC10B5040012D00E4961
:1046B000096B29B140F2CF420CA111A0FBF7FCFD20
:1046C00000F054FA00212046FFF76EF800F00AFFD0
:1046D000002807D10E494FF080500860BFF34F8F7C
:1046E000BFF36F8F10BD0000540000202E2E5C46DB
:1046F00072656552544F535C7461736B732E630023
:104700004572726F723A25732C25640D0A00000001
:1047100004ED00E070B50446FFF780FE234D04B9B8
:104720002C68201DFFF736FE58B9E06A204A00EBDE
:10473000800152F8211021B9012181402869884364
:104740002861A06A18B104F11800FFF723FE686A17
:10475000401C68622868844207D1211D1548FFF774
:1047600051FE6868401C686007E0A868401EA860A9
:104770002046FFF754F9FFF76DFBFFF78BFE6869E2
:10478000002812D0286884420FD1286B28B140F24B
:10479000654209A10DA0FBF78FFD10494FF0805035
:1047A0000860BFF34F8FBFF36F8F70BD54000020C0
:1047B00004020020C00400202E2E5C467265655263
:1047C000544F535C7461736B732E63004572726F48
:1047D000723A25732C25640D0A00000004ED00E0F8
:1047E00001490120C86170475400002070B50D4692
:1047F000040005D140F6063207A10CA0FBF75CFDD2
:104800000E48016820461831FFF7E4FD2846BDE850
:1048100070400121FEF7C8BF2E2E5C4672656552BE
:10482000544F535C7461736B732E63004572726FE7
:10483000723A25732C25640D0A00000054000020F4
:1048400070B514460E46050005D140F6313209A177
:104850000DA0FBF731FD1048016828461831FFF71D
:10486000D1FD0CB14FF0FF3621463046BDE8704017
:10487000FEF79ABF2E2E5C4672656552544F535C0C
:104880007461736B732E63004572726F723A257395
:104890002C25640D0A0000005400002070B50400AF
:1048A00039D01D4DE06A2968C96A884233D2A069AF
:1048B000002804DB2868C06AC0F12000A061E06A1B
:1048C000164E00EB8000616906EB800081421FD12B
:1048D000201DFFF75FFD012150B9E06A00EB800267
:1048E00056F8222022B92A6901FA00F082432A618F
:1048F0002868C06AE0622A6981401143296100EB9F
:10490000800006EB8000211DBDE87040FFF77ABDF6
:104910002868C06AE06270BD5400002004020020D4
:1049200070B504002BD01A4D286884422FD0FFF7B1
:1049300075FD2046FFF71AFBE8B1201DFFF72AFDA1
:10494000E06A01212A69814011432961114900EB84
:10495000800001EB8000211DFFF754FDE06A29680B
:10496000C96A884207D30C494FF080500860BFF3F2
:104970004F8FBFF36F8FBDE87040FFF78BBDBDE871
:10498000704040F2AB6205A109A0FBF795BC70BD79
:10499000540000200402002004ED00E02E2E5C46AE
:1049A00072656552544F535C7461736B732E630070
:1049B0004572726F723A25732C25640D0A0000004F
:1049C00010B5040005D140F6C13205A109A0FBF7DE
:1049D00073FC0C48016A2160C068606010BD000073
:1049E0002E2E5C4672656552544F535C7461736B36
:1049F000732E63004572726F723A25732C25640D15
:104A00000A000000540000201CB517480024CDE91E
:104A100000402346822215A1164800F009FC012817
:104A200003D100F00BFE01280AD0401C1BD102B0BC
:104A300040F28472BDE810400FA114A0FBF73CBC0B
:104A4000502080F31188BFF34F8FBFF36F8F06485C
:104A50004FF0FF312C38816201214161C460BDE813
:104A60001C4000F0C9B81CBD8000002049444C45E2
:104A700000000000813A00082E2E5C4672656552E7
:104A8000544F535C7461736B732E63004572726F85
:104A9000723A25732C25640D0A00000070B5044697
:104AA000FFF7BCFC244D04B92C68201DFFF772FCF5
:104AB00058B9E06A214A00EB800152F8211021B96F
:104AC00001218140286988432861A06A18B104F156
:104AD0001800FFF75FFC211D1948FFF793FCFFF753
:104AE000D9FC686928B1FFF799FCFFF7B3F9FFF724
:104AF000D1FC2868844211D1686980B1286B28B143
:104B000040F257620FA114A0FBF7D6FB16494FF0F5
:104B100080500860BFF34F8FBFF36F8F70BD0848A0
:104B2000A9680068884202D10020286070BDBDE8F5
:104B3000704000F023B80000540000200402002060
:104B4000D40400202E2E5C4672656552544F535C8F
:104B50007461736B732E63004572726F723A2573C2
:104B60002C25640D0A00000004ED00E00248016BF2
:104B7000491C0163704700005400002070B5134DBC
:104B8000286B10B10120E86170BD0020E861286940
:104B90000F4EB0FA80F0C0F11F0000EB800456F811
:104BA000240028B940F6F6220AA10FA0FBF784FBE7
:104BB00006EB840000F108024168496841609142B7
:104BC00001D149684160C868286070BD5400002068
:104BD000040200202E2E5C4672656552544F535CD1
:104BE0007461736B732E63004572726F723A257332
:104BF0002C25640D0A0000001CB51A4908780190A4
:104C0000FF20087008788DF800009DF80000164A13
:104C100000F0500010700720906007E09068401E80
:104C200090609DF8000040008DF800009DF80000A5
:104C30000006F3D4107A000200F4E060906001985E
:104C400008700A48016841F470010160016841F090
:104C500070410160FFF79EFC00205060FBF7D0FA26
:104C600000201CBD00E400E0BC00002020ED00E0BE
:104C700010B5502080F31188BFF34F8FBFF36F8FB3
:104C800000F016FB18B104494FF080500860002076
:104C900080F3118810BD000004ED00E02DE9F04123
:104CA00017460E46050005D14FF4C47210A115A099
:104CB000FBF702FBBEB105FB06F05430FFF7D0F95D
:104CC00004000ED004F154007EB12060C4E90F56F8
:104CD0002046012100F0E0F884F8507000212046C1
:104CE000A164BDE8F0810020E7E72460EEE7000062
:104CF0002E2E5C4672656552544F535C7175657516
:104D0000652E63004572726F723A25732C25640D0F
:104D10000A0000002DE9FF4F83B09B468A4604003D
:104D20004FF0000605D140F2DC4251A155A0FBF73F
:104D3000C3FABAF1000F07D1206C28B140F2DD426E
:104D40004BA150A0FBF7B8FA00F09EFA38B90598CD
:104D500028B14FF49C6246A14AA0FBF7ADFA4FF090
:104D600000094FF08057DFF82C81FFF757FBA56B48
:104D700045B351462046E668FEF708FEBBF1000F3A
:104D800013D0E660606A50B104F1240000F05EFBCD
:104D900028B1C8F80070BFF34F8FBFF36F8FFFF7D4
:104DA00079FB012007B0BDE8F08F6D1EA563206878
:104DB00010B9FFF7DFF9606020690028EFD004F137
:104DC0001000E3E7059808B11EB106E0FFF762FBAB
:104DD00027E06846FFF7F4FD0126FFF75BFBFFF7CE
:104DE000C5FEFFF71BFB94F94400401C01D184F879
:104DF000449094F94500401C01D184F84590FFF798
:104E000049FB05A9684600F0CFF9002820460AD0E2
:104E1000FFF7EAF800F066FB2046FEF7E7FE002801
:104E2000A3D00020BEE7FEF7E1FED8B1206830B97C
:104E3000FFF7F4FA6068FFF731FDFFF72BFB04F191
:104E400024000599FFF7D2FC2046FFF7CDF800F0CB
:104E500049FB002889D1C8F80070BFF34F8FBFF31A
:104E60006F8F82E72046FFF7BFF800F03BFB7CE73F
:104E70002E2E5C4672656552544F535C7175657594
:104E8000652E63004572726F723A25732C25640D8E
:104E90000A00000004ED00E070B50D46040005D1E5
:104EA00040F21B121CA121A0FBF706FAFFF7B6FA8D
:104EB000D4E90F20216802FB001161600021A16389
:104EC0002168A1600A46D4E90F01401E00FB0121C0
:104ED000E16021464FF0FF3001F8440F487004F1C3
:104EE00010004DB1FFF768FA04F12400FFF764FAEF
:104EF000FFF7D0FA012070BD21690029F8D000F039
:104F0000A5FA0028F4D00D494FF080500860BFF397
:104F10004F8FBFF36F8FEBE72E2E5C4672656552A5
:104F2000544F535C71756575652E63004572726FE1
:104F3000723A25732C25640D0A00000004ED00E090
:104F40002DE9FF4F83B099468B4604004FF00006D1
:104F500005D140F2D92252A156A0FBF7ADF9BBF121
:104F6000000F07D1206C28B140F2DA224CA151A0E9
:104F7000FBF7A2F9B9F1020F08D1E06B012805D0C7
:104F800040F2DB2246A14BA0FBF796F900F07CF93A
:104F900038B9059828B140F2DE2241A145A0FBF7BF
:104FA0008BF94FF0000A4FF08057DFF81881FFF7B8
:104FB00035FAA06BE16B884206D3B9F1020F03D03A
:104FC000059800B316B325E04A4659462046FEF739
:104FD000F0FCA16C21B149462046FEF715FE05E024
:104FE000616A19B104F1240000F030FA28B1C8F860
:104FF0000070BFF34F8FBFF36F8FFFF74BFA0120A5
:1050000007B0BDE8F08FFFF745FA21E06846FFF7EB
:10501000D7FC0126FFF73EFAFFF7A8FDFFF7FEF9E0
:1050200094F94400401C01D184F844A094F945004F
:10503000401C01D184F845A0FFF72CFA05A9684669
:1050400000F0B2F830B12046FEF7CEFF00F04AFA89
:105050000020D5E7FFF7E2F9A06BE16B884201D1B0
:10506000012500E00025FFF715FA95B104F11000C5
:105070000599FFF7BBFB2046FEF7B6FF00F032FABA
:10508000002894D1C8F80070BFF34F8FBFF36F8F23
:105090008DE72046FEF7A8FF00F024FA87E700001E
:1050A0002E2E5C4672656552544F535C7175657562
:1050B000652E63004572726F723A25732C25640D5C
:1050C0000A00000004ED00E02DE9F047984615467F
:1050D0008946040005D140F29F322AA12EA0FBF799
:1050E000EBF8B9F1000F07D1206C28B14FF46872CA
:1050F00024A129A0FBF7E0F8B8F1020F08D1E06B7A
:10510000012805D040F2A1321EA123A0FBF7D4F85C
:10511000FFF750FA5020EFF3118780F31188BFF3A7
:105120004F8FBFF36F8FA06BE16B884207D3B8F14D
:10513000020F04D0002087F31188BDE8F08794F9AE
:105140004560424649462046FEF733FC701C04D0B9
:10515000761C84F845600120EDE7A06C012620B1A3
:1051600041462046FEF750FD06E0606A0028F2D076
:1051700004F1240000F06AF90028ECD0002DEAD0F8
:105180002E60E8E72E2E5C4672656552544F535CE4
:1051900071756575652E63004572726F723A25737D
:1051A0002C25640D0A00000070B50D46040005D1E1
:1051B00040F6CB3214A119A0FBF77EF82DB940F6CA
:1051C000CC3211A115A0FBF777F8FFF727F9174AA2
:1051D000D06829684B1C0FD02368126A934202D012
:1051E000626882420AD96268801A884206D2081A26
:1051F00028602046FFF7E4FB002400E00124FFF7CD
:1052000049F9204670BD00002E2E5C46726565523D
:10521000544F535C7461736B732E63004572726FED
:10522000723A25732C25640D0A00000054000020FA
:105230002DE9FF5F8346DDE90E87994616468A46CB
:105240009000FEF70DFF05001AD05C20FEF708FF66
:10525000040012D025630021CDE90241CDE9008789
:105260004B46324651465846FEF71EFC2046FEF796
:10527000D3FA012004B0BDE8F09F2846FFF73CF9BF
:105280004FF0FF30F6E700000548416919B1006BA7
:1052900018B10020704701207047022070470000BD
:1052A000540000200148C0687047000054000020EE
:1052B0002DE9F0412D4F0026386B40B1B869401CF4
:1052C000B861F86900B101263046BDE8F081FD689B
:1052D0006D1CFD6011D1786B006828B140F6D912C1
:1052E00023A128A0FAF7E8FF786BB96B7963B8635C
:1052F000386A401C3862FEF7ADFDB86ADFF894806A
:10530000854209D3786B006880B1786BC068C46847
:10531000606885420DD2B8623868C06A00EB8001CF
:1053200058F821000128CCD90126CAE74FF0FF30F8
:10533000F1E7201DFFF72EF8A06A18B104F118005C
:10534000FFF728F8E06A01213A6981401143396189
:1053500000EB800108EB8100211DFFF753F8E06AA4
:105360003968C96A8842CDD30126CBE754000020B2
:105370002E2E5C4672656552544F535C7461736B9C
:10538000732E63004572726F723A25732C25640D7B
:105390000A0000000402002070B504004FF000066F
:1053A0003CD01F4D2868844205D040F6C7621DA13D
:1053B00021A0FAF781FF206D28B940F6C96219A132
:1053C0001DA0FAF779FF206D401E2065E26CE16AAE
:1053D000914223D010BB201DFEF7DCFF1A490122A9
:1053E00050B9E06A00EB800351F8233023B92B69F0
:1053F00002FA00F083432B61E06CE062C0F1200010
:10540000A061E06A2B6982401A432A6100EB8000A8
:1054100001EB8000211DFEF7F5FF0126304670BD2F
:10542000540000202E2E5C4672656552544F535C2A
:105430007461736B732E63004572726F723A2573D9
:105440002C25640D0A000000040200202DE9F04123
:10545000C068C4682CB940F6613216A11AA0FAF7E8
:105460002BFF04F118000746FEF794FF1A4D286B36
:10547000012660B139461948FEF7C4FFE06A296881
:10548000C96A884213D90120EE61BDE8F081201D70
:10549000FEF780FFE06A2A6906FA00F111432961EC
:1054A0000F4900EB800001EB8000211DE4E70020A4
:1054B000EBE700002E2E5C4672656552544F535C3C
:1054C0007461736B732E63004572726F723A257349
:1054D0002C25640D0A00000054000020AC040020BC
:1054E000040200202DE9F0472B4D00242746286BAD
:1054F00028B94FF4FD6229A12DA0FAF7DDFEFEF7D1
:105500008DFF286B401E2863286BE8BBA8682C49D8
:105510000126C8B3A1F52A798846D8F80010E9B168
:10552000D8F80C00C46804F11800FEF733FF201D02
:10553000FEF730FFE06A2A6906FA00F1114329619B
:1055400000EB800109EB8100211DFEF75BFFE06AA3
:105550002968C96A8842E0D3EE61DEE70CB1FEF744
:1055600079FCAC693CB1FFF7A3FE00B1EE61641EAB
:10557000F9D10020A861E86930B112490127380744
:105580000860BFF34F8F00E001E0BFF36F8FFEF7BD
:1055900081FF3846BDE8F087540000202E2E5C467F
:1055A00072656552544F535C7461736B732E630064
:1055B0004572726F723A25732C25640D0A00000043
:1055C000AC04002004ED00E02DE9F04707469946C1
:1055D00016460D462C20DDF820A0FEF741FD040004
:1055E00014D0B8464F46D1462DB94FF4C67209A122
:1055F0000EA0FAF761FEFEF777F904F11801C4F87E
:10560000008081E8E002201DFEF7E1FE2046BDE8B3
:10561000F08700002E2E5C4672656552544F535C35
:1056200074696D6572732E63000000004572726FBD
:10563000723A25732C25640D0A0000001CB5002465
:10564000FEF752F90C48006868B10B491F20091D8C
:10565000CDE9000100234FF4827208A10948FFF749
:10566000E7FD040005D140F2331207A10CA0FAF7C0
:1056700023FE20461CBD000090000020546D7220C7
:1056800053766300C13F00082E2E5C46726565525A
:10569000544F535C74696D6572732E630000000093
:1056A0004572726F723A25732C25640D0A00000052
:1056B0002DE9FF47DDF830A0994690460D460600DB
:1056C0004FF0000705D14FF4D37212A117A0FAF7DB
:1056D000F3FD1A4C206880B1CDE900580296062DE2
:1056E00011DAFFF7D1FD02284FF0000309D00022A4
:1056F00069462068FFF724FC074604B03846BDE839
:10570000F0875246F4E700234A466946FFF7DCFC7F
:10571000F2E700002E2E5C4672656552544F535CD2
:1057200074696D6572732E63000000004572726FBC
:10573000723A25732C25640D0A00000090000020A9
:1057400021F00042A2F16052B2F5801F01F0004347
:1057500028BFD2F17F6C0BD95FEA001C43EAC2027A
:1057600042EB507018BF704728BF20F0010070470F
:10577000B2F5801FBCBF184670474FEA410C1CF5BC
:10578000001F02D2084600F0B3BE70B500F05EFB09
:1057900000000089FFF7F6BF4FF00040A0F5800041
:1057A0007047000010B591EA030F48BF83F0004333
:1057B00000F1B483841A71EB030C05D2121943EB88
:1057C0000C03001B61EB0C01DFF824E14FEA1154DC
:1057D000A4EB135C1EEA430F18BF9EEA445F73D02C
:1057E00023EA0E03DCF1200E21EA045143F4801376
:1057F00032D322FA0CFE10EB0E0023FA0CFE41EB22
:105800000E01CCF1200E03FA0EFE10EB0E0051F14A
:105810000001B1F5801FCCF1200E32D201EB045112
:1058200012FA0EF2BDE8104058BF7047401C38BF56
:105830005FEA420218BF7047002814BF20F0010041
:1058400041F100014FEA410313F5001F38BF7047D3
:10585000A1F1C04100F048BB012A43EB0302ACF1C7
:10586000200CDCF11F0E32BF4FF0000E23FA0CF3B8
:1058700010EB030041EB0451B4EB115FD0D0A1EB6E
:10588000045101F5801149085FEA300001EB045131
:105890000ED350F1000038BF12FA0EFE08D1BDE859
:1058A0001040C9E7401C38BF5FEA4202CAD1C3E7D3
:1058B000BDE810404FEA410313F5001F38BF7047A1
:1058C000A1F1C04100F010BB9EEA445F08D011EA8C
:1058D0005E0FBDE8104004BF01F00041002070479A
:1058E000BDE8104070B500F0B1FA00BF64FBBE3EE9
:1058F0000000E0FF02494FF0000000F0A4BE00BF2E
:105900000000F87F491058BFC1F140415B1058BFFB
:10591000C3F140438B42EFF3008070472DE9C04153
:1059200030B4DFF8A0C23CEA111418BF3CEA1314EB
:1059300000F0EC8081EA03051CEA111444EAD574F6
:1059400018BF1CEA131500F0C780A4EB05044FF044
:10595000004545EAC12145EAC32341EA505143EAE3
:10596000525304F17F74994204F500344FEAC02089
:105970004FEAC22208BF904200F09C804FEA1365B4
:105980000FF24016765D4FEA134506FB05F7C7F1A7
:10599000807706FB07F74FEAD737A7FB0368764205
:1059A000C8F58038A7FB06CE38BFA8F1010807FB71
:1059B00008E64FF0000EA6FB028CE6FB03CEDCF1FE
:1059C000000CCEF1004E38BFAEF1010EA6FB0C5814
:1059D0004FF000074FF00005E6FB0E87A1FB08C65D
:1059E000A0FB07CE16EB0E0645F10005E1FB0765AF
:1059F00015F1E04E7EBFA4F580345FEA46066D41A6
:105A000016F1800745F100054FEA17274FEA0666B1
:105A100047EA0567A6F1DE46B6F1805F4FEA152535
:105A20001FD9384624F0010C05EBC471BCF1FE6FA0
:105A300001EB0C1102D8F0BCBDE8008124425CBF30
:105A400001F5801E9EEAC47F02D4F0BCBDE800814F
:105A5000244238D4F0BCA1F1C041BDE8004100F0BF
:105A600043BA4FEAD22242EA43524FEAD323A7FB7A
:105A700002864FEAD02040EA415007FB03661EEA47
:105A80000E0F4FEAD12105FB026658BFA6EB005668
:105A9000B6EB00564FEA520E4EEAC37E18EB0E0EDE
:105AA00056EB530EBDD518EB02085E417F1C55F135
:105AB0000005B6E74FF480154FF000074FF00006E1
:105AC0004FF00008ADE7F0BC4FF0000001F1C0411D
:105AD00001F00041BDE8008111EA0C1F0CEA13152A
:105AE00000D00CE013EA0C1F00F025804FF00000FE
:105AF000F0BC81EA030101F00041BDE80081F0BC87
:105B0000BDE8004181EA030100F0EEB9F0BCBDE858
:105B1000004170B500F09AF9097EFC3E00F007B82C
:105B200081EA03014FF0000001F00041704781EA73
:105B3000030100F0D9B9F0BCBDE800414FF000000E
:105B400021497047FFFDFBF9F7F5F4F2F0EEEDEBBC
:105B5000E9E8E6E4E3E1E0DEDDDBDAD8D7D5D4D36B
:105B6000D1D0CFCDCCCBCAC8C7C6C5C4C2C1C0BFB7
:105B7000BEBDBCBBBAB9B8B7B6B5B4B3B2B1B0AFBD
:105B8000AEADACABAAA9A8A8A7A6A5A4A3A3A2A1A1
:105B9000A09F9F9E9D9C9C9B9A999998979796955C
:105BA00095949393929191908F8F8E8E8D8C8C8BF8
:105BB0008B8A898988888787868585848483838280
:105BC000828181800000FF070000F87F51EA030C0A
:105BD00017D41CF5801F58BFBCF5801F00F106804C
:105BE000994218BF704708BF9042704707D711F518
:105BF000801F58BF13F5801F19D4994270478942FE
:105C000070471CF5801F08D5BCF5801FF7D58B4267
:105C100018BF704708BF824270474FF4001C1CEB4E
:105C2000410F38BF1CEB430F01D28B42704770B558
:105C300000F00CF9922449004FF000514FF08053CE
:105C4000FFF760BE4FEA41034FEA5353A3F5806369
:105C5000D3F11E03C8BFD3F1210C0CDD4FF000427D
:105C600042EAC12242EA505232FA03FC8CEAE17C59
:105C7000ACEBE1707047102BC4BF0020704703F5F8
:105C8000787CBCF1FF3F04D06FF0004282EA210033
:105C9000704770B500F0DAF8499224800020704710
:105CA000F2E710F0004248BF4042B0FA80F310FA29
:105CB00003F10AD0C3F11D0303F580634FEA41509D
:105CC00002EB035202EBD12170474FF00000704706
:105CD000B0FA80F310FA03F10AD0C3F11D0303F503
:105CE00080634FEA41504FEA035202EBD1217047E3
:105CF0004FF0000070470000DFF848C170B51CEAA3
:105D0000111E1EBF1CEA13159EEA0C0F95EA0C0F1C
:105D100000F06F8081EA030423EA4C134EEAD47E3C
:105D200021EA4C1141F4801143F48013AE44A1FBED
:105D3000024CA0FB0365AEF17F7E361955EB0C05D6
:105D4000A1FB034C4CF10003A0FB021C16EB0C065C
:105D5000654153F10003094218BF46F0010613F4F0
:105D6000007F0BD14FEA03314FEA0530340341EA9B
:105D7000155140EA16506FF003020AE04FEAC321C2
:105D80004FEAC520F40241EA555140EA56506FF0FF
:105D9000020202EB2E4201EB025585EACE710AD0D7
:105DA0005FEA440C18BF24F0004450F1000041F1B8
:105DB000000120EAD47040F2FE7C624500D270BD42
:105DC000A84214BF4FF080444FF04044002E08BF5B
:105DD0000024BEF1806FA8BFA1F1C041BDE87040B2
:105DE00080F282804FF0000001F1C04101F00041DB
:105DF00070479EEA0C0F0CEA131518BF95EA0C0FBA
:105E000006D04FF0000081EA030E0EF0004170BD95
:105E100000F01CF88900013E00F007B800F009B856
:105E20004FEA430C5FEA5C5C08D081EA030100F0B2
:105E30005BB84FEA410C5FEA5C5CF6D14FF00000C2
:105E4000014970470000FF070000F87F0EF1020EC5
:105E50002EF0030E5EF8046B364205D4012A43EBA4
:105E6000030515F5001F12D8012841EB010C1CF5A4
:105E7000001F0CD80ED14FEAD17C15F5001F0CEB9A
:105E80004C0C0CF1020C08BF4CEBD37C04E04FF03F
:105E9000080C01E04FEAD37C0CEB4C0526FA05F622
:105EA00006F00706B6F1040C06D20EEB860CBDE830
:105EB00070404CF0010C6047DFE80CF0090B020267
:105EC0004FF000414FF00000A1F5002170BD1946D0
:105ED0001046012851EB010418BFD4F5001484BF0B
:105EE000002001F0004170BD0808A0F500114FEA44
:105EF0003101704791EA030F10B581F000413FF581
:105F000059AC83F0004300F009B8000010B591EAE5
:105F1000030F48BF83F000433FF54CAC841A71EB8C
:105F2000030C07D212198CF0004C43EB0C03001B3E
:105F300061EB0C01DFF8A4E14FEA1154A4EB135C10
:105F40001EEA430F18BF9EEA445F00F0B08023EAC8
:105F50006E03524221EA0451C3EB6E0338BF5B1E4D
:105F6000DCF1200E25D322FA0CFE10EB0E0043FAD2
:105F70000CFE41EB0E01CCF1200E03FA0EFE10EBED
:105F80000E0051F10001CCF1200E29D412FA0EF2CC
:105F900001EB0451BDE8104058BF7047401C1CBFC6
:105FA000B2F1004F704700280CBF491C20F00100DF
:105FB000704712EB020E43EB030218BF4FF0010EC5
:105FC0004EEA4202ACF1200CDCF11E0E54D943FA29
:105FD0000CFE10EB0E0051F1FF31CCF11E0ED5D5A9
:105FE0000EF1010E12FA0EFE404141EB010101EBF0
:105FF000445C5FEA5C5C10D910EBDE7001EB04518D
:1060000038BFBEF1004FBDE8104018BF70470028F0
:106010000CBF491C20F00100704730D24FEAD42C4D
:1060200011F5001124F400641BD0B1FA81F20B3A8F
:10603000A41AA41ED2F12003914030FA03F31943AD
:10604000904001EBCC71002C01EB0451BDE81040F5
:10605000A8BF704701F1C0414FF0000001F00041BE
:106060007047B0FA80F310FA03F100D110BDE41AC2
:10607000173C4805C90AE4E701EB045110BD49107B
:1060800001EB0451BDE810404FEA300002E04FF050
:10609000000170474A0008BF0042F8D0B2F5001F67
:1060A00028BF704701F000414FF0000070479EEAA2
:1060B000445F07D011EA5E0FBDE8104004BF002125
:1060C00000207047BDE8104070B5FFF7BFFE00BF6D
:1060D00040DFF63E83F00041104670470000E0FFCD
:1060E00043004FEAD30C4FEA3C0C43401FBF40072C
:1060F0000CF1605113F0FE4F70471CF0006F03D19C
:1061000000200CF0004170470CF0004343EA50704F
:1061100010B540EACC0000F0A5F900BF00000092E5
:106120004FEA0001FFF7E0BE4FF000414FF00000E2
:10613000A1F500217047000090EA010F48BF81F0EF
:10614000004100F11282421A3CBF801A89184FEABE
:10615000D0524FF07F4C1CEA410FA2EBD15318BF35
:106160009CEA026F00F03B804FF0004C4CEA0020AC
:106170004CEA012121FA03FC10EB0C0C1ED202F1B7
:10618000FF325FEA1C2040EBC25038BF70471CF062
:106190007F0F4FEA400C18BFBCF17F4F38BF7047EC
:1061A000C3F12003994008BF20F00100BCF17F4FEC
:1061B00038BF7047A0F1C04000F09AB94FEA3C00E8
:1061C000000A40EBC25028BF1CF0FF0F4FEA400C02
:1061D000E6D018BFBCF17F4F38BF7047EAE79CEAB2
:1061E000026F05D010EA5C0F08BF00F00040704756
:1061F00010B500F037F900BF64FBBE3E014800F067
:1062000022BA00BF0000C07F401058BFC0F140401C
:10621000491058BFC1F140418142EFF300807047FF
:106220004FF47F0C1CEAD0121EBF1CEAD11392EA75
:106230000C0F93EA0C0F00F0858090EA010F48BF25
:1062400042F4807240F4000C41F400002CF07F41D5
:1062500020F07F4000B58142A2EB03020FF2081C40
:10626000ACEB504EC0F100009EF800E04FEA4E0E3D
:1062700000FB0EFC38BF49004FEA2C1C02F5FA0265
:106280000CFB0EF34FEACE1E4FEA112C4FEAC12150
:106290000EEB635E42EB22420EFB0CFC4FEA1C53FA
:1062A00000FB03114FEA112C4FEA01310EFB0CFCED
:1062B0004FEADC4C00FB0C11C14228BF09184CEB23
:1062C00003335DF804EB10EB410143EBC250B2F530
:1062D0007C0F38BF704729D512F0F00F1CBF00F1BA
:1062E000C04000F00040704700818283848586872B
:1062F00088898B8C8D8E8F919293959697999A9C85
:106300009D9FA0A2A3A5A7A8AAACAEB0B2B3B5B7F3
:10631000B9BCBEC0C2C5C7C9CCCED1D4D7D9DCDFC9
:10632000E2E6E9ECF0F3F7FAFE0000004FEA400C79
:106330000CF1807CBCF17E4F28BF7047B0F1C040AB
:1063400000F0D6B890EA010F0CEAD11348BF42F42E
:106350008072624538BF634507D213F47F0F16D0B1
:1063600080EA010000F00040704710B500F07AF8B4
:10637000097EFC3E00F005B880EA010000F0004014
:10638000704780EA010000F0004000F0B1B812F45C
:106390007F0F04BF0248704780EA010000F0A8B8F0
:1063A0000000C07F10F0004148BF4042B0FA80F3C7
:1063B00010FA03F2C3F19D030BD051EAC35101EB74
:1063C0001220530638BF704700F1010008BF20F0CB
:1063D00001007047B0FA80F310FA03F2C3F19D0395
:1063E0000AD0D90501EB1220530638BF704700F1DF
:1063F000010008BF20F001007047000050EA010CC6
:1064000000F113801CF5000F58BFBCF5000F01D43C
:106410008842704707D710F5000F58BF11F5000FDD
:1064200015D488427047894270471CF5000F04D587
:10643000BCF5000FF7D5814270474FF0807C1CEB14
:10644000400F38BF1CEB410F01D28142704710B59D
:1064500000F008F8922449004FF000504FF08051AE
:10646000FFF7D2BE0EF1020E2EF0030E5EF8044BC3
:10647000244204D44FEA4102B2F17F4F11D84FEACF
:106480004003B3F17F4F0CD80ED14FEAD07CB2F16C
:106490007F4F0CEB4C0C0CF1020C08BF4CEBD17C89
:1064A00004E04FF0080C01E04FEAD17C0CEB4C0308
:1064B00024FA03F404F00704B4F1040C06D20EEB42
:1064C000840CBDE810404CF0010C6047DFE80CF094
:1064D000070802024FF00040A0F5800010BD0846FA
:1064E000420018BFD2F1807288BF00F0004010BD9A
:1064F000FF2141EAD050C005704751EA000C00F17D
:1065000013801CF5000F58BFBCF5000F01D4814269
:10651000704707D711F5000F58BF10F5000F15D4BD
:1065200081427047894270471CF5000F04D5BCF5C5
:10653000000FF7D5884270474FF0807C1CEB410F6D
:1065400038BF1CEB400F01D28842704780EA01003F
:1065500081EA000180EA0100FFF779BF90EA010FAC
:1065600048BF81F000413FF5EEAD421A04D882F0F9
:106570000042A0EB020011444FEAD0524FF07F4C92
:106580001CEA410FA2EBD15318BF9CEA026F4AD01C
:106590004FF0004C4CEA00204CEA012121FA03FCA8
:1065A000B0EB0C0C0FD412F0FE0F36D05FEA4C00AB
:1065B0001DD5001240EBC25038BF70471CF03F0F92
:1065C00018BF70470BE0A2F101025FEA1C2040EB0C
:1065D000C25038BF70471CF07F0F18BF7047C3F11F
:1065E0002003994014BF401E20F00100704780082E
:1065F0004FEA122308BF7047B0FA80FCA2EB0C02EE
:10660000CCF1280C60FA0CF093EA122F04BF00EBD7
:10661000C25070474FEAC3707047130A5FEADC103C
:1066200008BF7047F6E79CEA026F04D010EA5C0FDF
:1066300008BF0020704710B5FFF714FF40DFF63E9B
:1066400081F0004070470CF00F03092B08BF0820B1
:1066500000F07F800A2B0BD0082B18BF704708BFB3
:106660001CF0400F0AD04FF000004FF000017047BF
:106670001CF0400F18BF4FF0004070471CF0100F87
:1066800008D020F0704300F07F4242EAD3014FEA85
:106690004370704700F0604021F07F4242EA000200
:1066A00001F07F4040EA727070474FF0FF0C4CF4ED
:1066B000E06C1CEA11531CBF9CEA030C9445C2BF5A
:1066C000DA4201EB02517047002B0DD0BCF1000FF4
:1066D0000FD0002A01F00041A4BF41F0E04141F099
:1066E0007F614FF00000704701F000414FF0000063
:1066F000704750EA01334FF09B0C18BF4CF0806C90
:106700007FF4F8A870474FF0FF0212EAD0521CBF86
:1067100092F0FF038B42C2BFD14200EBC1507047E1
:10672000002A0AD0002B0BD0002900F00040A4BFA3
:1067300040F0FE4040F40000704700F00040704719
:1067400043024FF00B0C18BF4CF0806C7FF456AD39
:1067500070471CF4801F11D01CF4E02F03D06FEAA7
:10676000CC31490070474FF04050EFF3008222F0E7
:10677000704242EA000282F3008870474FF0000046
:10678000704700000037CD821241411282CD3700A0
:106790000000000C3249848D792525798D84493299
:1067A0000C000000000000000F39E163120E848429
:1067B0000406060484840E1263E1390F0000000011
:1067C000000000000000000000808F70C0819B333B
:1067D00060585860331B81C070DB800000000000EF
:1067E00000000000F0980C06C3E1207E3FA3E7857F
:1067F000257E7E2585C7A33F7E30E1C3060C98F039
:1068000000000000000101073F40BCE2A2DC603F45
:10681000202020203F60DCA6E2BE48300F010100AE
:1068200000000000000000000000000000003EFF2B
:10683000C303030306060E8CDCF87870303018189A
:1068400018181818181830307078F8DC8C0E0606F6
:10685000030303C3FF3E000000000000000000002F
:106860000000000000000000000000000000000028
:10687000030F9CF8781E07030180C0C0C080000091
:1068800000000000000080C0C0C0800103070E7C33
:10689000F89C0F0300000000000000000000000052
:1068A00000000000000000000000000000000000E8
:1068B00000007FFF800000000007CFCC0D07030021
:1068C00020E0E0200003070DCCCF0700000000808F
:1068D000DF1F0000000000000000000000000000BA
:1068E00000000000000000000000000000000000A8
:1068F00080C0E06337BEF8F0E0C0818307061E3E2B
:10690000776363773E1E06078381C0E0F0F8BC3FE3
:1069100063E0C080000000000000000000000000F4
:10692000000000000000000080C0E070381C0E076E
:106930000301000000FFFF03070C1D1B33336666D5
:1069400066F6F666666633331B190D0603FFFF0015
:1069500000000103070E1C3870E0C080000000003A
:106960000000000000007EFF830100000000C0F076
:1069700078FCCE06063F3F0606ECFC78F0C0001C13
:106980003E37373E1C0000E0F078FCCE06077F3E25
:106990000606EC7C78E0800000000183FF7E0000AA
:1069A00000000000000000000103030303FFFF00DC
:1069B0000080F0780C0C0C1CF8F0000083FF7C00C9
:1069C000000000000000FFFF0000C0F0380C0C0CBD
:1069D0001CF8E00000C7FF170303030101000000DB
:1069E0000000000000000000000000000000030F95
:1069F000387067CFDCD8D8DCEF63381C0F07060689
:106A0000060606060604070F1E387167CEDCD8D8C6
:106A1000CC6F63381E0F0300000000000000000070
:106A2000000000000000003E5B4F5B3E3E6B4F6B82
:106A30003E1C3E7C3E1C183C7E3C181C577D571C5F
:106A40001C5E7F5E1C00183C1800FFE7C3E7FF00D8
:106A500018241800FFE7DBE7FF30483A060E262926
:106A6000792926407F050507407F05253F5A3CE7E9
:106A70003C5A7F3E1C1C08081C1C3E7F14227F22AF
:106A8000145F5F005F5F06097F017F006689956A7A
:106A9000606060606094A2FFA29408047E04081005
:106AA000207E201008082A1C08081C2A08081E102E
:106AB0001010100C1E0C1E0C30383E3830060E3EE6
:106AC0000E06000000000000005F00000007000745
:106AD00000147F147F14242A7F2A1223130864626F
:106AE00036495620500008070300001C22410000D0
:106AF00041221C002A1C7F1C2A08083E080800802E
:106B000070300008080808080000606000201008C5
:106B100004023E5149453E00427F400072494949C6
:106B2000462141494D331814127F102745454539F8
:106B30003C4A4949314121110907364949493646FC
:106B40004949291E000014000000403400000008DC
:106B5000142241141414141400412214080201597F
:106B600009063E415D594E7C1211127C7F4949490C
:106B7000363E414141227F4141413E7F49494941A1
:106B80007F090909013E414151737F0808087F00D0
:106B9000417F41002040413F017F081422417F4056
:106BA0004040407F021C027F7F0408107F3E41412D
:106BB000413E7F090909063E4151215E7F0919299D
:106BC00046264949493203017F01033F4040403F87
:106BD0001F2040201F3F4038403F631408146303C8
:106BE000047804036159494D43007F414141020447
:106BF000081020004141417F04020102044040404E
:106C00004040000307080020545478407F28444443
:106C1000383844444428384444287F38545454185D
:106C200000087E090218A4A49C787F080404780058
:106C3000447D40002040403D007F1028440000413A
:106C40007F40007C047804787C080404783844444D
:106C50004438FC1824241818242418FC7C08040444
:106C600008485454542404043F44243C4040207CAD
:106C70001C2040201C3C4030403C44281028444C00
:106C80009090907C4464544C4400083641000000CD
:106C9000770000004136080002010204023C26236E
:106CA000263C1EA1A161123A4040207A3854545526
:106CB00059215555794121545478412155547840F2
:106CC00020545579400C1E52721239555555593978
:106CD0005454545939555454580000457C410002CD
:106CE000457D420001457C40F0292429F0F028250B
:106CF00028F07C545545002054547C547C0A097F6C
:106D00004932494949323248484832324A48483083
:106D10003A4141217A3A42402078009DA0A07D3935
:106D2000444444393D4040403D3C24FF2424487EB7
:106D30004943662B2FFC2F2BFF0929F620C0887EA4
:106D4000090320545479410000447D413048484AA9
:106D500032384040227A007A0A0A727D0D19317D5C
:106D60002629292F28262929292630484D40203830
:106D70000808080808080808382F10C8ACBA2F10EF
:106D80002834FA00007B000008142A142222142A56
:106D900014089500220095AA005500AAAA55AA55E4
:106DA000AA000000FF00101010FF00141414FF00D0
:106DB0001010FF00FF1010F010F0141414FC001459
:106DC00014F700FF0000FF00FF1414F404FC141477
:106DD00017101F10101F101F1414141F0010101074
:106DE000F0000000001F101010101F10101010F005
:106DF00010000000FF101010101010101010FF10E5
:106E0000000000FF140000FF00FF00001F1017002B
:106E100000FC04F414141710171414F404F4000004
:106E2000FF00F714141414141414F700F7141414B6
:106E3000171410101F101F141414F4141010F01055
:106E4000F000001F101F0000001F14000000FC14C1
:106E50000000F010F01010FF10FF141414FF1410B5
:106E600010101F00000000F010FFFFFFFFFFF0F008
:106E7000F0F0F0FFFFFF0000000000FFFF0F0F0F1A
:106E80000F0F38444438447C2A2A3E147E020206FE
:106E900006027E027E0263554941633844443C0445
:106EA000407E201E2006027E020299A5E7A5991CBD
:106EB0002A492A1C4C7201724C304A4D4D303048E0
:106EC000784830BC625A463D3E494949007E01013E
:106ED000017E2A2A2A2A2A44445F444440514A44D3
:106EE0004040444A51400000FF0103E080FF0000A1
:106EF00008086B6B083612362436060F090F060099
:106F00000018180000001010003040FF0101001FA1
:106F100001011E00191D1712003C3C3C3C00000002
:106F20000000000000000000000000000000000061
:106F30000000000000F800000000000000333000F6
:106F4000000000100C06100C0600000000000000FD
:106F5000000040C07840C0784000043F04043F0473
:106F60000400007088FC08300000001820FF211E7B
:106F70000000F008F000E018000000211C031E21B2
:106F80001E0000F00888700000001E21232419272D
:106F9000211010160E00000000000000000000008C
:106FA0000000000000E018040200000000071820A4
:106FB000400000020418E000000000402018070014
:106FC0000000404080F0804040000202010F0102BA
:106FD0000200000000F0000000000101011F01019B
:106FE0000100000000000000000080B07000000000
:106FF000000000000000000000000001010101018C
:10700000010100000000000000000030300000001E
:1070100000000000000080601804006018060100F5
:10702000000000E010080810E000000F1020201001
:107030000F00001010F8000000000020203F20206A
:107040000000007008080888700000302824222101
:1070500030000030088888483000001820202011B7
:107060000E000000C02010F8000000070424243F98
:10707000240000F808888808080000192120201141
:107080000E0000E0108888180000000F1120201169
:107090000E0000380808C83808000000003F000053
:1070A00000000070880808887000001C222121223E
:1070B0001C0000E010080810E0000000312222113E
:1070C0000F00000000C0C0000000000000303000D1
:1070D0000000000000800000000000008060000050
:1070E0000000000080402010080000010204081089
:1070F0002000404040404040400004040404040498
:107100000400000810204080000000201008040245
:107110000100007048080808F00000000030360147
:107120000000C030C828E810E00007182724231406
:107130000B000000C038E0000000203C23020227C2
:10714000382008F8888888700000203F202020110F
:107150000E00C0300808080838000718202020104A
:10716000080008F808080810E000203F2020201040
:107170000F0008F88888E8081000203F202023200E
:10718000180008F88888E8081000203F2000030055
:107190000000C03008080838000007182020221E10
:1071A000020008F808000008F808203F210101212A
:1071B0003F20000808F8080800000020203F202099
:1071C000000000000808F8080800C08080807F00E8
:1071D000000008F888C028180800203F2001263841
:1071E000200008F8080000000000203F2020202098
:1071F000300008F8F800F8F80800203F003F003F92
:10720000200008F830C00008F808203F20000718C8
:107210003F00E01008080810E0000F1020202010A8
:107220000F0008F808080808F000203F21010101BC
:107230000000E01008080810E0000F18242438505F
:107240004F0008F8888888887000203F2000030CD1
:1072500030200070880808083800003820212122DA
:107260001C00180808F8080818000000203F20003B
:10727000000008F808000008F808001F202020205F
:107280001F000878880000C83808000007380E0181
:107290000000F80800F80008F800033C0700073C6D
:1072A0000300081868808068180820302C03032C1D
:1072B00030200838C800C83808000000203F2000EF
:1072C000000010080808C8380800203826212020AF
:1072D0001800000000FE020202000000007F404093
:1072E0004000000C30C00000000000000001063823
:1072F000C00000020202FE000000004040407F008B
:10730000000000000402020204000000000000006F
:10731000000000000000000000008080808080806D
:107320008080000202040000000000000000000055
:1073300000000000808080800000001924222222AA
:107340003F2008F8008080000000003F112020113D
:107350000E000000008080800000000E1120202020
:107360001100000000808088F800000E112020101D
:107370003F200000808080800000001F2222222207
:107380001300008080F0888888180020203F20208B
:1073900000000000808080808000006B94949493B3
:1073A000600008F8008080800000203F210000205D
:1073B0003F2000809898000000000020203F2020FF
:1073C0000000000000809898000000C08080807F4E
:1073D000000008F8000080808000203F24022D304B
:1073E0002000000808F8000000000020203F2020B6
:1073F00000008080808080808000203F20003F202F
:10740000003F8080008080800000203F210000201D
:107410003F200000808080800000001F202020206E
:107420001F00808000808000000080FFA1202011CC
:107430000E000000008080808000000E112020A03F
:10744000FF80808080008080800020203F212000FD
:1074500001000000808080808000003324242424E8
:107460001900008080E0808000000000001F2020C4
:1074700000008080000000808000001F202020107D
:107480003F20808080000080808000010E30080650
:10749000010080800080008080800F300C030C3061
:1074A0000F0000808000808080000020312E0E318F
:1074B0002000808080000080808080818E7018068F
:1074C000010000808080808080000021302C2221FB
:1074D000300000000000807C020200000000003F3D
:1074E000404000000000FF00000000000000FF001E
:1074F00000000002027C800000000040403F0000CD
:107500000000000601010202040400000000000067
:1075100000000000000000004FBB610567ACDD3FCC
:10752000182D4454FB21E93F9BF681D20B73EF3FAA
:10753000182D4454FB21F93FE2652F227F2B7A3C22
:10754000075C143326A6813CBDCBF07A8807703CDB
:10755000075C143326A6913CC4EB98999999C9BF4E
:10756000711623FEC671BCBF6D9A74AFF2B0B3BF83
:107570009AFDDE522DDEADBF2F6C6A2C44B4A2BF43
:107580000D5555555555D53FFF8300922449C23FAF
:107590006E204CC5CD45B73F513DD0A0660DB13FE3
:1075A000EB0D76244B7BA93F11DA22E33AAD903FF5
:1075B0004C5555555555A53F7751C1166CC156BF11
:1075C0009015CB19A001FA3EAD529C804F7E92BE21
:1075D000C4B1B4BD9EEE213ED43888BEE9FAA8BD40
:1075E000000000000000000000004054FB21F93FB3
:1075F0003163621A61B4D03D0000601A61B4D03DBD
:107600007370032E8A19A33B0000002E8A19A33B36
:10761000C14920259A837B3900000000000000004A
:107620006E83F9A22915444ED15727FCC0DD34F5ED
:10763000999562DB4190433CAB6351FE61C5BBDE73
:107640003A6E24B7E0D24D42EA2E49061C92D10987
:107650001CEB1DFE3EA729B1F53582E88444BB2E04
:1076600026709CE9417E5FB439D69139F439538351
:107670008B5F849C3B28F9BDFF97F81F0F9805DEB0
:107680008B112FEF1F6D0A5ACF7E366DB709CB27AE
:10769000663F464F2DEA5F9EC7BA27757BF1E5EB43
:1076A000F739073DEA92528AB15FFB6B085D8D1F87
:1076B000A6F810111111813FD561C119A0012ABF8F
:1076C0007DFEB157E31DC73EEB9C2B8AE6E55ABE13
:1076D0007CD5CF5A3AD9E53DF87600080000002065
:1076E000FC0000006C010008F4770008FC0000209A
:1076F0007462000088010008000000000000000023
:107700000000000000000000000000000000000079
:10771000000000000000000000A24A040000000079
:107720000000000001020304060708090100000030
:107730000000000000000000020406080000000035
:107740000102030401020304060708090000000007
:107750000000000000000000000000000000000029
:107760000000000000000000000000000000000019
:107770000000000000000000000000000000000009
:1077800000000000000000000000000000000000F9
:1077900000000000000000000000000000000000E9
:1077A00000000000000000000000000000000000D9
:1077B0000000000000000000AAAAAAAA0000000021
:1077C0000103070F1F3F7FFF0000000000000000C3
:1077D00000000000010000000101010001000000A4
:1077E0000000000000000000000000000000000099
:0477F0000000000095
:040000050800027578
:00000001FF
